:100000000C94E4010C94AA0E0C94D70E0C940C02E0
:100010000C940C020C940C020C940C020C940C0228
:100020000C940C020C940C020C940C020C940C0218
:100030000C940C020C940C020C940C020C940C0208
:100040000C94040F0C940C020C942E140C94711448
:100050000C940C020C940C020C940C020C940C02E8
:100060000C940C1D0C940C0200000007000201000F
:100070000003040600000000000000000102040864
:100080001020408001020408102001020408102002
:10009000040404040404040402020202020203032E
:1000A00003030303000000002300260029000000D2
:1000B0000000250028002B0000000000240027007D
:1000C0002A00000000000000000000005F000000A7
:1000D0000000000007000700000000147F147F14D8
:1000E000000000242A7F2A12000000231308646203
:1000F00000000036495522500000000005030000B2
:100100000000001C2241000000000041221C0000F1
:10011000000000082A1C2A0800000008083E080801
:10012000000000A0600000000000000808080808A7
:1001300000000060600000000000002010080402C1
:100140000000003E5149453E00000000427F400053
:1001500000000062514949460000002241494936E9
:100160000000001814127F10000000274545453993
:100170000000003C4A4949300000000171090503B4
:100180000000003649494936000000064949291E49
:10019000000000003636000000000000AC6C0000DB
:1001A000000000081422410000000014141414146C
:1001B000000000412214080000000002015109065D
:1001C000000000324979413E0000007E0909097EA5
:1001D0000000007F494949360000003E414141226C
:1001E0000000007F4141221C0000007F4949494135
:1001F0000000007F090909010000003E41415172E1
:100200000000007F0808087F000000417F410000D7
:100210000000002040413F010000007F08142241FF
:100220000000007F404040400000007F020C027F41
:100230000000007F0408107F0000003E4141413E65
:100240000000007F090909060000003E4151215EBF
:100250000000007F0919294600000026494949325B
:1002600000000001017F01010000003F4040403FCD
:100270000000001F2040201F0000003F4038403F8A
:1002800000000063140814630000000304780403F2
:1002900000000061514945430000007F41410000DA
:1002A000000000020408102000000041417F00000F
:1002B00000000004020102040000008080808080B1
:1002C0000000000102040000000000205454547893
:1002D0000000007F484444380000003844442800AF
:1002E000000000384444487F00000038545454183B
:1002F000000000087E09020000000018A4A4A47CED
:100300000000007F08040478000000007D00000069
:1003100000000080847D00000000007F1028440061
:10032000000000417F4000000000007C04180478B9
:100330000000007C08047C000000003844443800C1
:10034000000000FC24241800000000182424FC00F5
:10035000000000007C080400000000485454240001
:10036000000000047F4400000000003C40407C008E
:100370000000001C2040201C0000003C4030403C9D
:1003800000000044281028440000001CA0A07C00AD
:100390000000004464544C44000000083641000052
:1003A000000000007F00000000000041360800004F
:1003B0000000000201010201000000020505020028
:1003C0000000680E2D15131A11241FBECFEFD8E0C0
:1003D000DEBFCDBF13E0A0E0B1E0E8E4F7E402C087
:1003E00005900D92A231B107D9F724E0A2E1B3E064
:1003F00001C01D92A23FB207E1F713E0C8ECD3E0C1
:1004000004C02297FE010E949E23C23CD107C9F777
:100410000E948F130C94391E0C94000082E00E94FD
:100420009E10892B71F46AE070E080E090E00E94F9
:100430007D0F82E00E949E10892B19F481E0809349
:100440005603089583E00E949E10019709F56AE023
:1004500070E080E090E00E947D0F83E00E949E109B
:100460000197B1F480915F03811112C081E0809304
:100470005F0384E00E949E108130910529F49093DF
:1004800072038093710308951092720310927103A6
:100490000895BC0182E893E00E9405116CE071E0D0
:1004A00082E893E00E943A114091000150910101CD
:1004B000609102017091030122E030E082E893E054
:1004C0000E94F71267E171E082E893E00E943A111E
:1004D0004091390350913A0360913B0370913C0382
:1004E00022E030E082E893E00E94F71263E271E0DC
:1004F00082E893E00E943A1140913503509136030F
:10050000609137037091380322E030E082E893E095
:100510000E94F7126BE271E082E893E00E943A11C8
:100520004091310350913203609133037091340351
:1005300022E030E082E893E00E94F7126FE472E07C
:1005400082E893E00C94571161E086E00C94681007
:1005500060E086E00C946810CF93DF9366E371E06F
:1005600083E193E00E94451E44E061E08CE294E068
:100570000E94561763E173E08CE294E00E94E0175A
:100580006091310370913203809133039091340371
:100590000E943F1F7F936F938FE391E09F938F9310
:1005A000C3E1D3E0DF93CF930E944C1E47E062E0AB
:1005B0008CE294E00E945617BE018CE294E00E9407
:1005C000E01762E471E0CE010E94451E43E065E061
:1005D0008CE294E00E945617BE018CE294E00E94E7
:1005E000E017809165031F928F938DE491E09F93B4
:1005F0008F93DF93CF930E944C1E47E066E08CE21E
:1006000094E00E945617BE018CE294E00E94E0172D
:1006100082E00E949E102DB73EB7245F3F4F0FB679
:10062000F8943EBF0FBE2DBF019721F5C0915F0327
:10063000C13001F564E670E080E090E00E947D0F3B
:1006400010925F03C09352038091710390917203E3
:1006500020916503009721F0019729F42F5F01C0D5
:1006600021502093650380916503803118F08FE05D
:1006700080936503DF91CF910895CF92DF92EF923F
:10068000FF920F931F93CF93DF9361E571E083E1B6
:1006900093E00E94451E44E061E08CE294E00E94F9
:1006A000561763E173E08CE294E00E94E017C0907B
:1006B0003903D0903A03E0903B03F0903C0320E0F4
:1006C00030E048EC52E4C701B6010E9426200E94A7
:1006D0003F1FCB0164E670E00E942F239F938F930E
:1006E000C701B6010E943F1F7F936F938AE591E097
:1006F0009F938F93C3E1D3E0DF93CF930E944C1E6F
:1007000046E062E08CE294E00E945617BE018CE263
:1007100094E00E94E01762E671E0CE010E94451E5F
:1007200042E065E08CE294E00E945617BE018CE244
:1007300094E00E94E017809167031F928F9301E776
:1007400011E01F930F93DF93CF930E944C1E40E064
:1007500067E08CE294E00E945617BE018CE294E0C0
:100760000E94E017809166031F928F931F930F934F
:10077000DF93CF930E944C1E4AE067E08CE294E046
:100780000E945617BE018CE294E00E94E0178DB7DC
:100790009EB744960FB6F8949EBF0FBE8DBF809152
:1007A000510381113EC069E771E0CE010E94451EF0
:1007B00041E066E08CE294E00E945617BE018CE2B4
:1007C00094E00E94E01782E00E949E10019709F0D9
:1007D0006BC0C0915F03C13009F066C064E670E091
:1007E00080E090E00E947D0F10925F03C09352035F
:1007F000809171039091720320916703009721F01B
:10080000019729F42F5F01C0215020936703809145
:10081000660390916703891708F046C080936703C9
:1008200043C069E871E083E193E00E94451E41E026
:1008300066E08CE294E00E94561763E173E08CE27C
:1008400094E00E94E01782E00E949E10019761F5FB
:10085000C0915F03C13041F564E670E080E090E054
:100860000E947D0F10925F03C09352038091710329
:100870009091720320916603009721F0019729F46B
:100880002F5F01C021502093660380916603853657
:1008900018F084E680936603809167039091660365
:1008A000891710F080936603DF91CF911F910F910C
:1008B000FF90EF90DF90CF900895CF92DF92EF926C
:1008C000FF920F931F93CF93DF9369E971E083E168
:1008D00093E00E94451E42E061E08CE294E00E94B9
:1008E000561763E173E08CE294E00E94E017C09039
:1008F0003503D0903603E0903703F090380320E0C2
:1009000030E048EC52E4C701B6010E9426200E9464
:100910003F1FCB0164E670E00E942F239F938F93CB
:10092000C701B6010E943F1F7F936F9385EA91E054
:100930009F938F93C3E1D3E0DF93CF930E944C1E2C
:1009400045E062E08CE294E00E945617BE018CE222
:1009500094E00E94E01762E671E0CE010E94451E1D
:1009600042E065E08CE294E00E945617BE018CE202
:1009700094E00E94E017809169031F928F930DEA23
:1009800011E01F930F93DF93CF930E944C1E40E022
:1009900067E08CE294E00E945617BE018CE294E07E
:1009A0000E94E017809168031F928F931F930F930B
:1009B000DF93CF930E944C1E4AE067E08CE294E004
:1009C0000E945617BE018CE294E00E94E0178DB79A
:1009D0009EB744960FB6F8949EBF0FBE8DBF809110
:1009E000510381113EC069E771E0CE010E94451EAE
:1009F00041E066E08CE294E00E945617BE018CE272
:100A000094E00E94E01782E00E949E10019709F096
:100A10006BC0C0915F03C13009F066C064E670E04E
:100A200080E090E00E947D0F10925F03C09352031C
:100A3000809171039091720320916903009721F0D6
:100A4000019729F42F5F01C0215020936903809101
:100A5000680390916903891708F046C08093690381
:100A600043C069E871E083E193E00E94451E41E0E4
:100A700066E08CE294E00E94561763E173E08CE23A
:100A800094E00E94E01782E00E949E10019761F5B9
:100A9000C0915F03C13041F564E670E080E090E012
:100AA0000E947D0F10925F03C093520380917103E7
:100AB0009091720320916803009721F0019729F427
:100AC0002F5F01C021502093680380916803853611
:100AD00018F084E68093680380916903909168031D
:100AE000891710F080936803DF91CF911F910F91C8
:100AF000FF90EF90DF90CF900895CF92DF92EF922A
:100B0000FF92CF93DF9365EB71E083E193E00E9466
:100B1000451E44E061E08CE294E00E94561763E1D8
:100B200073E08CE294E00E94E017C0900001D09046
:100B30000101E0900201F090030120E030E048EC78
:100B400052E4C701B6010E9426200E943F1FCB013C
:100B500064E670E00E942F239F938F93C701B60134
:100B60000E943F1F7F936F938AE591E09F938F933D
:100B7000C3E1D3E0DF93CF930E944C1E46E062E0D6
:100B80008CE294E00E945617BE018CE294E00E9431
:100B9000E01743E065E08CE294E00E94561762E4BF
:100BA00071E08CE294E00E94E01780916A031F924A
:100BB0008F938EEB91E09F938F93DF93CF930E945F
:100BC0004C1E46E066E08CE294E00E945617BE019F
:100BD0008CE294E00E94E01782E00E949E102DB704
:100BE0003EB7225F3F4F0FB6F8943EBF0FBE2DBFFA
:100BF0000197A1F4C0915F03C13081F464E670E015
:100C000080E090E00E947D0F10925F03C09352033A
:100C100080916A03853610F010926A03DF91CF91BC
:100C2000FF90EF90DF90CF900895CF92DF92EF92F8
:100C3000FF9240E060E08CE294E00E94561765EC81
:100C400071E08CE294E00E94E01740E062E08CE208
:100C500094E00E94561766ED71E08CE294E00E94E9
:100C6000E01740E063E08CE294E00E94561766EEE5
:100C700071E08CE294E00E94E01765EF71E083E19F
:100C800093E00E94451E44E066E08CE294E00E94FE
:100C9000561763E173E08CE294E00E94E017C09085
:100CA0000001D0900101E0900201F090030120E0EA
:100CB00030E048EC52E4C701B6010E9426200E94B1
:100CC0003F1FCB0164E670E00E942F239F938F9318
:100CD000C701B6010E943F1F7F936F938FEF91E092
:100CE0009F938F9383E193E09F938F930E944C1E79
:100CF00046E067E08CE294E00E9456178DB79EB7FD
:100D000008960FB6F8949EBF0FBE8DBF63E173E0E7
:100D10008CE294E0FF90EF90DF90CF900C94E0177E
:100D2000CF92DF92EF92FF921F93CF93DF9320E059
:100D300030E040E251E460916B0370916C0380916C
:100D40006D0390916E030E9426200E94441F6B0148
:100D50007C01EB0168E072E083E193E00E94451EB4
:100D600043E062E08CE294E00E94561763E173E096
:100D70008CE294E00E94E01742E065E08CE294E0AF
:100D80000E94561764E172E08CE294E00E94E01742
:100D9000C6016AE070E00E941B239F938F937F93AC
:100DA0006F9381E292E09F938F9383E193E09F930F
:100DB0008F930E944C1E45E066E08CE294E00E9416
:100DC000561763E173E08CE294E00E94E01782E042
:100DD0000E949E102DB73EB7285F3F4F0FB6F89484
:100DE0003EBF0FBE2DBF019701F510915F0311307B
:100DF000E1F464E670E080E090E00E947D0F1092E4
:100E00005F031093520380917103909172030097D6
:100E100021F0019721F4219602C0E6012197C93EF5
:100E200033E0D30710F0C0E0D0E0BE0180E090E0F6
:100E30000E94701F20E030E040E251E40E94D71E83
:100E400060936B0370936C0380936D0390936E03B8
:100E5000DF91CF911F91FF90EF90DF90CF90089599
:100E6000CF93DF93CDB7DEB727970FB6F894DEBFE9
:100E70000FBECDBF109255038CE294E00E94BB17C9
:100E800083E090E090937403809373030E94A40224
:100E900069E272E0CE0101960E946713CE010196CD
:100EA0000E944902CE0101960E94F91243E060E0DF
:100EB0008CE294E00E94561763ED72E08CE294E0BD
:100EC0000E94E01740E062E08CE294E00E94561736
:100ED00066E372E08CE294E00E94E01740E064E098
:100EE0008CE294E00E94561760E472E08CE294E099
:100EF0000E94E0170E944E0F60935B0370935C03A7
:100F000080935D0390935E0327960FB6F894DEBF3F
:100F10000FBECDBFDF91CF9108950F931F93CF9355
:100F2000DF93CDB7DEB727970FB6F894DEBF0FBEBD
:100F3000CDBF8DE294E00E94D7198CE294E00E942C
:100F40002B1784B1816284B985B1816285B98CE245
:100F500094E00E94BB178CE294E00E9477178CE229
:100F600094E00E94471740E855E260E070E082E8B4
:100F700093E00E94AC148DE393E00E948A1560E038
:100F800082E00E942F1042E050E06EE072E080E0CC
:100F90000E948A0E60E083E00E942F1060E084E0EF
:100FA0000E942F1043E050E062E272E081E00E9474
:100FB0008A0E8BE493E00E94F818811107C068EE56
:100FC00073E080E090E00E947D0FF3CF60E085E069
:100FD0000E942F1061E086E00E942F106091500364
:100FE00070E08FE794E00E94171A609150038F3FE2
:100FF00009F090C070E040E08FE794E00E941A1A78
:1010000040916503609150036F5F6093500370E0FF
:101010008FE794E00E941A1A409166036091500392
:101020006F5F6093500370E08FE794E00E941A1A9C
:1010300040916703609150036F5F6093500370E0CD
:101040008FE794E00E941A1A409168036091500360
:101050006F5F6093500370E08FE794E00E941A1A6C
:1010600040916903609150036F5F6093500370E09B
:101070008FE794E00E941A1A40916A03609150032E
:101080006F5F6093500370E08FE794E00E941A1A3C
:1010900020E030E048EC52E460916B0370916C0307
:1010A00080916D0390916E030E9426200E943F1F45
:1010B0000FEF10E0CB01B8010E942F23462F809143
:1010C00050038F5F80935003682F70E08FE794E0A8
:1010D0000E941A1A20E030E048EC52E460916B0361
:1010E00070916C0380916D0390916E030E94262095
:1010F0000E943F1FCB01B8010E942F236091500333
:101100006F5F6093500370E0482F8FE794E00E9478
:101110001A1A5FC082E0860F809350036F5F70E001
:101120008FE794E00E94171A809365036091500343
:1011300081E0860F8093500370E08FE794E00E9477
:10114000171A809366036091500381E0860F8093A5
:10115000500370E08FE794E00E94171A80936703B2
:101160006091500381E0860F8093500370E08FE719
:1011700094E00E94171A809368036091500381E005
:10118000860F8093500370E08FE794E00E94171A57
:10119000809369036091500381E0860F8093500330
:1011A00070E08FE794E00E94171A80936A036091C1
:1011B000500381E0860F8093500370E08FE794E046
:1011C0000E94171A6091500370E08FE794E00E942C
:1011D000171A89E0809365038CE38093660388E2A5
:1011E000809367039EE1909368039FE09093690367
:1011F00080936A038DEC9CECACE4BEE380936B03BC
:1012000090936C03A0936D03B0936E030E944E0FF6
:1012100060935B0370935C0380935D0390935E0324
:101220000E944E0F609357037093580380935903A5
:1012300090935A03109274031092730310927003E8
:1012400010926F0368E472E0CE0101960E9467136A
:10125000CE0101960E944902CE0101960E94F91228
:1012600027960FB6F894DEBF0FBECDBFDF91CF91AA
:101270001F910F9108958F929F92AF92BF92CF923C
:10128000DF92EF92FF920F931F93CF93DF93CDB72F
:10129000DEB727970FB6F894DEBF0FBECDBF0E9412
:1012A0004E0F00915703109158032091590330912C
:1012B0005A03601B710B820B930B613C7742894090
:1012C0009105C0F00E944E0F60935703709358032E
:1012D0008093590390935A0362E572E0CE01019620
:1012E0000E946713CE0101960E944902CE01019629
:1012F0000E94F912809173039091740381309105DB
:1013000009F42AC21CF4892B49F0CFC4823091051C
:1013100009F4DDC2039709F4F4C2C7C40E944E0F5A
:1013200000915B0310915C0320915D0330915E039B
:10133000601B710B820B930B613177428105910524
:1013400008F4FDC00E944E0F60935B0370935C0332
:1013500080935D0390935E038DE393E00E94C21639
:101360006093390370933A0380933B0390933C035B
:1013700060E08DE393E00E9448166093350370931C
:10138000360380933703909338038FE00E94E90F70
:1013900067E070E00E942F23882777FD8095982FC3
:1013A0000E94721F609300017093010180930201FB
:1013B000909303018BE493E00E943D19BC0180E00F
:1013C00090E00E94701F20E030E048EC52E40E9460
:1013D000D71E20E030E040E05FE30E946F1E6B010B
:1013E0007C016093310370933203809333039093B5
:1013F000340320E030E048EC52E460910001709149
:10140000010180910201909103010E94222018168F
:1014100064F480E090E0A8ECB2E480930001909343
:101420000101A0930201B093030160916A0370E08F
:1014300080E090E00E94721F9B01AC01609100016E
:101440007091010180910201909103010E94D31ECD
:1014500087FF03C081E0809355038090390390900B
:101460003A03A0903B03B0903C036091670370E0A7
:1014700080E090E00E94721F9B01AC01C501B401A5
:101480000E94D31E87FD0FC06091660370E080E06C
:1014900090E00E94721F9B01AC01C501B4010E9443
:1014A000222018161CF481E090E028C080903503BB
:1014B00090903603A0903703B09038036091680392
:1014C00070E080E090E00E94721F9B01AC01C501BA
:1014D000B4010E94222018167CF06091690370E02C
:1014E00080E090E00E94721F9B01AC01C501B40135
:1014F0000E94D31E87FF07C082E090E090937003A4
:1015000080936F031CC06091650370E080E090E001
:101510000E94721F9B01AC01C701B6010E942220EC
:1015200018161CF483E090E0E9CF80916F0390914E
:101530007003049721F01092700310926F03809152
:101540006F0390917003892B09F0F0C080915F03C5
:10155000813041F564E670E080E090E00E947D0F0C
:1015600010925F03809171039091720320910401A6
:10157000009721F0019729F42F5F01C0215020939B
:10158000040180910401863014F0109204018091CE
:10159000040187FF03C085E0809304018CE294E09E
:1015A0000E94BB1780910401823099F03CF488239B
:1015B00069F08130B1F40E943D0313C0843079F0AA
:1015C0005CF0853071F40E9490060BC00E947D058E
:1015D00008C00E945D0405C00E94AC0202C00E94C7
:1015E000150680915203813009F089C01092520390
:1015F000409165038093500361E070E08FE794E0D1
:101600000E941A1A40916603609150036F5F6093C5
:10161000500370E08FE794E00E941A1A409167032C
:10162000609150036F5F6093500370E08FE794E028
:101630000E941A1A40916803609150036F5F609393
:10164000500370E08FE794E00E941A1A40916903FA
:10165000609150036F5F6093500370E08FE794E0F8
:101660000E941A1A40916A03609150036F5F609361
:10167000500370E08FE794E00E941A1A20E030E0F7
:1016800048EC52E460916B0370916C0380916D03A0
:1016900090916E030E9426200E943F1F0FEF10E0E2
:1016A000CB01B8010E942F23462F809150038F5FFA
:1016B00080935003682F70E08FE794E00E941A1A1D
:1016C00020E030E048EC52E460916B0370916C03D1
:1016D00080916D0390916E030E9426200E943F1F0F
:1016E000CB01B8010E942F23609150036F5F60937C
:1016F000500370E0482F8FE794E00E941A1A8091FF
:101700005603813009F580910401843011F40E9460
:10171000300780915103813019F41092510303C0B6
:1017200081E080935103109256030EC081E090E057
:1017300090937403809373038CE294E00E94BB1730
:101740008CE294E00E947A1780915503813009F071
:10175000ACC20E943007A9C244E062E08CE294E08F
:101760000E94561765E672E08CE294E00E94E01752
:1017700080916F03909170038230910589F11CF480
:10178000019749F086C08330910509F452C004974F
:1017900009F46DC07EC06091670370E080E090E066
:1017A0000E94721F9B01AC016091390370913A0352
:1017B00080913B0390913C030E94D31E42E065E080
:1017C00087FF07C08CE294E00E9456176EE672E035
:1017D00024C08CE294E00E9456176CE772E01DC0B2
:1017E0006091690370E080E090E00E94721F9B01AD
:1017F000AC0160913503709136038091370390916D
:1018000038030E94D31E43E065E087FF0BC08CE2E3
:1018100094E00E9456176AE872E08CE294E00E941D
:10182000E01737C08CE294E00E94561764E972E03A
:10183000F4CF6091650370E080E090E00E94721F39
:101840009B01AC01609135037091360380913703A1
:10185000909138030E9422201816DCF444E065E0E1
:101860008CE294E00E9456176EE972E0D6CF43E016
:1018700065E08CE294E00E94561768EA72E08CE220
:1018800094E00E94E01780915603813011F4109289
:10189000560368EE73E080E090E00E947D0F1092A6
:1018A00074031092730380915603813009F0FDC1D7
:1018B0001092700310926F03109256038CE294E022
:1018C0000E94BB178CE294E00E9477170FC08091B2
:1018D0005603813009F0E9C11092560383E090E08D
:1018E00090937403809373030E94A4020E944E0F8E
:1018F00060935B0370935C0380935D0390935E033E
:10190000D4C1109254038CE294E00E94771785E0D2
:101910000E949E100197B1F485E00E949E100197ED
:10192000B9F480916403811113C081E08093640352
:10193000809160039091610301969093610380937D
:10194000600306C080916403813011F41092640337
:101950000E944E0F00915B0310915C0320915D0388
:1019600030915E03601B710B820B930B693E7340D9
:101970008105910508F42EC1209160033091610327
:101980004CE3429FC001439F900D112469E470E035
:101990000E941B23162F072F60936203709363032B
:1019A000B90180E090E00E94701F20E030E042E941
:1019B00052E40E94D71E20E030E040E752E40E944B
:1019C000D71E6B017C012AE037ED43EA5BE30E94FE
:1019D000D31E87FF19C080911203833024F48F5FD8
:1019E000809312030EC01092120384E090E0909353
:1019F000700380936F0381E08093540383E08093AE
:101A00000401A701960112C01092120310927003F4
:101A100010926F03109254032AE037ED43EA5BE320
:101A2000C701B6010E946F1E9B01AC0160914C037F
:101A300070914D0380914E0390914F030E946F1E51
:101A400060934C0370934D0380934E0390934F0328
:101A500010926103109260030F931F9382EB92E048
:101A60009F938F9303E113E01F930F930E944C1EEB
:101A70004AE062E08CE294E00E945617B8018CE2E2
:101A800094E00E94E017C0904C03D0904D03E0908A
:101A90004E03F0904F0320E030E048EC52E4C701E1
:101AA000B6010E9426200E943F1FCB0164E670E031
:101AB0000E942F230F900F900F900F900F900F9078
:101AC0008A3091055CF49F938F93C701B6010E9401
:101AD0003F1F7F936F938AEB92E00AC09F938F938F
:101AE000C701B6010E943F1F7F936F9384EC92E081
:101AF0009F938F931F930F930E944C1E0FB6F894E1
:101B0000DEBF0FBECDBF48E064E08CE294E00E94EF
:101B1000561763E173E08CE294E00E94E017C090F6
:101B20000001D0900101E0900201F090030120E05B
:101B300030E048EC52E4C701B6010E9426200E9422
:101B40003F1FCB0164E670E00E942F239F938F9389
:101B5000C701B6010E943F1F7F936F938AE591E012
:101B60009F938F9383E193E09F938F930E944C1EEA
:101B700046E066E08CE294E00E94561763E173E071
:101B80008CE294E00E94E0170FB6F894DEBF0FBE1F
:101B9000CDBF20916B0330916C0340916D03509148
:101BA0006E0360914C0370914D0380914E039091B0
:101BB0004F030E94222087FD03C081E080935303DE
:101BC0000E944E0F60935B0370935C0380935D03F0
:101BD00090935E0380915603813021F41092560356
:101BE00080935303809153038130A9F510924C03E5
:101BF00010924D0310924E0310924F0310927403F3
:101C0000109273030E94A8028CE294E00E94BB171A
:101C100042E064E08CE294E00E9456176EEC72E0C1
:101C20008CE294E00E94E017109253031092560346
:101C300083E08093040160E177E280E090E00E941D
:101C40007D0F0E944E0F60935B0370935C03809343
:101C50005D0390935E0380915403813031F51092BF
:101C60004C0310924D0310924E0310924F031092AA
:101C7000540381E090E090937403809373030E9477
:101C80004E0F60935B0370935C0380935D039093AE
:101C90005E030E94A8028CE294E00E94BB178CE2D3
:101CA00094E00E947A171092560327960FB6F89484
:101CB000DEBF0FBECDBFDF91CF911F910F91FF907F
:101CC000EF90DF90CF90BF90AF909F908F9008954E
:101CD00089E0809365038CE3809366031092670329
:101CE0008EE1809368031092690310926A038DEC71
:101CF0009CECACE4BEE380936B0390936C03A093E5
:101D00006D03B0936E0326E04BE06EE08DE393E04D
:101D10000C9483158230E8F4E82FF0E0EE0FFF1FFB
:101D2000EB58FC4F71836083813041F080916900F2
:101D30008C7F842B80936900E89A089580916900D4
:101D4000440F551F440F551F837F842B80936900D8
:101D5000E99A08951F920F920FB60F9211242F93B4
:101D60003F934F935F936F937F938F939F93AF9323
:101D7000BF93EF93FF938091750390917603892B26
:101D800029F0E0917503F09176030995FF91EF91A9
:101D9000BF91AF919F918F917F916F915F914F9183
:101DA0003F912F910F900FBE0F901F9018951F928B
:101DB0000F920FB60F9211242F933F934F935F937F
:101DC0006F937F938F939F93AF93BF93EF93FF9303
:101DD0008091770390917803892B29F0E091770324
:101DE000F09178030995FF91EF91BF91AF919F9189
:101DF0008F917F916F915F914F913F912F910F90B4
:101E00000FBE0F901F9018951F920F920FB60F9252
:101E100011242F933F938F939F93AF93BF93809100
:101E20007A0390917B03A0917C03B0917D03309164
:101E3000790323E0230F2D3720F40196A11DB11D56
:101E400005C026E8230F0296A11DB11D209379033A
:101E500080937A0390937B03A0937C03B0937D03DC
:101E600080917E0390917F03A0918003B0918103C4
:101E70000196A11DB11D80937E0390937F03A093D3
:101E80008003B0938103BF91AF919F918F913F9158
:101E90002F910F900FBE0F901F9018952FB7F894A9
:101EA00060917A0370917B0380917C0390917D0314
:101EB0002FBF08953FB7F89480917E0390917F03E0
:101EC000A0918003B091810326B5A89B05C02F3F48
:101ED00019F00196A11DB11D3FBF6627782F892FEC
:101EE0009A2F620F711D811D911D42E0660F771FB1
:101EF000881F991F4A95D1F70895CF92DF92EF92EC
:101F0000FF92CF93DF936B017C010E945A0FEB018C
:101F1000C114D104E104F10479F00E945A0F6C1B42
:101F20007D0B683E7340A0F381E0C81AD108E10838
:101F3000F108C851DC4FECCFDF91CF91FF90EF90CB
:101F4000DF90CF9008950197009739F0880F991F7F
:101F5000880F991F02970197F1F70895789484B537
:101F6000826084BD84B5816084BD85B5826085BD95
:101F700085B5816085BDEEE6F0E08081816080837B
:101F8000E1E8F0E01082808182608083808181605E
:101F90008083E0E8F0E0808181608083E1EBF0E025
:101FA000808184608083E0EBF0E0808181608083C9
:101FB000EAE7F0E0808184608083808182608083B2
:101FC0008081816080838081806880831092C100DD
:101FD00008958E3008F08E5087702091050190E4AE
:101FE000299F90011124822B80937C0080917A009C
:101FF000806480937A0080917A0086FDFCCF809186
:1020000078002091790090E0922B0895833081F040
:1020100028F4813099F08230A1F008958630A9F03B
:102020008730B9F08430D1F4809180008F7D03C077
:10203000809180008F7780938000089584B58F779A
:1020400002C084B58F7D84BD08958091B0008F77E4
:1020500003C08091B0008F7D8093B0000895CF932E
:10206000DF9390E0FC01E458FF4F2491FC01E0571E
:10207000FF4F8491882349F190E0880F991FFC015C
:10208000E854FF4FA591B49182559F4FFC01C59133
:10209000D4919FB7611108C0F8948C912095822348
:1020A0008C93888182230AC0623051F4F8948C9119
:1020B000322F309583238C938881822B888304C0B0
:1020C000F8948C91822B8C939FBFDF91CF910895D0
:1020D0000F931F93CF93DF931F92CDB7DEB7282FB7
:1020E00030E0F901E859FF4F8491F901E458FF4FBE
:1020F0001491F901E057FF4F04910023C9F08823A0
:1021000021F069830E9406106981E02FF0E0EE0F54
:10211000FF1FE255FF4FA591B4919FB7F8948C91A2
:10212000611103C01095812301C0812B8C939FBF47
:102130000F90DF91CF911F910F910895CF93DF936F
:10214000282F30E0F901E859FF4F8491F901E45854
:10215000FF4FD491F901E057FF4FC491CC2391F088
:1021600081110E940610EC2FF0E0EE0FFF1FEC55DE
:10217000FF4FA591B4912C912D2381E090E021F4A3
:1021800080E002C080E090E0DF91CF910895CF928F
:10219000DF92EF92FF920F931F93CF93DF936C0127
:1021A0007A01EB01E60EF71E00E010E0CE15DF0528
:1021B00061F06991D601ED91FC910190F081E02DE3
:1021C000C6010995080F191FF1CFC801DF91CF9102
:1021D0001F910F91FF90EF90DF90CF9008956115C0
:1021E000710581F0DB010D900020E9F7AD01415050
:1021F0005109461B570BDC01ED91FC910280F381E4
:10220000E02D099480E090E00895AF92BF92CF92C4
:10221000DF92EF92FF920F931F93CF93DF937C0196
:102220006B01C0E0D0E000E010E0D60114968D9183
:102230009C911597C817D90788F4D701ED91FC91A7
:10224000A080B180BE01C6010E947E13682FC70125
:10225000F5010995080F191F2196E7CFC801DF91F5
:10226000CF911F910F91FF90EF90DF90CF90BF9093
:10227000AF9008950C94EF10DC01ED91FC9101906A
:10228000F081E02D09940F931F93CF93DF93EC011E
:102290006DE00E943C118C016AE0CE010E943C116D
:1022A000800F911FDF91CF911F910F9108950F9390
:1022B0001F93CF93DF93EC010E94EF108C01CE01AE
:1022C0000E944311800F911FDF91CF911F910F91B9
:1022D00008958F929F92AF92BF92CF92DF92EF922A
:1022E000FF920F931F93CF93DF93CDB7DEB7A197E4
:1022F0000FB6F894DEBF0FBECDBF7C01C42EE52F14
:10230000CB01D22E19A221E02D1510F02AE0D22EF9
:102310008E010F5D1F4F8D2C912CA12CB12C6C2D9B
:102320007E2FA50194010E9443238C2DD29E8019FB
:102330001124015011098A3014F4805D01C0895CB8
:10234000F8018083211531054105510521F0C22E88
:10235000E32FCA01E4CFB801C7010E94EF10A19694
:102360000FB6F894DEBF0FBECDBFDF91CF911F91A6
:102370000F91FF90EF90DF90CF90BF90AF909F9024
:102380008F900895CF92DF92EF92FF920F931F9359
:10239000CF93DF93EC016A017B012115310579F4BC
:1023A000E881F9810190F081E02D642FDF91CF91D8
:1023B0001F910F91FF90EF90DF90CF9009942A30FA
:1023C0003105E9F477FF1AC06DE20E943C118C01DF
:1023D00044275527BA014C195D096E097F092AE087
:1023E000CE010E946911800F911FDF91CF911F9143
:1023F0000F91FF90EF90DF90CF9008952AE0B70102
:10240000A601CE01DF91CF911F910F91FF90EF9028
:10241000DF90CF900C9469114F925F926F927F92F0
:102420008F929F92AF92BF92CF92DF92EF92FF92E4
:102430000F931F93CF93DF93EC016A017B01B22EC0
:102440009A01AB01C701B6010E948920882319F0C7
:102450006CED72E027C026013701E89477F82FEF82
:102460003FEF4FE75FE7C301B2010E94892081116E
:102470000DC02FEF3FEF4FE75FE7C301B2010E94AE
:10248000D31E18161CF460EE72E00CC02FEF3FEF65
:102490004FE75FE4C701B6010E9422201816ACF492
:1024A00064EE72E0CE01DF91CF911F910F91FF900A
:1024B000EF90DF90CF90BF90AF909F908F907F90E4
:1024C0006F905F904F900C94EF102FEF3FEF4FE71E
:1024D0005FECC701B6010E94D31E87FDE1CF20E06B
:1024E00030E0A901C701B6010E94D31E87FF0AC0D0
:1024F0006DE2CE010E943C118C01F7FAF094F7F8DE
:10250000F09402C000E010E0A12C60E070E080E0F8
:102510009FE3AB1441F020E030E040E251E40E9440
:10252000D71EA394F6CF9B01AC01C701B6010E9450
:102530006F1E6B017C010E94441F2B013C010E9415
:10254000701F9B01AC01C701B6010E946E1E6B019A
:102550007C012AE0B301A201CE010E946911080F9B
:10256000191FBB2039F063E672E0CE010E94EF1024
:10257000080F191F7B2C772041F120E030E040E26A
:1025800051E4C701B6010E9426206B017C010E9424
:102590003F1F4B01AA2497FCA094BA2C2AE030E0FC
:1025A000B501A401CE010E94C211080F191FC50177
:1025B000B4010E94721F9B01AC01C701B6010E94C9
:1025C0006E1E6B017C017A94D6CFC801DF91CF914A
:1025D0001F910F91FF90EF90DF90CF90BF90AF9041
:1025E0009F908F907F906F905F904F9008950C9484
:1025F0000C12FC01808191810C949F1BCF93DF937F
:10260000EC0188819981009711F00E949F1B19822B
:1026100018821D821C821B821A82DF91CF9108953D
:102620000F931F93CF93DF93EC018B016F5F7F4F6D
:10263000888199810E941E1A009731F099838883BE
:102640001B830A8381E001C080E0DF91CF911F915D
:102650000F910895CF93DF93EC0188819981892BA5
:1026600029F08A819B818617970760F4CE010E942A
:102670001013882341F08C819D81892B19F4E88106
:10268000F981108281E0DF91CF910895EF92FF925E
:102690000F931F93CF93DF93EC017B018A01BA0163
:1026A0000E942A13811104C0CE010E94FE1207C0AD
:1026B0001D830C83B701888199810E94451ECE013C
:1026C000DF91CF911F910F91FF90EF900895FC0142
:1026D0001182108213821282158214821682611571
:1026E000710559F0FB0101900020E9F7AF0141505D
:1026F0005109461B570B0C9446130895FC01248185
:1027000035816217730748F480819181009729F021
:10271000FC01E60FF71F8081089580E008950E9474
:10272000AE0F0E948D07C8E6D4E10E943B092097B6
:10273000E1F30E946814F9CFFC0124853585F90185
:10274000E05CFF4F80819181329620813181821B34
:10275000930B8F7399270895FC0184859585FC015F
:10276000E05CFF4F408151813296208131814217D8
:10277000530741F00190F081E02DE80FF91F8081AF
:1027800090E008958FEF9FEF0895FC018485958573
:10279000FC01E05CFF4F4081518132962081318104
:1027A0004217530779F0A081B181A80FB91F8C910E
:1027B000208131812F5F3F4F2F7333273183208357
:1027C00090E008958FEF9FEF0895FC0181A1882389
:1027D00029F0A489B5898C9186FFFBCF11A20895B9
:1027E000CF93DF93FC0126853785D901A05CBF4FCD
:1027F0008D919C91119701968F739927E901CE5B7A
:10280000DF4F4881598184179507D9F30D90BC910A
:10281000A02DA20FB31F6C93A685B785A05CBF4FF8
:1028200011969C938E93A689B7892C9181E090E0B4
:10283000078C02C0880F991F0A94E2F7282B2C936B
:1028400081E081A30488F589E02D80818064808304
:1028500081E090E0DF91CF91089508951F920F924B
:102860000FB60F9211242F933F934F938F939F9303
:10287000EF93FF938091C00082FD1CC04091C60081
:10288000809128049091290401968F7399272091B3
:102890002A0430912B048217930771F0E0912804E9
:1028A000F0912904E851FC4F4083909329048093D0
:1028B000280402C08091C600FF91EF919F918F91F3
:1028C0004F913F912F910F900FBE0F901F90189531
:1028D00082E893E00E949C13892B11F00C942D1434
:1028E00008951F920F920FB60F9211242F933F93CA
:1028F0008F939F93EF93FF932091E4033091E5032F
:102900008091E6039091E7032817390731F480910D
:10291000C1008F7D8093C10014C0E091E603F09167
:10292000E703EC55FC4F20818091E6039091E7038B
:1029300001968F7399279093E7038093E603209382
:10294000C600FF91EF919F918F913F912F910F9032
:102950000FBE0F901F901895CF92DF92EF92FF92CB
:10296000CF93DF93EC016A017B01411581EE58079B
:1029700061057105F9F0EC89FD8981E090E008A01E
:1029800002C0880F991F0A94E2F7808360E079E023
:102990008DE390E0A70196010E9443232150310965
:1029A000410951095695479537952795211580E19D
:1029B000380798F0EC89FD89108260E874E88EE1B0
:1029C00090E0A70196010E9443232150310941095B
:1029D00051095695479537952795E889F9893083A8
:1029E000EA89FB89208319A2EE89FF89408181E071
:1029F00090E09C010C8C02C0220F331F0A94E2F776
:102A0000422B4083EE89FF8940819C010D8C02C0DE
:102A1000220F331F0A94E2F7422B4083EE89FF898D
:102A200040819C010E8C02C0220F331F0A94E2F7F2
:102A3000422B4083EE89FF8920810F8C02C0880FD2
:102A4000991F0A94E2F7809582238083DF91CF91CA
:102A5000FF90EF90DF90CF90089510928503109231
:102A6000840388EE93E0A0E0B0E080938603909327
:102A70008703A0938803B09389038CEE92E0909330
:102A800083038093820388EE93E090938F03809377
:102A90008E0384EA93E0909391038093900385ECF6
:102AA00090E0909393038093920384EC90E0909352
:102AB00095038093940380EC90E090939703809328
:102AC000960381EC90E0909399038093980382ECB5
:102AD00090E090939B0380939A0386EC90E0909310
:102AE0009D0380939C0384E080939E0383E0809306
:102AF0009F0387E08093A00385E08093A10381E09A
:102B00008093A2030895FC0166834783208781E0B8
:102B100085870895CF93DF93EC0160E08E810E945A
:102B20002F1061E08E810E94681019861A861B861C
:102B30001C86DF91CF910895DF92EF92FF920F9361
:102B40001F93CF93DF93EC0161E08E810E946810A8
:102B50006AEF70E080E090E00E947D0F0E944E0FCF
:102B600009851A852B853C856017710782079307B5
:102B700020F419861A861B861C862D85211111C00A
:102B800009851A852B853C85DC01CB01801B910BC7
:102B9000A20BB30B803D9740A105B10510F481E075
:102BA0006FC01D860E944E0F69877A878B879C872E
:102BB0001C821B821A821982188261E08E810E9417
:102BC0002F1060E08E810E94681064E170E080E068
:102BD00090E00E947D0F61E08E810E94681088E283
:102BE00090E00E94A30F60E08E810E942F10F12CD4
:102BF000D12C81E0E12C082F10E08E810E949E10E4
:102C00008017910741F4E39481E090E00E94A30FC4
:102C10008FEFE812F2CF8E810E949E109FEFE9168F
:102C2000C9F023E02F1590F4F0FC10C09D2D96956F
:102C300096959695FE01E90FF11D9081990F90836D
:102C400028852E1510F491609083D394F39495E524
:102C5000F912D0CF27E22D1590F42C8130E0488175
:102C6000898190E0840F911D4A81840F911D4B81D1
:102C7000840F911D99272817390709F490CF80E018
:102C8000DF91CF911F910F91FF90EF90DF9008950A
:102C9000CF92DF92EF92FF920F931F93CF93DF9328
:102CA000EC01162F0E949C15882309F450C08F81D7
:102CB0008B3031F008F44BC08551823078F047C03A
:102CC0006A8170E080E090E00E94701F112309F497
:102CD00049C020E030E040E151E42AC00A81602F81
:102CE0006F7770E080E090E00E94721F20E030E09B
:102CF00040E853E40E9426206B017C016B8170E068
:102D000080E090E00E94721F9B01AC01C701B601F8
:102D10000E946F1E20E030E040E251E40E94D71E86
:102D200007FD9058112309F120E030E040E151E423
:102D30000E94262020E030E040EA50E40E94D71EA6
:102D400020E030E040E052E40E946F1E0EC068EFC9
:102D500072E082E893E00E943A1120E030E040E027
:102D600050E005C09B01AC0102C09B01AC01B90160
:102D7000CA01DF91CF911F910F91FF90EF90DF90EB
:102D8000CF900895CF92DF92EF92FF92CF93DF938F
:102D9000EC010E949C15882379F18F818B3029F1F9
:102DA00058F18551823040F5688170E080E090E014
:102DB0000E94701F20E030E040E853E40E9426208B
:102DC0006B017C01698170E080E090E00E94721FDD
:102DD0009B01AC01C701B6010E946F1E20E030E0EC
:102DE00040E251E40E94D71E10C0688170E080E08C
:102DF00090E00E94701F09C068EF72E082E893E0E3
:102E00000E943A1160E070E0CB01DF91CF91FF901A
:102E1000EF90DF90CF900895DC01ED91FC9101904F
:102E2000F081E02D0994CF93C62F6CE370E08DE222
:102E300094E00E94FB1960E870E08DE294E00E944B
:102E40000C176C2F8DE294E00E9498198DE294E0AB
:102E5000CF910C94101ACF93DF93EC016EEA0E948D
:102E6000131765E070E080E090E00E947D0F6FEA4C
:102E7000CE010E94131765E070E080E090E00E94B0
:102E80007D0F66EACE01DF91CF910C941317CF939B
:102E9000DF93EC0181E0888360E2CE010E9413178A
:102EA00062E0CE01DF91CF910C9413171F93CF9363
:102EB000DF93EC01142F60550E941317612F660FEA
:102EC000660F660F6870CE010E94131788E0189F86
:102ED000B001112484E0759567958A95E1F76F70CC
:102EE000605FCE01DF91CF911F910C94131766EABA
:102EF0000C94131767EA0C941317CF93C62F6CE347
:102F000070E08DE294E00E94FB1960E470E08DE2D5
:102F100094E00E940C176C2F8DE294E00E949819A7
:102F20008DE294E0CF910C94101AEF92FF920F93E0
:102F30001F93CF93DF937C0180EE860F803608F0DD
:102F400060E288E0689F80011124C0E0D0E00E5369
:102F50001040F801EC0FFD1F6491C7010E947D171E
:102F60002196C830D105A9F7DF91CF911F910F911C
:102F7000FF90EF9008950F931F93CF93DF93EC0191
:102F80006EEA0E94131710E040E0612FCE010E940C
:102F9000561700E160E2CE010E9495170150D1F76B
:102FA0001F5F183089F76FEACE010E94131740E0C7
:102FB00060E0CE01DF91CF911F910F910C945617D5
:102FC000FF920F931F93CF93DF93EC018B01F12CB2
:102FD000F801EF0DF11D6081662329F0CE010E94FA
:102FE0009517F394F5CFDF91CF911F910F91FF903B
:102FF00008951F93CF93DF931F92CDB7DEB7162F9F
:1030000060E670E08DE294E049830E94FB19612F35
:103010008DE294E00E9498194981642F8DE294E03A
:103020000E9498198DE294E00F90DF91CF911F914B
:103030000C94101ACF93DF93EC0140E068E00E94FB
:10304000F91740E069E0CE010E94F91740E064E022
:10305000CE010E94F91740E065E0CE010E94F91709
:1030600040E066E0CE010E94F91740E063E0CE0147
:103070000E94F9174FEF61E2CE010E94F91741E07B
:1030800068E1CE010E94F9176AE070E080E090E00C
:103090000E947D0F47E167E0CE010E94F9176AE0C8
:1030A00070E080E090E0DF91CF910C947D0FCF93A2
:1030B000C62F60E670E08DE294E00E94FB196C2F51
:1030C0008DE294E00E9498198DE294E00E94101A1B
:1030D00041E050E060E670E08DE294E00E94EE197D
:1030E0008DE294E00E944819CF9108951F93CF93E9
:1030F000DF93EC01162F67E10E94F917412F406A18
:1031000068E1CE010E94F9176EE2CE01DF91CF9106
:103110001F910C945718CF93DF93EC0149E263E1C0
:103120000E94F91749E864E1CE010E94F91742E0D4
:1031300065E1CE010E94F91740E066E1CE010E94F0
:10314000F91741EB61E0CE010E94761843E067E099
:10315000CE010E94761843E06FE0CE010E94F9177D
:1031600041E062E0CE010E94761840E06BE0CE01C3
:103170000E94761847E06AE0CE010E94761844E289
:103180006CE0CE010E94761840E061E1CE010E9421
:10319000761847E060E1CE010E94761840E262E1D5
:1031A000CE010E94761840E06EE1CE010E947618B2
:1031B00047E06DE1CE010E94761840E26FE1CE015A
:1031C0000E94761841E063E0CE010E94F91741E0C9
:1031D00064E0CE010E94F9174FEF68E0CE010E9433
:1031E000F9174FE068E1CE01DF91CF910C94F91708
:1031F000CF93DF93EC018DE294E00E94D71960E059
:10320000CE010E945718853441F4CE010E941A184D
:10321000CE010E948B1881E001C080E0DF91CF9148
:103220000895CF93DF93C62F60E670E08DE294E0BF
:103230000E94FB196C2F8DE294E00E9498198DE298
:1032400094E00E94101A42E050E060E670E08DE2E7
:1032500094E00E94EE198DE294E00E944819EC017E
:103260008DE294E00E94481920E030E0382FC90137
:103270008C2B9D2BDF91CF9108956CE20C9411194A
:1032800080915D0490E020915E04821B9109089575
:1032900020915E0480915D04281750F4E22FF0E045
:1032A000E15AFB4F808190E02F5F20935E040895E8
:1032B0008FEF9FEF0895E0915E0480915D04E81721
:1032C00030F4F0E0E15AFB4F808190E008958FEFF9
:1032D0009FEF08950895CF92DF92EF92FF920F93A0
:1032E0001F93CF93DF937C01CB018A012091390496
:1032F000222389F0EB016B01C40ED51ECC15DD0530
:1033000069F06991D701ED91FC910190F081E02D78
:10331000C7010995F3CF642F0E94E31CC801DF9118
:10332000CF911F910F91FF90EF90DF90CF90089574
:10333000CF93DF931F92CDB7DEB769832091390415
:103340002223D1F020913A04203240F021E030E0F5
:10335000FC013383228380E090E015C080913B0420
:10336000E82FF0E0E45CFB4F998190838F5F8093BE
:103370003B0480933A0405C061E0CE0101960E94AF
:10338000E31C81E090E00F90DF91CF910895FC0164
:103390001382128248EE53E060E070E0448355836C
:1033A0006683778386E093E091838083089510920B
:1033B0005E0410925D0410923B0410923A040C9447
:1033C0002E1C862F413208F040E26FE574E00E9427
:1033D0004C1C10925E0480935D04089521E00C94CF
:1033E000E11981E08093390460935C0410923B04FE
:1033F00010923A0408950C94F1190F93062F21E0CE
:1034000040913A046CE374E080915C040E94901C4B
:1034100010923B0410923A04109239040F910895CF
:1034200061E00C94FD198DE294E00C94C719CB0176
:103430000C945F22CB01642F0C9467226F927F92D1
:103440008F929F92AF92BF92CF92DF92EF92FF92B4
:103450000F931F93CF93DF93EC01CB01209781F45F
:10346000DF91CF911F910F91FF90EF90DF90CF9060
:10347000BF90AF909F908F907F906F900C94071BA0
:10348000FE01E60FF71F9E0122503109E217F307F4
:1034900008F4ACC0D9010D911C91119706171707BC
:1034A000B8F00530110508F49FC0A8014450510937
:1034B0004617570708F498C002501109061B170B4E
:1034C000019311936D937C93CF010E949F1B8CC03D
:1034D0005B01A01AB10A4E01800E911EA091F0046A
:1034E000B091F104612C712C60E070E0109709F448
:1034F00049C0A815B905C9F5ED90FC901197670171
:1035000042E0C40ED11CCA14DB0478F147018A18CA
:103510009B08640142E0C40ED11C1296BC90129725
:103520001396AC91B5E0CB16D10440F0B282A383E0
:1035300091828082D9018D939C9309C00E5F1F4FA9
:103540000E0D1F1DF90111830083EB2DFA2F61155C
:10355000710531F0DB011396FC93EE93129744C092
:10356000F093F104E093F0043FC06D917C911197CA
:103570006616770608F43B01BD0112960D90BC91CA
:10358000A02DB4CF6091EE047091EF046815790519
:10359000E9F468167906D0F44091060150910701CC
:1035A0004115510541F44DB75EB760910A01709124
:1035B0000B01461B570BE417F507C0F4F093EF041B
:1035C000E093EE04F901918380830EC00E94071BF3
:1035D0007C01009759F0A801BE010E943C1ECE015B
:1035E0000E949F1BC70104C0CE0102C080E090E092
:1035F000DF91CF911F910F91FF90EF90DF90CF90CF
:10360000BF90AF909F908F907F906F900895CF93D1
:10361000DF938230910510F482E090E0E091F004B5
:10362000F091F10420E030E0A0E0B0E0309739F113
:103630004081518148175907B8F04817590771F46C
:1036400082819381109729F013969C938E93129701
:103650002CC09093F1048093F00427C0211531050C
:1036600031F04217530718F0A901DB0101C0EF0147
:103670009A01BD01DF010280F381E02DD7CF211532
:103680003105F9F0281B390B2430310580F48A818B
:103690009B816115710521F0FB019383828304C036
:1036A0009093F1048093F004FE01329644C0FE0131
:1036B000E20FF31F819391932250310939832883BC
:1036C0003AC02091EE043091EF04232B41F4209175
:1036D0000801309109013093EF042093EE0420910A
:1036E0000601309107012115310541F42DB73EB790
:1036F00040910A0150910B01241B350BE091EE041F
:10370000F091EF04E217F307A0F42E1B3F0B2817EC
:10371000390778F0AC014E5F5F4F2417350748F04A
:103720004E0F5F1F5093EF044093EE0481939193EB
:1037300002C0E0E0F0E0CF01DF91CF910895CF9398
:10374000DF93009709F487C0FC013297138212823D
:10375000C091F004D091F104209781F4208131814F
:10376000280F391F8091EE049091EF048217930780
:1037700079F5F093EF04E093EE046DC0DE0120E0F4
:1037800030E0AE17BF0750F412964D915C9113973D
:103790009D014115510509F1DA01F3CFB383A283ED
:1037A00040815181840F951F8A179B0771F48D9179
:1037B0009C911197840F951F029691838083129696
:1037C0008D919C911397938382832115310529F460
:1037D000F093F104E093F0043EC0D9011396FC93FA
:1037E000EE9312974D915D91A40FB51FEA17FB0759
:1037F00079F480819181840F951F0296D9011196E9
:103800009C938E938281938113969C938E931297AF
:10381000E0E0F0E08A819B81009719F0FE01EC0165
:10382000F9CFCE01029628813981820F931F209112
:10383000EE043091EF042817390769F4309729F422
:103840001092F1041092F00402C013821282D093FD
:10385000EF04C093EE04DF91CF9108951092ED0430
:1038600081E08093EB041092EA0461E082E10E941F
:10387000681061E083E10E946810E9EBF0E080816C
:103880008E7F808380818D7F808388E48093B800E1
:1038900085E48093BC000895413208F03FC09091C8
:1038A000ED049111FCCF91E09093ED042093EB0493
:1038B0002FEF209380041092C504240F2093C4049A
:1038C0009093EC049091EC04880F892B8093EC0486
:1038D0008091EA04813041F41092EA048091EC0472
:1038E0008093BB0085EC01C085EE8093BC00809185
:1038F000ED048130E1F38091C504841710F4409108
:10390000C50426EC34E0FB01D9018A2F821B841701
:1039100018F48D918193F9CF842F089580E0089554
:103920000F93413208F046C09091ED049111FCCF05
:1039300092E09093ED040093EB049FEF909380044A
:103940001092C5044093C404FB0166EC74E0DB01F3
:103950009A2F961B941718F491919D93F9CF10927A
:10396000EC049091EC04880F892B8093EC048091F7
:10397000EA04813041F41092EA048091EC048093CF
:10398000BB0085EC01C085EE8093BC00222321F0B2
:103990008091ED048230E1F3809180048F3F61F0EB
:1039A00080918004803251F080918004803341F412
:1039B00083E007C081E005C080E003C082E001C071
:1039C00084E00F910895613298F42091ED04243041
:1039D00089F46093A204FC0184EA94E0DC012A2FBC
:1039E000281B261718F421912D93F9CF80E0089514
:1039F00081E0089582E0089585ED8093BC00809178
:103A0000BC0084FDFCCF1092ED04089585EC8093FA
:103A1000BC001092ED0408951F920F920FB60F9202
:103A200011242F933F934F935F936F937F938F93C3
:103A30009F93AF93BF93EF93FF938091B900887FDB
:103A4000803609F49CC068F5883209F45BC090F4B4
:103A5000803109F454C038F4882309F4F5C0883063
:103A600009F44DC0F5C0883109F44CC0803209F426
:103A70005DC0EEC0803409F468C048F4803309F4B6
:103A800055C0883309F0E4C080938004A8C0803515
:103A900009F44FC0883509F45DC0883409F0D8C0F6
:103AA000D5C0883909F4C6C0A8F4883709F467C0BE
:103AB00038F4883609F463C0803709F460C0C8C0A0
:103AC000883809F4B7C0803909F45FC0803809F03C
:103AD000BFC05BC0803B09F485C038F4803A09F46C
:103AE00066C0883A09F47EC0B3C0803C09F4A6C021
:103AF000883C09F4A3C0883B09F489C0A9C080911F
:103B0000EC0410C09091C5048091C404981770F51E
:103B1000E091C50481E08E0F8093C504F0E0EA5384
:103B2000FB4F80818093BB0085EC85C0809380042F
:103B30008DC0E091C50481E08E0F8093C504809113
:103B4000BB00F0E0EA53FB4F80839091C504809165
:103B5000C4046DC0E091C50481E08E0F8093C5045C
:103B60008091BB00F0E0EA53FB4F80838091EB042F
:103B700081116CC081E08093EA0484EA60C083E034
:103B80008093ED0410928104CFCF80918104803224
:103B900008F050C0E091810481E08E0F8093810491
:103BA0008091BB00F0E0EE57FB4F8083BDCF80914A
:103BB0008104803230F4E0918104F0E0EE57FB4F55
:103BC00010820E94FC1C6091810470E0E091E60488
:103BD000F091E70482E894E00995109281040E9434
:103BE000061D36C084E08093ED041092A304109269
:103BF000A204E091E804F091E90409958091A204FF
:103C0000811105C081E08093A2041092A404E09188
:103C1000A30481E08E0F8093A304F0E0EC55FB4FEA
:103C200080818093BB009091A3048091A204981797
:103C300008F47ACF85E88093BC000AC085EC8093B5
:103C4000BC001092ED0404C0109280040E94FC1C81
:103C5000FF91EF91BF91AF919F918F917F916F9164
:103C60005F914F913F912F910F900FBE0F901F903A
:103C70001895F8940C94A223FB01DC0102C001907A
:103C80000D9241505040D8F70895FB01DC0101909E
:103C90000D920020E1F70895AEE0B0E0E2E5FEE12C
:103CA0000C9473230D891E8986E08C831A83098303
:103CB0008FEF9FE79E838D83AE01475E5F4F6F89D5
:103CC000788DCE0101960E948D20EF81F885E00F5E
:103CD000F11F10822E96E4E00C948F235058BB27DE
:103CE000AA270ED075C166D130F06BD120F031F427
:103CF0009F3F11F41EF45BC10EF4E095E7FB51C148
:103D0000E92F77D180F3BA17620773078407950705
:103D100018F071F49EF58FC10EF4E0950B2EBA2FBA
:103D2000A02D0B01B90190010C01CA01A0011124C1
:103D3000FF27591B99F0593F50F4503E68F11A166D
:103D4000F040A22F232F342F4427585FF3CF4695FE
:103D500037952795A795F0405395C9F77EF41F1620
:103D6000BA0B620B730B840BBAF09150A1F0FF0FEA
:103D7000BB1F661F771F881FC2F70EC0BA0F621FD6
:103D8000731F841F48F4879577956795B795F795C6
:103D90009E3F08F0B3CF9395880F08F09927EE0F58
:103DA000979587950895D9D008F481E008950CD0AF
:103DB0000FC107D140F0FED030F021F45F3F19F081
:103DC000F0C0511139C1F3C014D198F39923C9F34C
:103DD0005523B1F3951B550BBB27AA276217730711
:103DE000840738F09F5F5F4F220F331F441FAA1FC5
:103DF000A9F333D00E2E3AF0E0E830D09150504085
:103E0000E695001CCAF729D0FE2F27D0660F771F32
:103E1000881FBB1F261737074807AB07B0E809F014
:103E2000BB0B802DBF01FF2793585F4F2AF09E3FA9
:103E3000510568F0B6C000C15F3FECF3983EDCF37B
:103E4000869577956795B795F7959F5FC9F7880F22
:103E5000911D9695879597F90895E1E0660F771F74
:103E6000881FBB1F621773078407BA0720F0621B05
:103E7000730B840BBA0BEE1F88F7E095089504D0FE
:103E80006894B111D9C00895BCD088F09F5790F0C4
:103E9000B92F9927B751A0F0D1F0660F771F881F6F
:103EA000991F1AF0BA95C9F712C0B13081F0C3D08A
:103EB000B1E00895C0C0672F782F8827B85F39F028
:103EC000B93FCCF3869577956795B395D9F73EF4CE
:103ED00090958095709561957F4F8F4F9F4F089576
:103EE000E89409C097FB3EF4909580957095619594
:103EF0007F4F8F4F9F4F9923A9F0F92F96E9BB274A
:103F00009395F695879577956795B795F111F8CFC5
:103F1000FAF4BB0F11F460FF1BC06F5F7F4F8F4F30
:103F20009F4F16C0882311F096E911C0772321F026
:103F30009EE8872F762F05C0662371F096E8862FBE
:103F400070E060E02AF09A95660F771F881FDAF715
:103F5000880F9695879597F90895990F0008550F42
:103F6000AA0BE0E8FEEF16161706E807F907C0F0FF
:103F700012161306E407F50798F0621B730B840B07
:103F8000950B39F40A2661F0232B242B252B21F4E1
:103F900008950A2609F4A140A6958FEF811D811D81
:103FA000089597F99F6780E870E060E008959FEFBB
:103FB00080EC089500240A941616170618060906C0
:103FC000089500240A94121613061406050608958F
:103FD000092E0394000C11F4882352F0BB0F40F417
:103FE000BF2B11F460FF04C06F5F7F4F8F4F9F4F57
:103FF000089557FD9058440F551F59F05F3F71F0D9
:104000004795880F97FB991F61F09F3F79F087953F
:104010000895121613061406551FF2CF4695F1DFC8
:1040200008C0161617061806991FF1CF8695710558
:10403000610508940895E894BB2766277727CB018C
:1040400097F908958ADF08F48FEF08950BD0C0CF59
:10405000B1DF28F0B6DF18F0952309F0A2CFA7CF83
:104060001124EACFC6DFA0F3959FD1F3950F50E05E
:10407000551F629FF001729FBB27F00DB11D639F1A
:10408000AA27F00DB11DAA1F649F6627B00DA11DC0
:10409000661F829F2227B00DA11D621F739FB00D66
:1040A000A11D621F839FA00D611D221F749F3327D6
:1040B000A00D611D231F849F600D211D822F762F6F
:1040C0006A2F11249F5750408AF0E1F088234AF06C
:1040D000EE0FFF1FBB1F661F771F881F91505040B8
:1040E000A9F79E3F510570F05CCFA6CF5F3FECF380
:1040F000983EDCF3869577956795B795F795E795A4
:104100009F5FC1F7FE2B880F911D9695879597F9B4
:10411000089523DF880B990B0895ACE0B0E0E3E944
:10412000F0E20C9465237C016B018A01FC0117828B
:104130001682838181FFBDC1CE0101964C01F7013A
:104140009381F60193FD859193FF81916F018823FF
:1041500009F4ABC1853239F493FD859193FF8191C8
:104160006F01853229F4B70190E00E948B22E7CFDE
:10417000512C312C20E02032A0F48B3269F030F445
:10418000803259F0833269F420612CC08D3239F0CD
:10419000803339F4216026C02260246023C0286067
:1041A00021C027FD27C030ED380F3A3078F426FFC4
:1041B00006C0FAE05F9E300D1124532E13C08AE032
:1041C000389E300D1124332E20620CC08E3221F423
:1041D00026FD6BC1206406C08C3611F4206802C035
:1041E000883641F4F60193FD859193FF81916F012B
:1041F0008111C1CF982F9F7D9554933028F40C5F87
:104200001F4FFFE3F9830DC0833631F0833771F020
:10421000833509F05BC022C0F801808189830E5F7D
:104220001F4F44244394512C540115C03801F2E02F
:104230006F0E711CF801A080B18026FF03C0652DB0
:1042400070E002C06FEF7FEFC5012C870E948022D3
:104250002C0183012C852F77222E17C03801F2E024
:104260006F0E711CF801A080B18026FF03C0652D80
:1042700070E002C06FEF7FEFC5012C870E947522AE
:104280002C012C852068222E830123FC1BC0832D4A
:1042900090E048165906B0F4B70180E290E00E9421
:1042A0008B223A94F4CFF50127FC859127FE81916A
:1042B0005F01B70190E00E948B2231103A94F1E047
:1042C0004F1A51084114510471F7E5C0843611F0BA
:1042D000893639F5F80127FF07C060817181828135
:1042E00093810C5F1F4F08C060817181882777FD23
:1042F0008095982F0E5F1F4F2F76B22E97FF09C023
:1043000090958095709561957F4F8F4F9F4F206856
:10431000B22E2AE030E0A4010E94BD22A82EA818E7
:1043200044C0853729F42F7EB22E2AE030E025C024
:10433000F22FF97FBF2E8F36C1F018F4883579F04F
:10434000B4C0803719F0883721F0AFC02F2F20611B
:10435000B22EB4FE0DC08B2D8460B82E09C024FF90
:104360000AC09F2F9660B92E06C028E030E005C035
:1043700020E130E002C020E132E0F801B7FE07C0E2
:1043800060817181828193810C5F1F4F06C06081C3
:10439000718180E090E00E5F1F4FA4010E94BD225A
:1043A000A82EA818FB2DFF77BF2EB6FE0BC02B2D15
:1043B0002E7FA51450F4B4FE0AC0B2FC08C02B2D09
:1043C0002E7E05C07A2C2B2D03C07A2C01C0752CB3
:1043D00024FF0DC0FE01EA0DF11D8081803311F430
:1043E000297E09C022FF06C07394739404C0822FF3
:1043F000867809F0739423FD13C020FF06C05A2C61
:10440000731418F4530C5718732C731468F4B70111
:1044100080E290E02C870E948B2273942C85F5CF4C
:10442000731410F4371801C0312C24FF12C0B701E7
:1044300080E390E02C870E948B222C8522FF17C0FE
:1044400021FF03C088E590E002C088E790E0B70153
:104450000CC0822F867859F021FD02C080E201C095
:104460008BE227FD8DE2B70190E00E948B22A5141C
:1044700038F4B70180E390E00E948B225A94F7CF82
:10448000AA94F401EA0DF11D8081B70190E00E9429
:104490008B22A110F5CF332009F451CEB70180E271
:1044A00090E00E948B223A94F6CFF70186819781A3
:1044B00002C08FEF9FEF2C96E2E10C948123F999D3
:1044C000FECF92BD81BDF89A992780B50895262F19
:1044D000F999FECF1FBA92BD81BD20BD0FB6F894E9
:1044E000FA9AF99A0FBE01960895FC010590615061
:1044F00070400110D8F7809590958E0F9F1F0895FA
:10450000FC016150704001900110D8F780959095A2
:104510008E0F9F1F08950F931F93CF93DF93182F34
:10452000092FEB018B8181FD03C08FEF9FEF20C02E
:1045300082FF10C04E815F812C813D81421753075D
:104540007CF4E881F9819F012F5F3F4F39832883F5
:10455000108306C0E885F985812F0995892B29F7F5
:104560002E813F812F5F3F4F3F832E83812F902FDE
:10457000DF91CF911F910F910895FA01AA2728305A
:1045800051F1203181F1E8946F936E7F6E5F7F4F20
:104590008F4F9F4FAF4FB1E03ED0B4E03CD0670F9C
:1045A000781F891F9A1FA11D680F791F8A1F911DEF
:1045B000A11D6A0F711D811D911DA11D20D009F43F
:1045C00068943F912AE0269F11243019305D319381
:1045D000DEF6CF010895462F4770405D4193B3E06A
:1045E0000FD0C9F7F6CF462F4F70405D4A3318F011
:1045F000495D31FD4052419302D0A9F7EACFB4E0C2
:10460000A6959795879577956795BA95C9F7009779
:104610006105710508959B01AC010A2E069457951A
:10462000479537952795BA95C9F7620F731F841F71
:10463000951FA01D0895AA1BBB1B51E107C0AA1F0F
:10464000BB1FA617B70710F0A61BB70B881F991F33
:104650005A95A9F780959095BC01CD01089597FBD7
:10466000072E16F4009407D077FD09D00E941B2373
:1046700007FC05D03EF4909581959F4F0895709565
:1046800061957F4F0895A1E21A2EAA1BBB1BFD0165
:104690000DC0AA1FBB1FEE1FFF1FA217B307E40721
:1046A000F50720F0A21BB30BE40BF50B661F771F79
:1046B000881F991F1A9469F7609570958095909559
:1046C0009B01AC01BD01CF0108952F923F924F9203
:1046D0005F926F927F928F929F92AF92BF92CF9292
:1046E000DF92EF92FF920F931F93CF93DF93CDB79B
:1046F000DEB7CA1BDB0B0FB6F894DEBF0FBECDBF13
:1047000009942A88398848885F846E847D848C84E3
:104710009B84AA84B984C884DF80EE80FD800C81EC
:104720001B81AA81B981CE0FD11D0FB6F894DEBFCF
:104730000FBECDBFED010895EE0FFF1F0590F49160
:08474000E02D0994F894FFCF6D
:104748000000C84204010000F20480004D6F697344
:10475800747572653A20002048756D6964697479CA
:104768003A20002054656D703A2000205556496E55
:104778006465783A2000555620496E6465780025AE
:104788006400536166652056616C75650025326466
:104798000048756D69646974790025642E2564255F
:1047A80025003C20536166652056616C7565203C88
:1047B800002532642E302525004C6F773C2D2D20A6
:1047C8002020202048696768004C6F77202020202F
:1047D800202D2D3E486967680054656D70657261CB
:1047E800747572650025642E25642A430025326499
:1047F8002E302A43004D6F69737475726500256405
:104808002E30252500536D61727420506C616E74D2
:104818002043617265005072657373204275747429
:104828006F6E20746F0073746172742077617465A1
:1048380072696E67004D6F6973747572653A002509
:10484800642E2564252520005761746572566F6CA7
:10485800756D6500566F6C756D65204C696D656E7C
:10486800002532642E25644C0057617465722069F6
:1048780073206F6E2E00466C6F77526174653A0034
:10488800566F6C756D653A00537461727475702E4D
:1048980020003135206D696E7574657320757064FC
:1048A8006174652E005761726E696E6721004875E4
:1048B8006D696469747920204C6F770048756D695B
:1048C8006469747920486967680054656D702020B0
:1048D8004C6F770054656D702048696768005556BD
:1048E80020202048696768004E6F20205761746552
:1048F8007200253264204C2F48002532642E302562
:1049080064204C002532642E253264204C00446F0C
:104918006E65205761746572696E67006E616E001E
:10492800696E66006F76660000000000F013C7101D
:104938009C13C513AC13E513526561642066616965
:104948006C000000000098196B19401948195B1990
:024958006A19DA
:00000001FF
