:100000000C94E4010C94F50E0C94220F0C940C0249
:100010000C940C020C940C020C940C020C940C0228
:100020000C940C020C940C020C940C020C940C0218
:100030000C940C020C940C020C940C020C940C0208
:100040000C944F0F0C940C020C9479140C94BC1467
:100050000C940C020C940C020C940C020C940C02E8
:100060000C94571D0C940C020000000700020100C4
:100070000003040600000000000000000102040864
:100080001020408001020408102001020408102002
:10009000040404040404040402020202020203032E
:1000A00003030303000000002300260029000000D2
:1000B0000000250028002B0000000000240027007D
:1000C0002A00000000000000000000005F000000A7
:1000D0000000000007000700000000147F147F14D8
:1000E000000000242A7F2A12000000231308646203
:1000F00000000036495522500000000005030000B2
:100100000000001C2241000000000041221C0000F1
:10011000000000082A1C2A0800000008083E080801
:10012000000000A0600000000000000808080808A7
:1001300000000060600000000000002010080402C1
:100140000000003E5149453E00000000427F400053
:1001500000000062514949460000002241494936E9
:100160000000001814127F10000000274545453993
:100170000000003C4A4949300000000171090503B4
:100180000000003649494936000000064949291E49
:10019000000000003636000000000000AC6C0000DB
:1001A000000000081422410000000014141414146C
:1001B000000000412214080000000002015109065D
:1001C000000000324979413E0000007E0909097EA5
:1001D0000000007F494949360000003E414141226C
:1001E0000000007F4141221C0000007F4949494135
:1001F0000000007F090909010000003E41415172E1
:100200000000007F0808087F000000417F410000D7
:100210000000002040413F010000007F08142241FF
:100220000000007F404040400000007F020C027F41
:100230000000007F0408107F0000003E4141413E65
:100240000000007F090909060000003E4151215EBF
:100250000000007F0919294600000026494949325B
:1002600000000001017F01010000003F4040403FCD
:100270000000001F2040201F0000003F4038403F8A
:1002800000000063140814630000000304780403F2
:1002900000000061514945430000007F41410000DA
:1002A000000000020408102000000041417F00000F
:1002B00000000004020102040000008080808080B1
:1002C0000000000102040000000000205454547893
:1002D0000000007F484444380000003844442800AF
:1002E000000000384444487F00000038545454183B
:1002F000000000087E09020000000018A4A4A47CED
:100300000000007F08040478000000007D00000069
:1003100000000080847D00000000007F1028440061
:10032000000000417F4000000000007C04180478B9
:100330000000007C08047C000000003844443800C1
:10034000000000FC24241800000000182424FC00F5
:10035000000000007C080400000000485454240001
:10036000000000047F4400000000003C40407C008E
:100370000000001C2040201C0000003C4030403C9D
:1003800000000044281028440000001CA0A07C00AD
:100390000000004464544C44000000083641000052
:1003A000000000007F00000000000041360800004F
:1003B0000000000201010201000000020505020028
:1003C0000000B30E78155E1A11241FBECFEFD8E0DF
:1003D000DEBFCDBF13E0A0E0B1E0EEEDF7E402C078
:1003E00005900D92A032B107D9F725E0A0E2B3E065
:1003F00001C01D92A030B207E1F713E0C8ECD3E0D2
:1004000004C02297FE010E94E923C23CD107C9F72C
:100410000E94DA130C94841E0C94000082E00E9467
:10042000E910892B71F46AE070E080E090E00E94AE
:10043000C80F82E00E94E910892B19F481E08093B3
:100440006403089583E00E94E910019709F56AE0CA
:1004500070E080E090E00E94C80F83E00E94E91005
:100460000197B1F480916D03811112C081E08093F6
:100470006D0384E00E94E9108130910529F4909386
:10048000800380937F0308951092800310927F036E
:100490000895BC0180E993E00E9450116CE071E086
:1004A00080E993E00E948511409100015091010183
:1004B000609102017091030122E030E080E993E055
:1004C0000E94421367E171E080E993E00E94851188
:1004D00040914703509148036091490370914A034A
:1004E00022E030E080E993E00E94421363E271E091
:1004F00080E993E00E9485114091430350914403A9
:10050000609145037091460322E030E080E993E07A
:100510000E9442136BE271E080E993E00E94851132
:1005200040913F0350914003609141037091420319
:1005300022E030E080E993E00E94421360E772E03D
:1005400080E993E00C94A21161E086E00C94B31072
:1005500060E086E00C94B310CF93DF9366E371E024
:1005600081E293E00E94901E44E061E08AE394E01F
:100570000E94A11761E273E08AE394E00E942B18C5
:1005800060913F0370914003809141039091420339
:100590000E948A1F7F936F938FE391E09F938F93C5
:1005A000C1E2D3E0DF93CF930E94971E47E062E061
:1005B0008AE394E00E94A117BE018AE394E00E94BE
:1005C0002B1862E471E0CE010E94901E43E065E0CA
:1005D0008AE394E00E94A117BE018AE394E00E949E
:1005E0002B18809173031F928F938DE491E09F935A
:1005F0008F93DF93CF930E94971E47E066E08AE3D4
:1006000094E00E94A117BE018AE394E00E942B1897
:1006100082E00E94E9102DB73EB7245F3F4F0FB62E
:10062000F8943EBF0FBE2DBF019721F5C0916D0319
:10063000C13001F564E670E080E090E00E94C80FF0
:1006400010926D03C093600380917F0390918003AB
:1006500020917303009721F0019729F42F5F01C0C7
:1006600021502093730380917303803118F08FE041
:1006700080937303DF91CF910895CF92DF92EF9231
:10068000FF920F931F93CF93DF9361E571E081E2B7
:1006900093E00E94901E44E061E08AE394E00E94AF
:1006A000A11761E273E08AE394E00E942B18C090E6
:1006B0004703D0904803E0904903F0904A0320E0BC
:1006C00030E048EC52E4C701B6010E9471200E945C
:1006D0008A1FCB0164E670E00E947A239F938F9378
:1006E000C701B6010E948A1F7F936F938AE591E04C
:1006F0009F938F93C1E2D3E0DF93CF930E94971E25
:1007000046E062E08AE394E00E94A117BE018AE31A
:1007100094E00E942B1862E671E0CE010E94901EC8
:1007200042E065E08AE394E00E94A117BE018AE3FB
:1007300094E00E942B18809175031F928F9301E71C
:1007400011E01F930F93DF93CF930E94971E40E019
:1007500067E08AE394E00E94A117BE018AE394E077
:100760000E942B18809174031F928F931F930F93F5
:10077000DF93CF930E94971E4AE067E08AE394E0FC
:100780000E94A117BE018AE394E00E942B188DB746
:100790009EB744960FB6F8949EBF0FBE8DBF809152
:1007A0005F0381113EC069E771E0CE010E94901E97
:1007B00041E066E08AE394E00E94A117BE018AE36B
:1007C00094E00E942B1882E00E94E910019709F042
:1007D0006BC0C0916D03C13009F066C064E670E083
:1007E00080E090E00E94C80F10926D03C0936003F8
:1007F00080917F039091800320917503009721F0F1
:10080000019729F42F5F01C0215020937503809137
:10081000740390917503891708F046C0809375039F
:1008200043C069E871E081E293E00E94901E41E0DC
:1008300066E08AE394E00E94A11761E273E08AE334
:1008400094E00E942B1882E00E94E910019761F564
:10085000C0916D03C13041F564E670E080E090E046
:100860000E94C80F10926D03C093600380917F03B4
:100870009091800320917403009721F0019729F44F
:100880002F5F01C02150209374038091740385363B
:1008900018F084E68093740380917503909174033B
:1008A000891710F080937403DF91CF911F910F91FE
:1008B000FF90EF90DF90CF900895CF92DF92EF926C
:1008C000FF920F931F93CF93DF9369E971E081E269
:1008D00093E00E94901E42E061E08AE394E00E946F
:1008E000A11761E273E08AE394E00E942B18C090A4
:1008F0004303D0904403E0904503F090460320E08A
:1009000030E048EC52E4C701B6010E9471200E9419
:100910008A1FCB0164E670E00E947A239F938F9335
:10092000C701B6010E948A1F7F936F9385EA91E009
:100930009F938F93C1E2D3E0DF93CF930E94971EE2
:1009400045E062E08AE394E00E94A117BE018AE3D9
:1009500094E00E942B1862E671E0CE010E94901E86
:1009600042E065E08AE394E00E94A117BE018AE3B9
:1009700094E00E942B18809177031F928F930DEAC9
:1009800011E01F930F93DF93CF930E94971E40E0D7
:1009900067E08AE394E00E94A117BE018AE394E035
:1009A0000E942B18809176031F928F931F930F93B1
:1009B000DF93CF930E94971E4AE067E08AE394E0BA
:1009C0000E94A117BE018AE394E00E942B188DB704
:1009D0009EB744960FB6F8949EBF0FBE8DBF809110
:1009E0005F0381113EC069E771E0CE010E94901E55
:1009F00041E066E08AE394E00E94A117BE018AE329
:100A000094E00E942B1882E00E94E910019709F0FF
:100A10006BC0C0916D03C13009F066C064E670E040
:100A200080E090E00E94C80F10926D03C0936003B5
:100A300080917F039091800320917703009721F0AC
:100A4000019729F42F5F01C02150209377038091F3
:100A5000760390917703891708F046C08093770357
:100A600043C069E871E081E293E00E94901E41E09A
:100A700066E08AE394E00E94A11761E273E08AE3F2
:100A800094E00E942B1882E00E94E910019761F522
:100A9000C0916D03C13041F564E670E080E090E004
:100AA0000E94C80F10926D03C093600380917F0372
:100AB0009091800320917603009721F0019729F40B
:100AC0002F5F01C0215020937603809176038536F5
:100AD00018F084E6809376038091770390917603F3
:100AE000891710F080937603DF91CF911F910F91BA
:100AF000FF90EF90DF90CF900895CF92DF92EF922A
:100B0000FF92CF93DF9365EB71E081E293E00E9467
:100B1000901E44E061E08AE394E00E94A11761E244
:100B200073E08AE394E00E942B18C0900001D090FB
:100B30000101E0900201F090030120E030E048EC78
:100B400052E4C701B6010E9471200E948A1FCB01A6
:100B500064E670E00E947A239F938F93C701B601E9
:100B60000E948A1F7F936F938AE591E09F938F93F2
:100B7000C1E2D3E0DF93CF930E94971E46E062E08C
:100B80008AE394E00E94A117BE018AE394E00E94E8
:100B90002B1843E065E08AE394E00E94A11762E429
:100BA00071E08AE394E00E942B18809178031F92F1
:100BB0008F938EEB91E09F938F93DF93CF930E945F
:100BC000971E46E066E08AE394E00E94A117BE010A
:100BD0008AE394E00E942B1882E00E94E9102DB76E
:100BE0003EB7225F3F4F0FB6F8943EBF0FBE2DBFFA
:100BF0000197A1F4C0916D03C13081F464E670E007
:100C000080E090E00E94C80F10926D03C0936003D3
:100C100080917803853610F010927803DF91CF91A0
:100C2000FF90EF90DF90CF900895CF92DF92EF92F8
:100C3000FF9240E060E08AE394E00E94A11765EC37
:100C400071E08AE394E00E942B1840E062E08AE3BE
:100C500094E00E94A11766ED71E08AE394E00E949F
:100C60002B1840E063E08AE394E00E94A11766EE4F
:100C700071E08AE394E00E942B1865EF71E081E255
:100C800093E00E94901E44E066E08AE394E00E94B4
:100C9000A11761E273E08AE394E00E942B18C090F0
:100CA0000001D0900101E0900201F090030120E0EA
:100CB00030E048EC52E4C701B6010E9471200E9466
:100CC0008A1FCB0164E670E00E947A239F938F9382
:100CD000C701B6010E948A1F7F936F938FEF91E047
:100CE0009F938F9381E293E09F938F930E94971E2F
:100CF00046E067E08AE394E00E94A1178DB79EB7B3
:100D000008960FB6F8949EBF0FBE8DBF61E273E0E8
:100D10008AE394E0FF90EF90DF90CF900C942B1833
:100D2000CF92DF92EF92FF921F93CF93DF9320E059
:100D300030E040E251E46091790370917A03809150
:100D40007B0390917C030E9471200E948F1F6B0196
:100D50007C01EB0168E072E081E293E00E94901E6A
:100D600043E062E08AE394E00E94A11761E273E04D
:100D70008AE394E00E942B1842E065E08AE394E065
:100D80000E94A11764E172E08AE394E00E942B18AC
:100D9000C6016AE070E00E9466239F938F937F9361
:100DA0006F9381E292E09F938F9381E293E09F9310
:100DB0008F930E94971E45E066E08AE394E00E94CC
:100DC000A11761E273E08AE394E00E942B1882E0AD
:100DD0000E94E9102DB73EB7285F3F4F0FB6F89439
:100DE0003EBF0FBE2DBF019701F510916D0311306D
:100DF000E1F464E670E080E090E00E94C80F109299
:100E00006D031093600380917F039091800300979E
:100E100021F0019721F4219602C0E6012197C93EF5
:100E200033E0D30710F0C0E0D0E0BE0180E090E0F6
:100E30000E94BB1F20E030E040E251E40E94221FEC
:100E40006093790370937A0380937B0390937C0380
:100E5000DF91CF911F91FF90EF90DF90CF90089599
:100E6000CF93DF93CDB7DEB727970FB6F894DEBFE9
:100E70000FBECDBF109263038AE394E00E94061870
:100E800083E090E090938203809381030E94A40208
:100E900069E272E0CE0101960E94B213CE01019682
:100EA0000E944902CE0101960E94441343E060E093
:100EB0008AE394E00E94A11761EE72E08AE394E075
:100EC0000E942B1840E062E08AE394E00E94A117A0
:100ED00064E472E08AE394E00E942B1840E064E04E
:100EE0008AE394E00E94A1176EE472E08AE394E042
:100EF0000E942B180E94990F6093690370936A03F4
:100F000080936B0390936C0327960FB6F894DEBF23
:100F10000FBECDBFDF91CF9108950F931F93CF9355
:100F2000DF93CDB7DEB727970FB6F894DEBF0FBEBD
:100F3000CDBF8BE394E00E94221A8AE394E00E94E2
:100F4000761784B1816284B985B1816285B98AE3FB
:100F500094E00E9406188AE394E00E94C2178AE394
:100F600094E00E94921740E855E260E070E080E96A
:100F700093E00E94F7148BE493E00E94D51560E0A3
:100F800082E00E947A1042E050E06EE072E080E081
:100F90000E94D50E60E083E00E947A1060E084E059
:100FA0000E947A1043E050E062E272E081E00E9429
:100FB000D50E89E593E00E944319811107C068EEC0
:100FC00073E080E090E00E94C80FF3CF60E085E01E
:100FD0000E947A1061E086E00E947A1060915E03C0
:100FE00070E08DE894E00E94621A60915E038F3F8A
:100FF00009F090C070E040E08DE894E00E94651A2E
:101000004091730360915E036F5F60935E0370E0D5
:101010008DE894E00E94651A4091740360915E032C
:101020006F5F60935E0370E08DE894E00E94651A44
:101030004091750360915E036F5F60935E0370E0A3
:101040008DE894E00E94651A4091760360915E03FA
:101050006F5F60935E0370E08DE894E00E94651A14
:101060004091770360915E036F5F60935E0370E071
:101070008DE894E00E94651A4091780360915E03C8
:101080006F5F60935E0370E08DE894E00E94651AE4
:1010900020E030E048EC52E46091790370917A03EB
:1010A00080917B0390917C030E9471200E948A1F93
:1010B0000FEF10E0CB01B8010E947A23462F8091F8
:1010C0005E038F5F80935E03682F70E08DE894E08D
:1010D0000E94651A20E030E048EC52E46091790308
:1010E00070917A0380917B0390917C030E94712020
:1010F0000E948A1FCB01B8010E947A2360915E038F
:101100006F5F60935E0370E0482F8DE894E00E946B
:10111000651A5FC082E0860F80935E036F5F70E0A8
:101120008DE894E00E94621A8093730360915E03DD
:1011300081E0860F80935E0370E08DE894E00E946A
:10114000621A8093740360915E0381E0860F80933E
:101150005E0370E08DE894E00E94621A809375034C
:1011600060915E0381E0860F80935E0370E08DE8FE
:1011700094E00E94621A8093760360915E0381E09E
:10118000860F80935E0370E08DE894E00E94621AFF
:101190008093770360915E0381E0860F80935E0306
:1011A00070E08DE894E00E94621A80937803609169
:1011B0005E0381E0860F80935E0370E08DE894E02B
:1011C0000E94621A60915E0370E08DE894E00E94D4
:1011D000621A89E0809373038CE38093740388E23E
:1011E000809375039EE1909376039FE0909377033D
:1011F000809378038DEC9CECACE4BEE380937903A0
:1012000090937A03A0937B03B0937C030E94990F81
:101210006093690370936A0380936B0390936C03EC
:101220000E94990F60936503709366038093670330
:1012300090936803109282031092810310927E03B0
:1012400010927D038BE493E00E940D176093470397
:10125000709348038093490390934A0360E08BE4C2
:1012600093E00E949316609343037093440380932A
:101270004503909346038FE00E94341067E070E0CE
:101280000E947A23882777FD8095982F0E94BD1FA2
:101290006093000170930101809302019093030118
:1012A00089E593E00E948819BC0180E090E00E94EB
:1012B000BB1F20E030E048EC52E40E94221F20E0F7
:1012C00030E040E05FE30E94BA1E60933F037093FA
:1012D0004003809341039093420366E572E0CE01A0
:1012E00001960E94B213CE0101960E944902CE01DE
:1012F00001960E94441327960FB6F894DEBF0FBEE6
:10130000CDBFDF91CF911F910F9108958F929F9242
:10131000AF92BF92CF92DF92EF92FF920F931F9303
:10132000CF93DF93CDB7DEB727970FB6F894DEBF24
:101330000FBECDBF0E94990F009165031091660307
:101340002091670330916803601B710B820B930B34
:10135000613477478B419105C0F00E94990F6093EB
:10136000650370936603809367039093680360E658
:1013700072E0CE0101960E94B213CE0101960E9446
:101380004902CE0101960E944413809181039091FD
:1013900082038130910509F42AC21CF4892B49F09B
:1013A000CFC48230910509F4DDC2039709F4F4C279
:1013B000C7C40E94990F0091690310916A0320919C
:1013C0006B0330916C03601B710B820B930B6131CB
:1013D00077428105910508F4FDC00E94990F609342
:1013E000690370936A0380936B0390936C038BE49F
:1013F00093E00E940D176093470370934803809316
:10140000490390934A0360E08BE493E00E949316B3
:101410006093430370934403809345039093460382
:101420008FE00E94341067E070E00E947A238827E2
:1014300077FD8095982F0E94BD1F609300017093E7
:101440000101809302019093030189E593E00E94DA
:101450008819BC0180E090E00E94BB1F20E030E0D2
:1014600048EC52E40E94221F20E030E040E05FE3BD
:101470000E94BA1E6B017C0160933F03709340038E
:10148000809341039093420320E030E048EC52E423
:10149000609100017091010180910201909103011E
:1014A0000E946D20181664F480E090E0A8ECB2E48D
:1014B0008093000190930101A0930201B093030176
:1014C0006091780370E080E090E00E94BD1F9B0176
:1014D000AC01609100017091010180910201909135
:1014E00003010E941E1F87FF03C081E080936303F6
:1014F0008090470390904803A0904903B0904A031E
:101500006091750370E080E090E00E94BD1F9B0138
:10151000AC01C501B4010E941E1F87FD0FC0609180
:10152000740370E080E090E00E94BD1F9B01AC015D
:10153000C501B4010E946D2018161CF481E090E0F2
:1015400028C08090430390904403A0904503B0903E
:1015500046036091760370E080E090E00E94BD1F3A
:101560009B01AC01C501B4010E946D2018167CF0EE
:101570006091770370E080E090E00E94BD1F9B01C6
:10158000AC01C501B4010E941E1F87FF07C082E0A5
:1015900090E090937E0380937D031CC06091730361
:1015A00070E080E090E00E94BD1F9B01AC01C7018C
:1015B000B6010E946D2018161CF483E090E0E9CF7C
:1015C00080917D0390917E03049721F010927E0319
:1015D00010927D0380917D0390917E03892B09F009
:1015E000F0C080916D03813041F564E670E080E0E9
:1015F00090E00E94C80F10926D0380917F0390913C
:10160000800320910401009721F0019729F42F5FB6
:1016100001C021502093040180910401863014F010
:10162000109204018091040187FF03C085E080933C
:1016300004018AE394E00E9406188091040182303C
:1016400099F03CF4882369F08130B1F40E943D03A5
:1016500013C0843079F05CF0853071F40E949006FC
:101660000BC00E947D0508C00E945D0405C00E9459
:10167000AC0202C00E94150680916003813009F01F
:1016800089C0109260034091730380935E0361E010
:1016900070E08DE894E00E94651A409174036091B7
:1016A0005E036F5F60935E0370E08DE894E00E94DC
:1016B000651A4091750360915E036F5F60935E03EE
:1016C00070E08DE894E00E94651A40917603609185
:1016D0005E036F5F60935E0370E08DE894E00E94AC
:1016E000651A4091770360915E036F5F60935E03BC
:1016F00070E08DE894E00E94651A40917803609153
:101700005E036F5F60935E0370E08DE894E00E947B
:10171000651A20E030E048EC52E460917903709162
:101720007A0380917B0390917C030E9471200E9438
:101730008A1F0FEF10E0CB01B8010E947A23462FD9
:1017400080915E038F5F80935E03682F70E08DE869
:1017500094E00E94651A20E030E048EC52E4609189
:10176000790370917A0380917B0390917C030E94AE
:1017700071200E948A1FCB01B8010E947A236091D8
:101780005E036F5F60935E0370E0482F8DE894E026
:101790000E94651A80916403813009F580910401EB
:1017A000843011F40E94300780915F03813019F476
:1017B00010925F0303C081E080935F031092640383
:1017C0000EC081E090E090938203809381038AE3CE
:1017D00094E00E9406188AE394E00E94C517809165
:1017E0006303813009F0ACC20E943007A9C244E013
:1017F00062E08AE394E00E94A11763E772E08AE363
:1018000094E00E942B1880917D0390917E0382309A
:10181000910589F11CF4019749F086C08330910548
:1018200009F452C0049709F46DC07EC0609175033D
:1018300070E080E090E00E94BD1F9B01AC016091D0
:101840004703709148038091490390914A030E9495
:101850001E1F42E065E087FF07C08AE394E00E9414
:10186000A1176CE772E024C08AE394E00E94A117FC
:101870006AE872E01DC06091770370E080E090E05C
:101880000E94BD1F9B01AC01609143037091440312
:1018900080914503909146030E941E1F43E065E03E
:1018A00087FF0BC08AE394E00E94A11768E972E009
:1018B0008AE394E00E942B1837C08AE394E00E94E8
:1018C000A11762EA72E0F4CF6091730370E080E0E8
:1018D00090E00E94BD1F9B01AC0160914303709199
:1018E000440380914503909146030E946D20181691
:1018F000DCF444E065E08AE394E00E94A1176CEA1E
:1019000072E0D6CF43E065E08AE394E00E94A1173D
:1019100066EB72E08AE394E00E942B1880916403E6
:10192000813011F41092640368EE73E080E090E07F
:101930000E94C80F10928203109281038091640369
:10194000813009F0FDC110927E0310927D03109248
:1019500064038AE394E00E9406188AE394E00E94FC
:10196000C2170FC080916403813009F0E9C1109261
:10197000640383E090E090938203809381030E944C
:10198000A4020E94990F6093690370936A03809385
:101990006B0390936C03D4C1109262038AE394E0CA
:1019A0000E94C21785E00E94E9100197B1F485E01A
:1019B0000E94E9100197B9F480917203811113C05C
:1019C00081E08093720380916E0390916F03019682
:1019D00090936F0380936E0306C0809172038130F1
:1019E00011F4109272030E94990F009169031091F3
:1019F0006A0320916B0330916C03601B710B820BA7
:101A0000930B693B7B408105910508F42EC1209121
:101A10006E0330916F034CE3429FC001439F900DD2
:101A2000112469E470E00E946623162F072F60934B
:101A3000700370937103B90180E090E00E94BB1FB6
:101A400020E030E042E952E40E94221F20E030E032
:101A500040E752E40E94221F6B017C012AE037ED2F
:101A600043EA5BE30E941E1F87FF19C08091200399
:101A7000833024F48F5F809320030EC010922003E4
:101A800084E090E090937E0380937D0381E08093D7
:101A9000620383E080930401A701960112C01092B3
:101AA000200310927E0310927D03109262032AE0BD
:101AB00037ED43EA5BE3C701B6010E94BA1E9B0102
:101AC000AC0160915A0370915B0380915C0390912B
:101AD0005D030E94BA1E60935A0370935B03809368
:101AE0005C0390935D0310926F0310926E030F934B
:101AF0001F9380EC92E09F938F9301E213E01F937A
:101B00000F930E94971E4AE062E08AE394E00E94ED
:101B1000A117B8018AE394E00E942B18C0905A03E1
:101B2000D0905B03E0905C03F0905D0320E030E038
:101B300048EC52E4C701B6010E9471200E948A1F3E
:101B4000CB0164E670E00E947A230F900F900F9013
:101B50000F900F900F908A3091055CF49F938F93B4
:101B6000C701B6010E948A1F7F936F9388EC92E0B1
:101B70000AC09F938F93C701B6010E948A1F7F936B
:101B80006F9382ED92E09F938F931F930F930E9428
:101B9000971E0FB6F894DEBF0FBECDBF48E064E0DD
:101BA0008AE394E00E94A11761E273E08AE394E083
:101BB0000E942B18C0900001D0900101E09002011A
:101BC000F090030120E030E048EC52E4C701B60198
:101BD0000E9471200E948A1FCB0164E670E00E947F
:101BE0007A239F938F93C701B6010E948A1F7F9328
:101BF0006F938AE591E09F938F9381E293E09F93A7
:101C00008F930E94971E46E066E08AE394E00E946C
:101C1000A11761E273E08AE394E00E942B180FB6EB
:101C2000F894DEBF0FBECDBF2091790330917A03C7
:101C300040917B0350917C0360915A0370915B0348
:101C400080915C0390915D030E946D2087FD03C02D
:101C500081E0809361030E94990F60936903709300
:101C60006A0380936B0390936C03809164038130CB
:101C700021F41092640380936103809161038130A9
:101C8000A9F510925A0310925B0310925C03109214
:101C90005D0310928203109281030E94A8028AE3DE
:101CA00094E00E94061842E064E08AE394E00E9417
:101CB000A1176CED72E08AE394E00E942B18109259
:101CC00061031092640383E08093040160E177E292
:101CD00080E090E00E94C80F0E94990F6093690312
:101CE00070936A0380936B0390936C0380916203FB
:101CF000813031F510925A0310925B0310925C030D
:101D000010925D031092620381E090E09093820351
:101D1000809381030E94990F6093690370936A0313
:101D200080936B0390936C030E94A8028AE394E073
:101D30000E9406188AE394E00E94C517109264037B
:101D400027960FB6F894DEBF0FBECDBFDF91CF91BF
:101D50001F910F91FF90EF90DF90CF90BF90AF90C9
:101D60009F908F90089589E0809373038CE3809314
:101D70007403109275038EE18093760310927703BB
:101D8000109278038DEC9CECACE4BEE38093790375
:101D900090937A03A0937B03B0937C0326E04BE0FF
:101DA0006EE08BE493E00C94CE158230E8F4E82FDB
:101DB000F0E0EE0FFF1FED57FC4F71836083813021
:101DC00041F0809169008C7F842B80936900E89AB0
:101DD000089580916900440F551F440F551F837F5C
:101DE000842B80936900E99A08951F920F920FB691
:101DF0000F9211242F933F934F935F936F937F9391
:101E00008F939F93AF93BF93EF93FF93809183033F
:101E100090918403892B29F0E0918303F09184034E
:101E20000995FF91EF91BF91AF919F918F917F9114
:101E30006F915F914F913F912F910F900FBE0F9037
:101E40001F9018951F920F920FB60F9211242F9387
:101E50003F934F935F936F937F938F939F93AF9332
:101E6000BF93EF93FF938091850390918603892B15
:101E700029F0E0918503F09186030995FF91EF9198
:101E8000BF91AF919F918F917F916F915F914F9192
:101E90003F912F910F900FBE0F901F9018951F929A
:101EA0000F920FB60F9211242F933F938F939F930E
:101EB000AF93BF938091880390918903A0918A0387
:101EC000B0918B033091870323E0230F2D3720F44B
:101ED0000196A11DB11D05C026E8230F0296A11D84
:101EE000B11D209387038093880390938903A09367
:101EF0008A03B0938B0380918C0390918D03A09102
:101F00008E03B0918F030196A11DB11D80938C03A8
:101F100090938D03A0938E03B0938F03BF91AF91E5
:101F20009F918F913F912F910F900FBE0F901F9017
:101F300018952FB7F8946091880370918903809168
:101F40008A0390918B032FBF08953FB7F894809137
:101F50008C0390918D03A0918E03B0918F0326B5D1
:101F6000A89B05C02F3F19F00196A11DB11D3FBFD1
:101F70006627782F892F9A2F620F711D811D911D61
:101F800042E0660F771F881F991F4A95D1F7089581
:101F9000CF92DF92EF92FF92CF93DF936B017C01A0
:101FA0000E94A50FEB01C114D104E104F10479F002
:101FB0000E94A50F6C1B7D0B683E7340A0F381E06F
:101FC000C81AD108E108F108C851DC4FECCFDF9105
:101FD000CF91FF90EF90DF90CF90089501970097F9
:101FE00039F0880F991F880F991F02970197F1F711
:101FF0000895789484B5826084BD84B5816084BD81
:1020000085B5826085BD85B5816085BDEEE6F0E071
:10201000808181608083E1E8F0E0108280818260CD
:102020008083808181608083E0E8F0E0808181604E
:102030008083E1EBF0E0808184608083E0EBF0E07E
:10204000808181608083EAE7F0E080818460808322
:1020500080818260808380818160808380818068CC
:1020600080831092C10008958E3008F08E508770E2
:102070002091050190E4299F90011124822B8093E7
:102080007C0080917A00806480937A0080917A004D
:1020900086FDFCCF809178002091790090E0922B12
:1020A0000895833081F028F4813099F08230A1F0D6
:1020B00008958630A9F08730B9F08430D1F480914A
:1020C00080008F7D03C0809180008F778093800097
:1020D000089584B58F7702C084B58F7D84BD08953F
:1020E0008091B0008F7703C08091B0008F7D809386
:1020F000B0000895CF93DF9390E0FC01E458FF4FC8
:102100002491FC01E057FF4F8491882349F190E02E
:10211000880F991FFC01E854FF4FA591B491825597
:102120009F4FFC01C591D4919FB7611108C0F894ED
:102130008C91209582238C93888182230AC06230FF
:1021400051F4F8948C91322F309583238C938881AD
:10215000822B888304C0F8948C91822B8C939FBF30
:10216000DF91CF9108950F931F93CF93DF931F9229
:10217000CDB7DEB7282F30E0F901E859FF4F849141
:10218000F901E458FF4F1491F901E057FF4F049112
:102190000023C9F0882321F069830E9451106981CE
:1021A000E02FF0E0EE0FFF1FE255FF4FA591B49135
:1021B0009FB7F8948C91611103C01095812301C0E1
:1021C000812B8C939FBF0F90DF91CF911F910F9127
:1021D0000895CF93DF93282F30E0F901E859FF4F9E
:1021E0008491F901E458FF4FD491F901E057FF4F72
:1021F000C491CC2391F081110E945110EC2FF0E09A
:10220000EE0FFF1FEC55FF4FA591B4912C912D239C
:1022100081E090E021F480E002C080E090E0DF9176
:10222000CF910895CF92DF92EF92FF920F931F9379
:10223000CF93DF936C017A01EB01E60EF71E00E00D
:1022400010E0CE15DF0561F06991D601ED91FC91AA
:102250000190F081E02DC6010995080F191FF1CFFB
:10226000C801DF91CF911F910F91FF90EF90DF9008
:10227000CF9008956115710581F0DB010D9000206C
:10228000E9F7AD0141505109461B570BDC01ED91B7
:10229000FC910280F381E02D099480E090E00895A4
:1022A000AF92BF92CF92DF92EF92FF920F931F9364
:1022B000CF93DF937C016B01C0E0D0E000E010E041
:1022C000D60114968D919C911597C817D90788F45B
:1022D000D701ED91FC91A080B180BE01C6010E94A2
:1022E000C913682FC701F5010995080F191F219619
:1022F000E7CFC801DF91CF911F910F91FF90EF9031
:10230000DF90CF90BF90AF9008950C943A11DC010C
:10231000ED91FC910190F081E02D09940F931F93B2
:10232000CF93DF93EC016DE00E9487118C016AE08E
:10233000CE010E948711800F911FDF91CF911F91D5
:102340000F9108950F931F93CF93DF93EC010E9499
:102350003A118C01CE010E948E11800F911FDF91E6
:10236000CF911F910F9108958F929F92AF92BF923C
:10237000CF92DF92EF92FF920F931F93CF93DF9351
:10238000CDB7DEB7A1970FB6F894DEBF0FBECDBFB5
:102390007C01C42EE52FCB01D22E19A221E02D15F0
:1023A00010F02AE0D22E8E010F5D1F4F8D2C912C44
:1023B000A12CB12C6C2D7E2FA50194010E948E239F
:1023C0008C2DD29E80191124015011098A3014F4E9
:1023D000805D01C0895CF8018083211531054105CC
:1023E000510521F0C22EE32FCA01E4CFB801C70185
:1023F0000E943A11A1960FB6F894DEBF0FBECDBF72
:10240000DF91CF911F910F91FF90EF90DF90CF90D0
:10241000BF90AF909F908F900895CF92DF92EF92F0
:10242000FF920F931F93CF93DF93EC016A017B011F
:102430002115310579F4E881F9810190F081E02DD1
:10244000642FDF91CF911F910F91FF90EF90DF905C
:10245000CF9009942A303105E9F477FF1AC06DE274
:102460000E9487118C0144275527BA014C195D0938
:102470006E097F092AE0CE010E94B411800F911FDE
:10248000DF91CF911F910F91FF90EF90DF90CF9050
:1024900008952AE0B701A601CE01DF91CF911F91E7
:1024A0000F91FF90EF90DF90CF900C94B4114F926A
:1024B0005F926F927F928F929F92AF92BF92CF92D4
:1024C000DF92EF92FF920F931F93CF93DF93EC0174
:1024D0006A017B01B22E9A01AB01C701B6010E94CD
:1024E000D420882319F06AEE72E027C02601370154
:1024F000E89477F82FEF3FEF4FE75FE7C301B201B2
:102500000E94D42081110DC02FEF3FEF4FE75FE70E
:10251000C301B2010E941E1F18161CF46EEE72E079
:102520000CC02FEF3FEF4FE75FE4C701B6010E94F9
:102530006D201816ACF462EF72E0CE01DF91CF91FE
:102540001F910F91FF90EF90DF90CF90BF90AF90D1
:102550009F908F907F906F905F904F900C943A1166
:102560002FEF3FEF4FE75FECC701B6010E941E1F40
:1025700087FDE1CF20E030E0A901C701B6010E944C
:102580001E1F87FF0AC06DE2CE010E9487118C01D9
:10259000F7FAF094F7F8F09402C000E010E0A12CF4
:1025A00060E070E080E09FE3AB1441F020E030E0B9
:1025B00040E251E40E94221FA394F6CF9B01AC019C
:1025C000C701B6010E94BA1E6B017C010E948F1FD9
:1025D0002B013C010E94BB1F9B01AC01C701B6014E
:1025E0000E94B91E6B017C012AE0B301A201CE0159
:1025F0000E94B411080F191FBB2039F062E472E089
:10260000CE010E943A11080F191F7B2C772041F14F
:1026100020E030E040E251E4C701B6010E947120A1
:102620006B017C010E948A1F4B01AA2497FCA09495
:10263000BA2C2AE030E0B501A401CE010E940D12AF
:10264000080F191FC501B4010E94BD1F9B01AC01F9
:10265000C701B6010E94B91E6B017C017A94D6CFE6
:10266000C801DF91CF911F910F91FF90EF90DF9004
:10267000CF90BF90AF909F908F907F906F905F9022
:102680004F9008950C945712FC01808191810C9415
:10269000EA1BCF93DF93EC0188819981009711F0B9
:1026A0000E94EA1B198218821D821C821B821A82D8
:1026B000DF91CF9108950F931F93CF93DF93EC0198
:1026C0008B016F5F7F4F888199810E94691A009703
:1026D00031F0998388831B830A8381E001C080E005
:1026E000DF91CF911F910F910895CF93DF93EC016C
:1026F00088819981892B29F08A819B818617970788
:1027000060F4CE010E945B13882341F08C819D818F
:10271000892B19F4E881F981108281E0DF91CF9152
:102720000895EF92FF920F931F93CF93DF93EC01E5
:102730007B018A01BA010E947513811104C0CE0188
:102740000E94491307C01D830C83B70188819981BA
:102750000E94901ECE01DF91CF911F910F91FF90AB
:10276000EF900895FC01118210821382128215826B
:10277000148216826115710559F0FB010190002049
:10278000E9F7AF0141505109461B570B0C949113C7
:102790000895FC01248135816217730748F4808114
:1027A0009181009729F0FC01E60FF71F80810895C1
:1027B00080E008950E94F90F0E948D07C3EBD4E1D9
:1027C0000E9486092097E1F30E94B314F9CFFC011F
:1027D00024853585F901E05CFF4F80819181329637
:1027E00020813181821B930B8F7399270895FC01FF
:1027F00084859585FC01E05CFF4F408151813296D4
:10280000208131814217530741F00190F081E02D82
:10281000E80FF91F808190E008958FEF9FEF0895F2
:10282000FC0184859585FC01E05CFF4F408151816E
:102830003296208131814217530779F0A081B1810E
:10284000A80FB91F8C91208131812F5F3F4F2F73CB
:1028500033273183208390E008958FEF9FEF089511
:10286000FC0181A1882329F0A489B5898C9186FF78
:10287000FBCF11A20895CF93DF93FC012685378506
:10288000D901A05CBF4F8D919C91119701968F73D8
:102890009927E901CE5BDF4F48815981841795075D
:1028A000D9F30D90BC91A02DA20FB31F6C93A685F8
:1028B000B785A05CBF4F11969C938E93A689B7896C
:1028C0002C9181E090E0078C02C0880F991F0A9438
:1028D000E2F7282B2C9381E081A30488F589E02D71
:1028E00080818064808381E090E0DF91CF910895C2
:1028F00008951F920F920FB60F9211242F933F93BA
:102900004F938F939F93EF93FF938091C00082FD2D
:102910001CC04091C6008091360490913704019606
:102920008F739927209138043091390482179307C7
:1029300071F0E0913604F0913704EA50FC4F408387
:10294000909337048093360402C08091C600FF91B3
:10295000EF919F918F914F913F912F910F900FBECB
:102960000F901F90189580E993E00E94E713892B40
:1029700011F00C94781408951F920F920FB60F92D5
:1029800011242F933F938F939F93EF93FF93209165
:10299000F2033091F3038091F4039091F50328172B
:1029A000390731F48091C1008F7D8093C10014C03C
:1029B000E091F403F091F503EE54FC4F20818091F7
:1029C000F4039091F50301968F7399279093F50383
:1029D0008093F4032093C600FF91EF919F918F9114
:1029E0003F912F910F900FBE0F901F901895CF928F
:1029F000DF92EF92FF92CF93DF93EC016A017B01AC
:102A0000411581EE580761057105F9F0EC89FD89E2
:102A100081E090E008A002C0880F991F0A94E2F7B5
:102A2000808360E079E08DE390E0A70196010E9449
:102A30008E23215031094109510956954795379503
:102A40002795211580E1380798F0EC89FD891082DF
:102A500060E874E88EE190E0A70196010E948E2361
:102A600021503109410951095695479537952795C8
:102A7000E889F9893083EA89FB89208319A2EE89E4
:102A8000FF89408181E090E09C010C8C02C0220F04
:102A9000331F0A94E2F7422B4083EE89FF8940817D
:102AA0009C010D8C02C0220F331F0A94E2F7422BC7
:102AB0004083EE89FF8940819C010E8C02C0220F69
:102AC000331F0A94E2F7422B4083EE89FF8920816D
:102AD0000F8C02C0880F991F0A94E2F78095822319
:102AE0008083DF91CF91FF90EF90DF90CF9008959A
:102AF000109293031092920388EE93E0A0E0B0E06E
:102B00008093940390939503A0939603B0939703B7
:102B10008AEF92E0909391038093900386EF93E085
:102B200090939D0380939C0382EB93E090939F038B
:102B300080939E0385EC90E09093A1038093A00383
:102B400084EC90E09093A3038093A20380EC90E048
:102B50009093A5038093A40381EC90E09093A70346
:102B60008093A60382EC90E09093A9038093A8033E
:102B700086EC90E09093AB038093AA0384E080936B
:102B8000AC0383E08093AD0387E08093AE0385E0E0
:102B90008093AF0381E08093B0030895FC016683C6
:102BA0004783208781E085870895CF93DF93EC01E9
:102BB00060E08E810E947A1061E08E810E94B310E5
:102BC00019861A861B861C86DF91CF910895DF92A5
:102BD000EF92FF920F931F93CF93DF93EC0161E08D
:102BE0008E810E94B3106AEF70E080E090E00E9456
:102BF000C80F0E94990F09851A852B853C8560179F
:102C000071078207930720F419861A861B861C8693
:102C10002D85211111C009851A852B853C85DC0184
:102C2000CB01801B910BA20BB30B803D9740A105FC
:102C3000B10510F481E06FC01D860E94990F69876D
:102C40007A878B879C871C821B821A821982188242
:102C500061E08E810E947A1060E08E810E94B31044
:102C600064E170E080E090E00E94C80F61E08E8136
:102C70000E94B31088E290E00E94EE0F60E08E8127
:102C80000E947A10F12CD12C81E0E12C082F10E069
:102C90008E810E94E9108017910741F4E39481E04E
:102CA00090E00E94EE0F8FEFE812F2CF8E810E942B
:102CB000E9109FEFE916C9F023E02F1590F4F0FC1E
:102CC00010C09D2D969596959695FE01E90FF11DE4
:102CD0009081990F908328852E1510F49160908330
:102CE000D394F39495E5F912D0CF27E22D1590F403
:102CF0002C8130E04881898190E0840F911D4A81C8
:102D0000840F911D4B81840F911D99272817390736
:102D100009F490CF80E0DF91CF911F910F91FF9048
:102D2000EF90DF900895CF92DF92EF92FF920F9392
:102D30001F93CF93DF93EC01162F0E94E715882392
:102D400009F450C08F818B3031F008F44BC08551AD
:102D5000823078F047C06A8170E080E090E00E94A5
:102D6000BB1F112309F449C020E030E040E151E4E9
:102D70002AC00A81602F6F7770E080E090E00E94A7
:102D8000BD1F20E030E040E853E40E9471206B0159
:102D90007C016B8170E080E090E00E94BD1F9B0190
:102DA000AC01C701B6010E94BA1E20E030E040E24B
:102DB00051E40E94221F07FD9058112309F120E0E1
:102DC00030E040E151E40E94712020E030E040EA30
:102DD00050E40E94221F20E030E040E052E40E94D4
:102DE000BA1E0EC066E073E080E993E00E94851190
:102DF00020E030E040E050E005C09B01AC0102C0A3
:102E00009B01AC01B901CA01DF91CF911F910F91D4
:102E1000FF90EF90DF90CF900895CF92DF92EF92E6
:102E2000FF92CF93DF93EC010E94E715882379F19D
:102E30008F818B3029F158F18551823040F56881BE
:102E400070E080E090E00E94BB1F20E030E040E8AE
:102E500053E40E9471206B017C01698170E080E085
:102E600090E00E94BD1F9B01AC01C701B6010E940A
:102E7000BA1E20E030E040E251E40E94221F10C060
:102E8000688170E080E090E00E94BB1F09C066E0AE
:102E900073E080E993E00E94851160E070E0CB016F
:102EA000DF91CF91FF90EF90DF90CF900895DC01FC
:102EB000ED91FC910190F081E02D0994CF93C62F04
:102EC0006CE370E08BE394E00E94461A60E870E0E7
:102ED0008BE394E00E9457176C2F8BE394E00E94E1
:102EE000E3198BE394E0CF910C945B1ACF93DF93BB
:102EF000EC016EEA0E945E1765E070E080E090E011
:102F00000E94C80F6FEACE010E945E1765E070E074
:102F100080E090E00E94C80F66EACE01DF91CF9179
:102F20000C945E17CF93DF93EC0181E0888360E21D
:102F3000CE010E945E1762E0CE01DF91CF910C942A
:102F40005E171F93CF93DF93EC01142F60550E94FF
:102F50005E17612F660F660F660F6870CE010E94C4
:102F60005E1788E0189FB001112484E0759567957D
:102F70008A95E1F76F70605FCE01DF91CF911F916D
:102F80000C945E1766EA0C945E1767EA0C945E1761
:102F9000CF93C62F6CE370E08BE394E00E94461A57
:102FA00060E470E08BE394E00E9457176C2F8BE392
:102FB00094E00E94E3198BE394E0CF910C945B1AA8
:102FC000EF92FF920F931F93CF93DF937C0180EEDC
:102FD000860F803608F060E288E0689F8001112447
:102FE000C0E0D0E00E531040F801EC0FFD1F6491DB
:102FF000C7010E94C8172196C830D105A9F7DF91F3
:10300000CF911F910F91FF90EF9008950F931F9311
:10301000CF93DF93EC016EEA0E945E1710E040E070
:10302000612FCE010E94A11700E160E2CE010E9453
:10303000E0170150D1F71F5F183089F76FEACE0112
:103040000E945E1740E060E0CE01DF91CF911F91BA
:103050000F910C94A117FF920F931F93CF93DF93BF
:10306000EC018B01F12CF801EF0DF11D608166235D
:1030700029F0CE010E94E017F394F5CFDF91CF91B4
:103080001F910F91FF9008951F93CF93DF931F928D
:10309000CDB7DEB7162F60E670E08BE394E049838E
:1030A0000E94461A612F8BE394E00E94E319498144
:1030B000642F8BE394E00E94E3198BE394E00F907C
:1030C000DF91CF911F910C945B1ACF93DF93EC01AA
:1030D00040E068E00E94441840E069E0CE010E94B0
:1030E000441840E064E0CE010E94441840E065E0EE
:1030F000CE010E94441840E066E0CE010E944418D0
:1031000040E063E0CE010E9444184FEF61E2CE013F
:103110000E94441841E068E1CE010E9444186AE030
:1031200070E080E090E00E94C80F47E167E0CE01C8
:103130000E9444186AE070E080E090E0DF91CF9157
:103140000C94C80FCF93C62F60E670E08BE394E039
:103150000E94461A6C2F8BE394E00E94E3198BE3E4
:1031600094E00E945B1A41E050E060E670E08BE37F
:1031700094E00E94391A8BE394E00E949319CF9156
:1031800008951F93CF93DF93EC01162F67E10E9400
:103190004418412F406A68E1CE010E9444186EE253
:1031A000CE01DF91CF911F910C94A218CF93DF93A2
:1031B000EC0149E263E10E94441849E864E1CE0170
:1031C0000E94441842E065E1CE010E94441840E0AC
:1031D00066E1CE010E94441841EB61E0CE010E94FD
:1031E000C11843E067E0CE010E94C11843E06FE0E0
:1031F000CE010E94441841E062E0CE010E94C11855
:1032000040E06BE0CE010E94C11847E06AE0CE01C9
:103210000E94C11844E26CE0CE010E94C11840E057
:1032200061E1CE010E94C11847E060E1CE010E9439
:10323000C11840E262E1CE010E94C11840E06EE197
:10324000CE010E94C11847E06DE1CE010E94C11875
:1032500040E26FE1CE010E94C11841E063E0CE017F
:103260000E94441841E064E0CE010E9444184FEFF0
:1032700068E0CE010E9444184FE068E1CE01DF9182
:10328000CF910C944418CF93DF93EC018BE394E03F
:103290000E94221A60E0CE010E94A218853441F4F7
:1032A000CE010E946518CE010E94D61881E001C0AF
:1032B00080E0DF91CF910895CF93DF93C62F60E632
:1032C00070E08BE394E00E94461A6C2F8BE394E04D
:1032D0000E94E3198BE394E00E945B1A42E050E005
:1032E00060E670E08BE394E00E94391A8BE394E08F
:1032F0000E949319EC018BE394E00E94931920E063
:1033000030E0382FC9018C2B9D2BDF91CF91089590
:103310006CE20C945C1980916B0490E020916C0439
:10332000821B9109089520916C0480916B042817E9
:1033300050F4E22FF0E0E359FB4F808190E02F5FE3
:1033400020936C0408958FEF9FEF0895E0916C0433
:1033500080916B04E81730F4F0E0E359FB4F808173
:1033600090E008958FEF9FEF08950895CF92DF9238
:10337000EF92FF920F931F93CF93DF937C01CB01CA
:103380008A0120914704222389F0EB016B01C40ECE
:10339000D51ECC15DD0569F06991D701ED91FC9141
:1033A0000190F081E02DC7010995F3CF642F0E94B1
:1033B0002E1DC801DF91CF911F910F91FF90EF90CB
:1033C000DF90CF900895CF93DF931F92CDB7DEB7F4
:1033D0006983209147042223D1F0209148042032B0
:1033E00040F021E030E0FC013383228380E090E074
:1033F00015C080914904E82FF0E0E65BFB4F99810E
:1034000090838F5F809349048093480405C061E0F6
:10341000CE0101960E942E1D81E090E00F90DF9179
:10342000CF910895FC011382128248EE53E060E0D0
:1034300070E0448355836683778384E193E09183CE
:103440008083089510926C0410926B0410924904CA
:10345000109248040C94791C862F413208F040E207
:103460006DE674E00E94971C10926C0480936B04CC
:10347000089521E00C942C1A81E080934704609316
:103480006A04109249041092480408950C943C1A5E
:103490000F93062F21E0409148046AE474E0809184
:1034A0006A040E94DB1C1092490410924804109296
:1034B00047040F91089561E00C94481A8BE394E05F
:1034C0000C94121ACB010C94AA22CB01642F0C94F9
:1034D000B2226F927F928F929F92AF92BF92CF92C1
:1034E000DF92EF92FF920F931F93CF93DF93EC0144
:1034F000CB01209781F4DF91CF911F910F91FF9025
:10350000EF90DF90CF90BF90AF909F908F907F9083
:103510006F900C94521BFE01E60FF71F9E01225084
:103520003109E217F30708F4ACC0D9010D911C91E1
:10353000119706171707B8F00530110508F49FC05A
:10354000A801445051094617570708F498C0025083
:103550001109061B170B019311936D937C93CF01F7
:103560000E94EA1B8CC05B01A01AB10A4E01800EBA
:10357000911EA091FE04B091FF04612C712C60E0BB
:1035800070E0109709F449C0A815B905C9F5ED9088
:10359000FC901197670142E0C40ED11CCA14DB04F1
:1035A00078F147018A189B08640142E0C40ED11CDF
:1035B0001296BC9012971396AC91B5E0CB16D1043D
:1035C00040F0B282A38391828082D9018D939C9333
:1035D00009C00E5F1F4F0E0D1F1DF90111830083DF
:1035E000EB2DFA2F6115710531F0DB011396FC9379
:1035F000EE93129744C0F093FF04E093FE043FC0A3
:103600006D917C9111976616770608F43B01BD0118
:1036100012960D90BC91A02DB4CF6091FC047091D6
:10362000FD0468157905E9F468167906D0F440912F
:103630000601509107014115510541F44DB75EB7A0
:1036400060910A0170910B01461B570BE417F507B7
:10365000C0F4F093FD04E093FC04F90191838083AE
:103660000EC00E94521B7C01009759F0A801BE01B8
:103670000E94871ECE010E94EA1BC70104C0CE0132
:1036800002C080E090E0DF91CF911F910F91FF90F9
:10369000EF90DF90CF90BF90AF909F908F907F90F2
:1036A0006F900895CF93DF938230910510F482E0FC
:1036B00090E0E091FE04F091FF0420E030E0A0E013
:1036C000B0E0309739F14081518148175907B8F07F
:1036D0004817590771F482819381109729F0139646
:1036E0009C938E9312972CC09093FF048093FE04BA
:1036F00027C02115310531F04217530718F0A901F1
:10370000DB0101C0EF019A01BD01DF010280F381FD
:10371000E02DD7CF21153105F9F0281B390B2430C6
:10372000310580F48A819B816115710521F0FB01CF
:103730009383828304C09093FF048093FE04FE0170
:10374000329644C0FE01E20FF31F81939193225001
:103750003109398328833AC02091FC043091FD045B
:10376000232B41F420910801309109013093FD048D
:103770002093FC04209106013091070121153105A9
:1037800041F42DB73EB740910A0150910B01241B23
:10379000350BE091FC04F091FD04E217F307A0F46F
:1037A0002E1B3F0B2817390778F0AC014E5F5F4F97
:1037B0002417350748F04E0F5F1F5093FD044093C8
:1037C000FC048193919302C0E0E0F0E0CF01DF912F
:1037D000CF910895CF93DF93009709F487C0FC0140
:1037E000329713821282C091FE04D091FF04209779
:1037F00081F420813181280F391F8091FC04909140
:10380000FD048217930779F5F093FD04E093FC041F
:103810006DC0DE0120E030E0AE17BF0750F4129615
:103820004D915C9113979D014115510509F1DA0104
:10383000F3CFB383A28340815181840F951F8A17F0
:103840009B0771F48D919C911197840F951F02969F
:103850009183808312968D919C9113979383828399
:103860002115310529F4F093FF04E093FE043EC0D6
:10387000D9011396FC93EE9312974D915D91A40F8D
:10388000B51FEA17FB0779F480819181840F951F9A
:103890000296D90111969C938E93828193811396FF
:1038A0009C938E931297E0E0F0E08A819B810097D1
:1038B00019F0FE01EC01F9CFCE0102962881398181
:1038C000820F931F2091FC043091FD0428173907C3
:1038D00069F4309729F41092FF041092FE0402C09C
:1038E00013821282D093FD04C093FC04DF91CF9128
:1038F00008951092FB0481E08093F9041092F8047B
:1039000061E082E10E94B31061E083E10E94B310A4
:10391000E9EBF0E080818E7F808380818D7F8083E2
:1039200088E48093B80085E48093BC000895413218
:1039300008F03FC09091FB049111FCCF91E090936F
:10394000FB042093F9042FEF20938E041092D304EC
:10395000240F2093D2049093FA049091FA04880FD4
:10396000892B8093FA048091F804813041F41092FD
:10397000F8048091FA048093BB0085EC01C085EEC9
:103980008093BC008091FB048130E1F38091D304EB
:10399000841710F44091D30424ED34E0FB01D901E5
:1039A0008A2F821B841718F48D918193F9CF842F6D
:1039B000089580E008950F93413208F046C0909139
:1039C000FB049111FCCF92E09093FB040093F90467
:1039D0009FEF90938E041092D3044093D204FB0186
:1039E00064ED74E0DB019A2F961B941718F4919103
:1039F0009D93F9CF1092FA049091FA04880F892BC5
:103A00008093FA048091F804813041F41092F80414
:103A10008091FA048093BB0085EC01C085EE809311
:103A2000BC00222321F08091FB048230E1F38091DD
:103A30008E048F3F61F080918E04803251F080912E
:103A40008E04803341F483E007C081E005C080E04C
:103A500003C082E001C084E00F910895613298F4C0
:103A60002091FB04243089F46093B004FC0182EBC4
:103A700094E0DC012A2F281B261718F421912D939E
:103A8000F9CF80E0089581E0089582E0089585ED02
:103A90008093BC008091BC0084FDFCCF1092FB049D
:103AA000089585EC8093BC001092FB0408951F924A
:103AB0000F920FB60F9211242F933F934F935F9362
:103AC0006F937F938F939F93AF93BF93EF93FF93E6
:103AD0008091B900887F803609F49CC068F58832EF
:103AE00009F45BC090F4803109F454C038F48823A1
:103AF00009F4F5C0883009F44DC0F5C0883109F4E7
:103B00004CC0803209F45DC0EEC0803409F468C056
:103B100048F4803309F455C0883309F0E4C0809339
:103B20008E04A8C0803509F44FC0883509F45DC003
:103B3000883409F0D8C0D5C0883909F4C6C0A8F4C3
:103B4000883709F467C038F4883609F463C08037D1
:103B500009F460C0C8C0883809F4B7C0803909F4D6
:103B60005FC0803809F0BFC05BC0803B09F485C0EE
:103B700038F4803A09F466C0883A09F47EC0B3C0CC
:103B8000803C09F4A6C0883C09F4A3C0883B09F432
:103B900089C0A9C08091FA0410C09091D30480918B
:103BA000D204981770F5E091D30481E08E0F8093D2
:103BB000D304F0E0EC52FB4F80818093BB0085EC96
:103BC00085C080938E048DC0E091D30481E08E0F78
:103BD0008093D3048091BB00F0E0EC52FB4F8083D4
:103BE0009091D3048091D2046DC0E091D30481E020
:103BF0008E0F8093D3048091BB00F0E0EC52FB4F1A
:103C000080838091F90481116CC081E08093F80475
:103C100084EA60C083E08093FB0410928F04CFCFCE
:103C200080918F04803208F050C0E0918F0481E0D1
:103C30008E0F80938F048091BB00F0E0E057FB4F24
:103C40008083BDCF80918F04803230F4E0918F0467
:103C5000F0E0E057FB4F10820E94471D60918F04F7
:103C600070E0E091F404F091F50480E994E00995A6
:103C700010928F040E94511D36C084E08093FB0493
:103C80001092B1041092B004E091F604F091F704A0
:103C900009958091B004811105C081E08093B00442
:103CA0001092B204E091B10481E08E0F8093B104D0
:103CB000F0E0EE54FB4F80818093BB009091B10403
:103CC0008091B004981708F47ACF85E88093BC00FF
:103CD0000AC085EC8093BC001092FB0404C01092D3
:103CE0008E040E94471DFF91EF91BF91AF919F916C
:103CF0008F917F916F915F914F913F912F910F9095
:103D00000FBE0F901F901895F8940C94ED23FB01B3
:103D1000DC0102C001900D9241505040D8F7089547
:103D2000FB01DC0101900D920020E1F70895AEE067
:103D3000B0E0EDE9FEE10C94BE230D891E8986E01A
:103D40008C831A8309838FEF9FE79E838D83AE0157
:103D5000475E5F4F6F89788DCE0101960E94D82013
:103D6000EF81F885E00FF11F10822E96E4E00C94AD
:103D7000DA235058BB27AA270ED075C166D130F080
:103D80006BD120F031F49F3F11F41EF45BC10EF4AF
:103D9000E095E7FB51C1E92F77D180F3BA176207AD
:103DA00073078407950718F071F49EF58FC10EF420
:103DB000E0950B2EBA2FA02D0B01B90190010C013B
:103DC000CA01A0011124FF27591B99F0593F50F453
:103DD000503E68F11A16F040A22F232F342F4427AB
:103DE000585FF3CF469537952795A795F0405395A3
:103DF000C9F77EF41F16BA0B620B730B840BBAF073
:103E00009150A1F0FF0FBB1F661F771F881FC2F7DD
:103E10000EC0BA0F621F731F841F48F487957795F1
:103E20006795B795F7959E3F08F0B3CF9395880FA8
:103E300008F09927EE0F979587950895D9D008F443
:103E400081E008950CD00FC107D140F0FED030F0D2
:103E500021F45F3F19F0F0C0511139C1F3C014D102
:103E600098F39923C9F35523B1F3951B550BBB2741
:103E7000AA2762177307840738F09F5F5F4F220FEE
:103E8000331F441FAA1FA9F333D00E2E3AF0E0E8E7
:103E900030D091505040E695001CCAF729D0FE2F33
:103EA00027D0660F771F881FBB1F261737074807C5
:103EB000AB07B0E809F0BB0B802DBF01FF2793587B
:103EC0005F4F2AF09E3F510568F0B6C000C15F3FCA
:103ED000ECF3983EDCF3869577956795B795F79563
:103EE0009F5FC9F7880F911D9695879597F908955B
:103EF000E1E0660F771F881FBB1F621773078407F7
:103F0000BA0720F0621B730B840BBA0BEE1F88F705
:103F1000E095089504D06894B111D9C00895BCD03B
:103F200088F09F5790F0B92F9927B751A0F0D1F0A2
:103F3000660F771F881F991F1AF0BA95C9F712C02C
:103F4000B13081F0C3D0B1E00895C0C0672F782FA1
:103F50008827B85F39F0B93FCCF386957795679598
:103F6000B395D9F73EF490958095709561957F4F04
:103F70008F4F9F4F0895E89409C097FB3EF49095AA
:103F80008095709561957F4F8F4F9F4F9923A9F032
:103F9000F92F96E9BB279395F695879577956795C1
:103FA000B795F111F8CFFAF4BB0F11F460FF1BC005
:103FB0006F5F7F4F8F4F9F4F16C0882311F096E998
:103FC00011C0772321F09EE8872F762F05C0662346
:103FD00071F096E8862F70E060E02AF09A95660FFF
:103FE000771F881FDAF7880F9695879597F90895B8
:103FF000990F0008550FAA0BE0E8FEEF16161706FA
:10400000E807F907C0F012161306E407F50798F061
:10401000621B730B840B950B39F40A2661F0232B7A
:10402000242B252B21F408950A2609F4A140A695F6
:104030008FEF811D811D089597F99F6780E870E0DB
:1040400060E008959FEF80EC089500240A9416160E
:10405000170618060906089500240A941216130676
:10406000140605060895092E0394000C11F4882304
:1040700052F0BB0F40F4BF2B11F460FF04C06F5F20
:104080007F4F8F4F9F4F089557FD9058440F551FF6
:1040900059F05F3F71F04795880F97FB991F61F0CA
:1040A0009F3F79F087950895121613061406551F41
:1040B000F2CF4695F1DF08C0161617061806991FAD
:1040C000F1CF86957105610508940895E894BB27A2
:1040D00066277727CB0197F908958ADF08F48FEFD9
:1040E00008950BD0C0CFB1DF28F0B6DF18F09523CC
:1040F00009F0A2CFA7CF1124EACFC6DFA0F3959F86
:10410000D1F3950F50E0551F629FF001729FBB27BE
:10411000F00DB11D639FAA27F00DB11DAA1F649F6A
:104120006627B00DA11D661F829F2227B00DA11D1D
:10413000621F739FB00DA11D621F839FA00D611DA3
:10414000221F749F3327A00D611D231F849F600DC4
:10415000211D822F762F6A2F11249F5750408AF0FD
:10416000E1F088234AF0EE0FFF1FBB1F661F771F89
:10417000881F91505040A9F79E3F510570F05CCFC9
:10418000A6CF5F3FECF3983EDCF386957795679575
:10419000B795F795E7959F5FC1F7FE2B880F911DA7
:1041A0009695879597F9089523DF880B990B0895C5
:1041B000ACE0B0E0EEEDF0E20C94B0237C016B01DA
:1041C0008A01FC0117821682838181FFBDC1CE0165
:1041D00001964C01F7019381F60193FD859193FFC0
:1041E00081916F01882309F4ABC1853239F493FDC5
:1041F000859193FF81916F01853229F4B70190E099
:104200000E94D622E7CF512C312C20E02032A0F49E
:104210008B3269F030F4803259F0833269F42061D6
:104220002CC08D3239F0803339F4216026C02260F1
:10423000246023C0286021C027FD27C030ED380F3F
:104240003A3078F426FF06C0FAE05F9E300D112464
:10425000532E13C08AE0389E300D1124332E206275
:104260000CC08E3221F426FD6BC1206406C08C3652
:1042700011F4206802C0883641F4F60193FD85915F
:1042800093FF81916F018111C1CF982F9F7D95542C
:10429000933028F40C5F1F4FFFE3F9830DC0833682
:1042A00031F0833771F0833509F05BC022C0F8012B
:1042B000808189830E5F1F4F44244394512C540105
:1042C00015C03801F2E06F0E711CF801A080B180BA
:1042D00026FF03C0652D70E002C06FEF7FEFC501C0
:1042E0002C870E94CB222C0183012C852F77222E34
:1042F00017C03801F2E06F0E711CF801A080B18088
:1043000026FF03C0652D70E002C06FEF7FEFC5018F
:104310002C870E94C0222C012C852068222E83012C
:1043200023FC1BC0832D90E048165906B0F4B7015A
:1043300080E290E00E94D6223A94F4CFF50127FC67
:10434000859127FE81915F01B70190E00E94D622FE
:1043500031103A94F1E04F1A51084114510471F7A9
:10436000E5C0843611F0893639F5F80127FF07C01A
:1043700060817181828193810C5F1F4F08C06081D1
:104380007181882777FD8095982F0E5F1F4F2F76BC
:10439000B22E97FF09C090958095709561957F4FDB
:1043A0008F4F9F4F2068B22E2AE030E0A4010E9478
:1043B0000823A82EA81844C0853729F42F7EB22ED2
:1043C0002AE030E025C0F22FF97FBF2E8F36C1F0F2
:1043D00018F4883579F0B4C0803719F0883721F0A7
:1043E000AFC02F2F2061B22EB4FE0DC08B2D846084
:1043F000B82E09C024FF0AC09F2F9660B92E06C0B0
:1044000028E030E005C020E130E002C020E132E0E9
:10441000F801B7FE07C060817181828193810C5FD2
:104420001F4F06C06081718180E090E00E5F1F4FDA
:10443000A4010E940823A82EA818FB2DFF77BF2EE9
:10444000B6FE0BC02B2D2E7FA51450F4B4FE0AC06F
:10445000B2FC08C02B2D2E7E05C07A2C2B2D03C05C
:104460007A2C01C0752C24FF0DC0FE01EA0DF11D50
:104470008081803311F4297E09C022FF06C0739425
:10448000739404C0822F867809F0739423FD13C0BF
:1044900020FF06C05A2C731418F4530C5718732CB1
:1044A000731468F4B70180E290E02C870E94D62252
:1044B00073942C85F5CF731410F4371801C0312C88
:1044C00024FF12C0B70180E390E02C870E94D6221F
:1044D0002C8522FF17C021FF03C088E590E002C0B1
:1044E00088E790E0B7010CC0822F867859F021FD53
:1044F00002C080E201C08BE227FD8DE2B70190E0AF
:104500000E94D622A51438F4B70180E390E00E94FF
:10451000D6225A94F7CFAA94F401EA0DF11D8081B6
:10452000B70190E00E94D622A110F5CF332009F404
:1045300051CEB70180E290E00E94D6223A94F6CFA5
:10454000F7018681978102C08FEF9FEF2C96E2E101
:104550000C94CC23F999FECF92BD81BDF89A99278E
:1045600080B50895262FF999FECF1FBA92BD81BD5F
:1045700020BD0FB6F894FA9AF99A0FBE01960895E5
:10458000FC010590615070400110D8F7809590951E
:104590008E0F9F1F0895FC01615070400190011023
:1045A000D8F7809590958E0F9F1F08950F931F93B6
:1045B000CF93DF93182F092FEB018B8181FD03C06F
:1045C0008FEF9FEF20C082FF10C04E815F812C8152
:1045D0003D81421753077CF4E881F9819F012F5FE9
:1045E0003F4F39832883108306C0E885F985812FE2
:1045F0000995892B29F72E813F812F5F3F4F3F83FC
:104600002E83812F902FDF91CF911F910F910895CD
:10461000FA01AA27283051F1203181F1E8946F93F3
:104620006E7F6E5F7F4F8F4F9F4FAF4FB1E03ED099
:10463000B4E03CD0670F781F891F9A1FA11D680F37
:10464000791F8A1F911DA11D6A0F711D811D911D6A
:10465000A11D20D009F468943F912AE0269F1124DF
:104660003019305D3193DEF6CF010895462F477043
:10467000405D4193B3E00FD0C9F7F6CF462F4F709E
:10468000405D4A3318F0495D31FD4052419302D0FC
:10469000A9F7EACFB4E0A6959795879577956795A2
:1046A000BA95C9F700976105710508959B01AC01A2
:1046B0000A2E06945795479537952795BA95C9F7C9
:1046C000620F731F841F951FA01D0895AA1BBB1B9B
:1046D00051E107C0AA1FBB1FA617B70710F0A61B02
:1046E000B70B881F991F5A95A9F780959095BC0123
:1046F000CD01089597FB072E16F4009407D077FD9F
:1047000009D00E94662307FC05D03EF49095819560
:104710009F4F0895709561957F4F0895A1E21A2EDD
:10472000AA1BBB1BFD010DC0AA1FBB1FEE1FFF1F55
:10473000A217B307E407F50720F0A21BB30BE40BA5
:10474000F50B661F771F881F991F1A9469F76095EC
:104750007095809590959B01AC01BD01CF010895A6
:104760002F923F924F925F926F927F928F929F9281
:10477000AF92BF92CF92DF92EF92FF920F931F936F
:10478000CF93DF93CDB7DEB7CA1BDB0B0FB6F89420
:10479000DEBF0FBECDBF09942A88398848885F8460
:1047A0006E847D848C849B84AA84B984C884DF80D1
:1047B000EE80FD800C811B81AA81B981CE0FD11DB5
:1047C0000FB6F894DEBF0FBECDBFED010895EE0F1A
:0E47D000FF1F0590F491E02D0994F894FFCF9F
:1047DE000000C84204010000000580004D6F69739F
:1047EE00747572653A20002048756D696469747934
:1047FE003A20002054656D703A2000205556496EBF
:10480E006465783A2000555620496E646578002517
:10481E006400536166652056616C756500253264CF
:10482E000048756D69646974790025642E256425C8
:10483E0025003C20536166652056616C7565203CF1
:10484E00002532642E302525004C6F773C2D2D200F
:10485E002020202048696768004C6F772020202098
:10486E00202D2D3E486967680054656D7065726134
:10487E00747572650025642E25642A430025326402
:10488E002E302A43004D6F6973747572650025646E
:10489E002E30252500536D61727420506C616E743C
:1048AE002043617265005072657373204275747493
:1048BE006F6E20746F00737461727420776174650B
:1048CE0072696E67004D6F6973747572653A002573
:1048DE00642E2564252520005761746572566F6C11
:1048EE00756D6500566F6C756D65204C696D656EE6
:1048FE00002532642E25644C004068616B616E5F4A
:10490E00616B6B61733A2057617465722069732015
:10491E006F6E2E00466C6F77526174653A00566F5B
:10492E006C756D653A00537461727475702E20004B
:10493E0048616C6620686F7572207570646174656D
:10494E002E20005761726E696E67210048756D6981
:10495E006469747920204C6F770048756D696469BD
:10496E00747920486967680054656D7020204C6F1B
:10497E00770054656D702048696768005556202091
:10498E002048696768004E6F202057617465720079
:10499E00253264204C2F48002532642E30256420A9
:1049AE004C002532642E253264204C00446F6E6517
:1049BE00205761746572696E67006E616E00696E74
:1049CE0066006F766600000000003B141211E713BC
:1049DE001014F713301452656164206661696C001F
:1049EE0000000000E319B6198B199319A619B51911
:00000001FF
