:100000000C94E4010C94340E0C94610E0C940C02CC
:100010000C940C020C940C020C940C020C940C0228
:100020000C940C020C940C020C940C020C940C0218
:100030000C940C020C940C020C940C020C940C0208
:100040000C948E0E0C940C020C94ED120C94301344
:100050000C940C020C940C020C940C020C940C02E8
:100060000C94BB190C940C02000000070002010064
:100070000003040600000000000000000102040864
:100080001020408001020408102001020408102002
:10009000040404040404040402020202020203032E
:1000A00003030303000000002300260029000000D2
:1000B0000000250028002B0000000000240027007D
:1000C0002A00000000000000000000005F000000A7
:1000D0000000000007000700000000147F147F14D8
:1000E000000000242A7F2A12000000231308646203
:1000F00000000036495522500000000005030000B2
:100100000000001C2241000000000041221C0000F1
:10011000000000082A1C2A0800000008083E080801
:10012000000000A0600000000000000808080808A7
:1001300000000060600000000000002010080402C1
:100140000000003E5149453E00000000427F400053
:1001500000000062514949460000002241494936E9
:100160000000001814127F10000000274545453993
:100170000000003C4A4949300000000171090503B4
:100180000000003649494936000000064949291E49
:10019000000000003636000000000000AC6C0000DB
:1001A000000000081422410000000014141414146C
:1001B000000000412214080000000002015109065D
:1001C000000000324979413E0000007E0909097EA5
:1001D0000000007F494949360000003E414141226C
:1001E0000000007F4141221C0000007F4949494135
:1001F0000000007F090909010000003E41415172E1
:100200000000007F0808087F000000417F410000D7
:100210000000002040413F010000007F08142241FF
:100220000000007F404040400000007F020C027F41
:100230000000007F0408107F0000003E4141413E65
:100240000000007F090909060000003E4151215EBF
:100250000000007F0919294600000026494949325B
:1002600000000001017F01010000003F4040403FCD
:100270000000001F2040201F0000003F4038403F8A
:1002800000000063140814630000000304780403F2
:1002900000000061514945430000007F41410000DA
:1002A000000000020408102000000041417F00000F
:1002B00000000004020102040000008080808080B1
:1002C0000000000102040000000000205454547893
:1002D0000000007F484444380000003844442800AF
:1002E000000000384444487F00000038545454183B
:1002F000000000087E09020000000018A4A4A47CED
:100300000000007F08040478000000007D00000069
:1003100000000080847D00000000007F1028440061
:10032000000000417F4000000000007C04180478B9
:100330000000007C08047C000000003844443800C1
:10034000000000FC24241800000000182424FC00F5
:10035000000000007C080400000000485454240001
:10036000000000047F4400000000003C40407C008E
:100370000000001C2040201C0000003C4030403C9D
:1003800000000044281028440000001CA0A07C00AD
:100390000000004464544C44000000083641000052
:1003A000000000007F00000000000041360800004F
:1003B0000000000201010201000000020505020028
:1003C0000000F20DEC13D21811241FBECFEFD8E0BD
:1003D000DEBFCDBF12E0A0E0B1E0E4E9F0E402C08E
:1003E00005900D92AA3FB107D9F724E0AAEFB2E039
:1003F00001C01D92A23DB207E1F713E0C8ECD3E0C3
:1004000004C02297FE010E944420C23CD107C9F7D4
:100410000E944E120C94E81A0C94000082E00E9494
:100420002810892B71F46AE070E080E090E00E946F
:10043000070F82E00E942810892B19F481E0809335
:100440003E03089583E00E942810019709F56AE0B1
:1004500070E080E090E00E94070F83E00E94281087
:100460000197B1F480914303811112C081E0809320
:10047000430384E00E9428108130910529F4909371
:100480005603809355030895109256031092550316
:10049000089561E086E00C94F20F60E086E00C9431
:1004A000F20FCF93DF9366E071E08BEF92E00E9452
:1004B000EB1A44E061E080E194E00E9415166BEFD6
:1004C00072E080E194E00E949F16609119037091A0
:1004D0001A0380911B0390911C030E94E51B7F93DC
:1004E0006F938FE091E09F938F93CBEFD2E0DF93F8
:1004F000CF930E94F21A47E062E080E194E00E940C
:100500001516BE0180E194E00E949F1662E171E041
:10051000CE010E94EB1A43E065E080E194E00E9486
:100520001516BE0180E194E00E949F168091490358
:100530001F928F938DE191E09F938F93DF93CF93E1
:100540000E94F21A47E066E080E194E00E941516EE
:10055000BE0180E194E00E949F1682E00E94281074
:100560002DB73EB7245F3F4F0FB6F8943EBF0FBE86
:100570002DBF019721F5C0914303C13001F564E619
:1005800070E080E090E00E94070F10924303C09358
:100590003A038091550390915603209149030097A7
:1005A00021F0019729F42F5F01C0215020934903C6
:1005B00080914903803118F08FE080934903DF91E7
:1005C000CF910895CF92DF92EF92FF920F931F93F6
:1005D000CF93DF9361E271E08BEF92E00E94EB1A20
:1005E00044E061E080E194E00E9415166BEF72E058
:1005F00080E194E00E949F16C0902103D0902203D6
:10060000E0902303F090240320E030E048EC52E433
:10061000C701B6010E94CC1C0E94E51BCB0164E619
:1006200070E00E94D51F9F938F93C701B6010E946F
:10063000E51B7F936F938AE291E09F938F93CBEFBB
:10064000D2E0DF93CF930E94F21A46E062E080E1AD
:1006500094E00E941516BE0180E194E00E949F166E
:1006600062E371E0CE010E94EB1A42E065E080E1B6
:1006700094E00E941516BE0180E194E00E949F164E
:1006800080914B031F928F9301E411E01F930F930E
:10069000DF93CF930E94F21A40E067E080E194E09C
:1006A0000E941516BE0180E194E00E949F16809181
:1006B0004A031F928F931F930F93DF93CF930E9450
:1006C000F21A4AE067E080E194E00E941516BE014C
:1006D00080E194E00E949F168DB79EB744960FB6B6
:1006E000F8949EBF0FBE8DBF8091390381113EC02B
:1006F00069E471E0CE010E94EB1A41E066E080E11E
:1007000094E00E941516BE0180E194E00E949F16BD
:1007100082E00E942810019709F06BC0C09143034A
:10072000C13009F066C064E670E080E090E00E94AD
:10073000070F10924303C0933A03809155039091A1
:10074000560320914B03009721F0019729F42F5F66
:1007500001C0215020934B0380914A0390914B0399
:10076000891708F046C080934B0343C069E571E0E8
:100770008BEF92E00E94EB1A41E066E080E194E0AA
:100780000E9415166BEF72E080E194E00E949F16C4
:1007900082E00E942810019761F5C0914303C130A7
:1007A00041F564E670E080E090E00E94070F10924F
:1007B0004303C0933A0380915503909156032091CF
:1007C0004A03009721F0019729F42F5F01C02150BF
:1007D00020934A0380914A03853618F084E680937B
:1007E0004A0380914B0390914A03891710F080933C
:1007F0004A03DF91CF911F910F91FF90EF90DF900F
:10080000CF900895CF92DF92EF92FF920F931F93B4
:10081000CF93DF9369E671E08BEF92E00E94EB1AD1
:1008200042E061E080E194E00E9415166BEF72E017
:1008300080E194E00E949F16C0901D03D0901E039B
:10084000E0901F03F090200320E030E048EC52E4F9
:10085000C701B6010E94CC1C0E94E51BCB0164E6D7
:1008600070E00E94D51F9F938F93C701B6010E942D
:10087000E51B7F936F9385E791E09F938F93CBEF79
:10088000D2E0DF93CF930E94F21A45E062E080E16C
:1008900094E00E941516BE0180E194E00E949F162C
:1008A00062E371E0CE010E94EB1A42E065E080E174
:1008B00094E00E941516BE0180E194E00E949F160C
:1008C00080914D031F928F930DE711E01F930F93BB
:1008D000DF93CF930E94F21A40E067E080E194E05A
:1008E0000E941516BE0180E194E00E949F1680913F
:1008F0004C031F928F931F930F93DF93CF930E940C
:10090000F21A4AE067E080E194E00E941516BE0109
:1009100080E194E00E949F168DB79EB744960FB673
:10092000F8949EBF0FBE8DBF8091390381113EC0E8
:1009300069E471E0CE010E94EB1A41E066E080E1DB
:1009400094E00E941516BE0180E194E00E949F167B
:1009500082E00E942810019709F06BC0C091430308
:10096000C13009F066C064E670E080E090E00E946B
:10097000070F10924303C0933A038091550390915F
:10098000560320914D03009721F0019729F42F5F22
:1009900001C0215020934D0380914C0390914D0351
:1009A000891708F046C080934D0343C069E571E0A4
:1009B0008BEF92E00E94EB1A41E066E080E194E068
:1009C0000E9415166BEF72E080E194E00E949F1682
:1009D00082E00E942810019761F5C0914303C13065
:1009E00041F564E670E080E090E00E94070F10920D
:1009F0004303C0933A03809155039091560320918D
:100A00004C03009721F0019729F42F5F01C021507A
:100A100020934C0380914C03853618F084E6809334
:100A20004C0380914D0390914C03891710F08093F3
:100A30004C03DF91CF911F910F91FF90EF90DF90CA
:100A4000CF900895CF92DF92EF92FF92CF93DF93F2
:100A500065E871E08BEF92E00E94EB1A44E061E000
:100A600080E194E00E9415166BEF72E080E194E063
:100A70000E949F16C0900001D0900101E0900201F9
:100A8000F090030120E030E048EC52E4C701B601E9
:100A90000E94CC1C0E94E51BCB0164E670E00E9422
:100AA000D51F9F938F93C701B6010E94E51B7F93CB
:100AB0006F938AE291E09F938F93CBEFD2E0DF9325
:100AC000CF930E94F21A46E062E080E194E00E9437
:100AD0001516BE0180E194E00E949F1643E065E098
:100AE00080E194E00E94151662E171E080E194E0FB
:100AF0000E949F1680914E031F928F938EE891E083
:100B00009F938F93DF93CF930E94F21A46E066E0A3
:100B100080E194E00E941516BE0180E194E00E94FD
:100B20009F1682E00E9428102DB73EB7225F3F4FEC
:100B30000FB6F8943EBF0FBE2DBF0197A1F4C09130
:100B40004303C13081F464E670E080E090E00E94ED
:100B5000070F10924303C0933A0380914E038536EA
:100B600010F010924E03DF91CF91FF90EF90DF9045
:100B7000CF900895CF92DF92EF92FF9240E060E035
:100B800080E194E00E94151665E971E080E194E04F
:100B90000E949F1640E062E080E194E00E941516FA
:100BA00066EA71E080E194E00E949F1640E063E015
:100BB00080E194E00E94151666EB71E080E194E01C
:100BC0000E949F1665EC71E08BEF92E00E94EB1A99
:100BD00044E066E080E194E00E9415166BEF72E05D
:100BE00080E194E00E949F16C0900001D090010126
:100BF000E0900201F090030120E030E048EC52E484
:100C0000C701B6010E94CC1C0E94E51BCB0164E623
:100C100070E00E94D51F9F938F93C701B6010E9479
:100C2000E51B7F936F938FEC91E09F938F938BEFF6
:100C300092E09F938F930E94F21A46E067E080E172
:100C400094E00E9415168DB79EB708960FB6F894DB
:100C50009EBF0FBE8DBF6BEF72E080E194E0FF900E
:100C6000EF90DF90CF900C949F16CF92DF92EF928F
:100C7000FF921F93CF93DF9320E030E040E251E4F6
:100C800060914F03709150038091510390915203F2
:100C90000E94CC1C0E94EA1B6B017C01EB0168EDF9
:100CA00071E08BEF92E00E94EB1A43E062E080E19A
:100CB00094E00E9415166BEF72E080E194E00E94D0
:100CC0009F1642E065E080E194E00E94151664EE14
:100CD00071E080E194E00E949F16C6016AE070E036
:100CE0000E94C11F9F938F937F936F9381EF91E039
:100CF0009F938F938BEF92E09F938F930E94F21AB2
:100D000045E066E080E194E00E9415166BEF72E02A
:100D100080E194E00E949F1682E00E9428102DB787
:100D20003EB7285F3F4F0FB6F8943EBF0FBE2DBFB2
:100D3000019701F5109143031130E1F464E670E08E
:100D400080E090E00E94070F1092430310933A0353
:100D50008091550390915603009721F0019721F45B
:100D6000219602C0E6012197C93E33E0D30710F077
:100D7000C0E0D0E0BE0180E090E00E94161C20E0C0
:100D800030E040E251E40E947D1B60934F0370937A
:100D900050038093510390935203DF91CF911F91A1
:100DA000FF90EF90DF90CF90089510923D0380E187
:100DB00094E00E947A1683E090E090935803809329
:100DC00057030E94490269EF71E086E693E00E94B2
:100DD0008F104091000150910101609102017091CA
:100DE000030122E030E086E693E00E943A1269E1D6
:100DF00072E086E693E00E948F10409121035091AB
:100E00002203609123037091240322E030E086E600
:100E100093E00E943A1265E272E086E693E00E9457
:100E20008F1040911D0350911E0360911F0370911C
:100E3000200322E030E086E693E00E943A126DE261
:100E400072E086E693E00E948F1040911903509162
:100E50001A0360911B0370911C0322E030E086E6C8
:100E600093E00E943C1243E060E080E194E00E9445
:100E7000151668EB72E080E194E00E949F1640E056
:100E800062E080E194E00E94151668E372E080E180
:100E900094E00E949F1640E064E080E194E00E94AC
:100EA000151662E472E080E194E00E949F160E94B1
:100EB000D80E60933F037093400380934103909357
:100EC00042030895CF93DF9381E194E00E94961846
:100ED00080E194E00E94EA1584B1816284B985B111
:100EE000816285B980E194E00E947A1680E194E005
:100EF0000E94361680E194E00E94061640E855E212
:100F000060E070E086E693E00E946B1385E293E078
:100F10000E94491460E082E00E94B90F42E050E074
:100F20006EE072E080E00E94140E60E083E00E94B8
:100F3000B90F60E084E00E94B90F43E050E062E244
:100F400072E081E00E94140E83E393E00E94B717E1
:100F5000811107C068EE73E080E090E00E94070F07
:100F6000F3CF60E085E00E94B90F61E086E00E9467
:100F7000B90F6091380370E083E694E00E94D618C0
:100F8000609138038F3F09F090C070E040E083E645
:100F900094E00E94D91840914903609138036F5F33
:100FA0006093380370E083E694E00E94D918409182
:100FB0004A03609138036F5F6093380370E083E603
:100FC00094E00E94D91840914B03609138036F5F01
:100FD0006093380370E083E694E00E94D918409152
:100FE0004C03609138036F5F6093380370E083E6D1
:100FF00094E00E94D91840914D03609138036F5FCF
:101000006093380370E083E694E00E94D918409121
:101010004E03609138036F5F6093380370E083E69E
:1010200094E00E94D91820E030E048EC52E460914E
:101030004F037091500380915103909152030E948D
:10104000CC1C0E94E51BCFEFD0E0CB01BE010E947B
:10105000D51F462F809138038F5F80933803682F08
:1010600070E083E694E00E94D91820E030E048EC7C
:1010700052E460914F03709150038091510390911D
:1010800052030E94CC1C0E94E51BCB01BE010E94B2
:10109000D51F609138036F5F6093380370E0482F6D
:1010A00083E694E00E94D9185FC082E0860F8093A7
:1010B00038036F5F70E083E694E00E94D618809357
:1010C00049036091380381E0860F8093380370E014
:1010D00083E694E00E94D61880934A036091380317
:1010E00081E0860F8093380370E083E694E00E94ED
:1010F000D61880934B036091380381E0860F80936C
:10110000380370E083E694E00E94D61880934C0385
:101110006091380381E0860F8093380370E083E6A6
:1011200094E00E94D61880934D036091380381E0CB
:10113000860F8093380370E083E694E00E94D6180F
:1011400080934E036091380381E0860F80933803CB
:1011500070E083E694E00E94D6186091380370E056
:1011600083E694E00E94D61889E0809349038CE3DB
:1011700080934A0388E280934B039EE190934C0353
:101180009FE090934D0380934E038DEC9CECACE478
:10119000BEE380934F0390935003A0935103B09309
:1011A00052030E94D80E60933F03709340038093D4
:1011B00041039093420310925803109257031092E8
:1011C000540310925303DF91CF9108958F929F9211
:1011D000AF92BF92CF92DF92EF92FF92CF93DF93C5
:1011E00080915703909158038130910509F433C2DF
:1011F0001CF4892B49F0EBC48230910509F4E6C256
:10120000039709F4FDC2E3C40E94D80EC0903F03C7
:10121000D0904003E0904103F09042036C197D09A7
:101220008E099F09613177428105910508F4FDC05F
:101230000E94D80E60933F03709340038093410354
:101240009093420385E293E00E948115609321030D
:1012500070932203809323039093240360E085E23C
:1012600093E00E94071560931D0370931E03809303
:101270001F03909320038FE00E94730F67E070E0DC
:101280000E94D51F882777FD8095982F0E94181CF3
:101290006093000170930101809302019093030118
:1012A00083E393E00E94FC17BC0180E090E00E9481
:1012B000161C20E030E048EC52E40E947D1B20E048
:1012C00030E040E05FE30E94151B6B017C016093FE
:1012D000190370931A0380931B0390931C0320E05F
:1012E00030E048EC52E4609100017091010180917E
:1012F0000201909103010E94C81C181664F480E05A
:1013000090E0A8ECB2E48093000190930101A093D7
:101310000201B093030160914E0370E080E090E021
:101320000E94181C9B01AC016091000170910101A9
:1013300080910201909103010E94791B87FF03C0F5
:1013400081E080933D038090210390902203A09040
:101350002303B090240360914B0370E080E090E0A1
:101360000E94181C9B01AC01C501B4010E94791BAD
:1013700087FD0FC060914A0370E080E090E00E941A
:10138000181C9B01AC01C501B4010E94C81C1816B1
:101390001CF481E090E028C080901D0390901E0313
:1013A000A0901F03B090200360914C0370E080E098
:1013B00090E00E94181C9B01AC01C501B4010E9481
:1013C000C81C18167CF060914D0370E080E090E03E
:1013D0000E94181C9B01AC01C501B4010E94791B3D
:1013E00087FF07C082E090E09093540380935303FB
:1013F0001CC06091490370E080E090E00E94181CDE
:101400009B01AC01C701B6010E94C81C18161CF450
:1014100083E090E0E9CF80915303909154030497C7
:1014200021F0109254031092530380915303909132
:101430005403892B09F0F0C080914303813041F5BA
:1014400064E670E080E090E00E94070F1092430392
:10145000809155039091560320910401009721F04B
:10146000019729F42F5F01C021502093040180913E
:101470000401863014F0109204018091040187FF6A
:1014800003C085E08093040180E194E00E947A1615
:1014900080910401823099F03CF4882369F0813016
:1014A000B1F40E94E20213C0843079F05CF0853020
:1014B00071F40E9435060BC00E94220508C00E94EC
:1014C000020405C00E94510202C00E94BA05809128
:1014D0003A03813009F089C010923A0340914903E0
:1014E0008093380361E070E083E694E00E94D918AD
:1014F00040914A03609138036F5F6093380370E056
:1015000083E694E00E94D91840914B036091380320
:101510006F5F6093380370E083E694E00E94D9180F
:1015200040914C03609138036F5F6093380370E023
:1015300083E694E00E94D91840914D0360913803EE
:101540006F5F6093380370E083E694E00E94D918DF
:1015500040914E03609138036F5F6093380370E0F1
:1015600083E694E00E94D91820E030E048EC52E491
:1015700060914F03709150038091510390915203F9
:101580000E94CC1C0E94E51BCFEFD0E0CB01BE0136
:101590000E94D51F462F809138038F5F80933803B8
:1015A000682F70E083E694E00E94D91820E030E0D4
:1015B00048EC52E460914F037091500380915103C5
:1015C000909152030E94CC1C0E94E51BCB01BE01EE
:1015D0000E94D51F609138036F5F6093380370E0FD
:1015E000482F83E694E00E94D91880913E03813011
:1015F00009F580910401843011F40E94D506809190
:101600003903813019F41092390303C081E08093CB
:10161000390310923E030EC081E090E0909358038E
:101620008093570380E194E00E947A1680E194E071
:101630000E94391680913D03813009F0C8C2DF91C4
:10164000CF91FF90EF90DF90CF90BF90AF909F90A1
:101650008F900C94D50644E062E080E194E00E9413
:1016600015166AE472E080E194E00E949F16809172
:101670005303909154038230910589F11CF4019732
:1016800049F086C08330910509F452C0049709F4EB
:101690006DC07EC060914B0370E080E090E00E94DE
:1016A000181C9B01AC016091210370912203809171
:1016B0002303909124030E94791B42E065E087FF99
:1016C00007C080E194E00E94151663E572E024C033
:1016D00080E194E00E94151661E672E01DC0609101
:1016E0004D0370E080E090E00E94181C9B01AC016B
:1016F00060911D0370911E0380911F039091200340
:101700000E94791B43E065E087FF0BC080E194E015
:101710000E9415166FE672E080E194E00E949F1629
:1017200037C080E194E00E94151669E772E0F4CFBB
:101730006091490370E080E090E00E94181C9B01DA
:10174000AC0160911D0370911E0380911F03909165
:1017500020030E94C81C1816DCF444E065E080E118
:1017600094E00E94151663E872E0D6CF43E065E08E
:1017700080E194E00E9415166DE872E080E194E04B
:101780000E949F1680913E03813011F410923E0317
:1017900068EE73E080E090E00E94070F109258031B
:1017A0001092570380913E03813009F010C21092CD
:1017B00054031092530310923E0380E194E00E9480
:1017C0007A1680E194E00E9436160FC080913E03A5
:1017D000813009F0FCC110923E0383E090E09093C9
:1017E0005803809357030E9449020E94D80E6093C9
:1017F0003F03709340038093410390934203E7C1FA
:1018000010923C0380E194E00E94361685E00E942D
:1018100028100197B1F485E00E9428100197B9F4CF
:1018200080914803811113C081E080934803809127
:10183000440390914503019690934503809344039C
:1018400006C080914803813011F4109248030E9431
:10185000D80EC0903F03D0904003E0904103F09039
:1018600042036C197D098E099F09693E7340810509
:10187000910508F441C120914403309145034CE3A4
:10188000429FC001439F900D112469E470E00E94C3
:10189000C11FEB0160934603D0934703B90180E079
:1018A00090E00E94161C20E030E042E952E40E94E1
:1018B0007D1B20E030E040E752E40E947D1B6B017D
:1018C0007C012AE037ED43EA5BE30E94791B87FF46
:1018D00019C08091FA02833024F48F5F8093FA025A
:1018E0000EC01092FA0284E090E09093540380932B
:1018F000530381E080933C0383E080930401A701BC
:10190000960112C01092FA021092540310925303DF
:1019100010923C032AE037ED43EA5BE3C701B601CE
:101920000E94151B9B01AC0160913403709135033B
:1019300080913603909137030E94151B6093340306
:1019400070933503809336039093370310924503C9
:1019500010924403DF93CF9387E992E09F938F9394
:10196000CBEFD2E0DF93CF930E94F21A4AE062E01D
:1019700080E194E00E941516BE0180E194E00E948F
:101980009F16C0903403D0903503E0903603F0905A
:10199000370320E030E048EC52E4C701B6010E9472
:1019A000CC1C0E94E51BCB0164E670E00E94D51FB1
:1019B0000F900F900F900F900F900F908A3091051D
:1019C000CCF49F938F93C701B6010E94E51B7F93D0
:1019D0006F938FE992E09F938F93DF93CF930E9451
:1019E000F21A8DB79EB708960FB6F8949EBF0FBE39
:1019F0008DBF18C09F938F93C701B6010E94E51B4E
:101A00007F936F9389EA92E09F938F93DF93CF93B5
:101A10000E94F21A8DB79EB708960FB6F8949EBF33
:101A20000FBE8DBF48E064E080E194E00E9415168F
:101A30006BEF72E080E194E00E949F16C09000017D
:101A4000D0900101E0900201F090030120E030E02D
:101A500048EC52E4C701B6010E94CC1C0E94E51B71
:101A6000CB0164E670E00E94D51F9F938F93C7015E
:101A7000B6010E94E51B7F936F938AE291E09F93EA
:101A80008F938BEF92E09F938F930E94F21A46E020
:101A900066E080E194E00E9415166BEF72E080E151
:101AA00094E00E949F168DB79EB708960FB6F894E3
:101AB0009EBF0FBE8DBF20914F03309150034091C8
:101AC000510350915203609134037091350380911A
:101AD0003603909137030E94C81C87FD03C081E044
:101AE00080933B030E94D80E60933F0370934003A2
:101AF000809341039093420380913E03813021F40F
:101B000010923E0380933B0380913B038130A9F503
:101B1000109234031092350310923603109237035B
:101B200010925803109257030E944D0280E194E0F6
:101B30000E947A1642E064E080E194E00E9415166B
:101B400063EB72E080E194E00E949F1610923B03E9
:101B500010923E0383E08093040160E177E280E02D
:101B600090E00E94070F0E94D80E60933F0370938D
:101B70004003809341039093420380913C03813062
:101B800031F51092340310923503109236031092FF
:101B9000370310923C0381E090E0909358038093C8
:101BA00057030E94D80E60933F03709340038093C5
:101BB0004103909342030E944D0280E194E00E9411
:101BC0007A1680E194E00E94391610923E03DF916C
:101BD000CF91FF90EF90DF90CF90BF90AF909F900C
:101BE0008F90089589E0809349038CE380934A03A2
:101BF00010924B038EE180934C0310924D03109290
:101C00004E038DEC9CECACE4BEE380934F039093C9
:101C10005003A0935103B093520326E04BE06EE0D3
:101C200085E293E00C9442148230E8F4E82FF0E06F
:101C3000EE0FFF1FE75AFC4F71836083813041F044
:101C4000809169008C7F842B80936900E89A0895C5
:101C500080916900440F551F440F551F837F842BCB
:101C600080936900E99A08951F920F920FB60F9220
:101C700011242F933F934F935F936F937F938F9391
:101C80009F93AF93BF93EF93FF93809159039091EC
:101C90005A03892B29F0E0915903F0915A030995D1
:101CA000FF91EF91BF91AF919F918F917F916F9134
:101CB0005F914F913F912F910F900FBE0F901F900A
:101CC00018951F920F920FB60F9211242F933F93E6
:101CD0004F935F936F937F938F939F93AF93BF9334
:101CE000EF93FF9380915B0390915C03892B29F024
:101CF000E0915B03F0915C030995FF91EF91BF9137
:101D0000AF919F918F917F916F915F914F913F9193
:101D10002F910F900FBE0F901F9018951F920F924A
:101D20000FB60F9211242F933F938F939F93AF93EE
:101D3000BF9380915E0390915F03A0916003B09187
:101D4000610330915D0323E0230F2D3720F40196CA
:101D5000A11DB11D05C026E8230F0296A11DB11DCE
:101D600020935D0380935E0390935F03A0936003D1
:101D7000B09361038091620390916303A091640327
:101D8000B09165030196A11DB11D809362039093EC
:101D90006303A0936403B0936503BF91AF919F91D8
:101DA0008F913F912F910F900FBE0F901F9018951C
:101DB0002FB7F89460915E0370915F038091600388
:101DC000909161032FBF08953FB7F894809162030B
:101DD00090916303A0916403B091650326B5A89B1D
:101DE00005C02F3F19F00196A11DB11D3FBF662709
:101DF000782F892F9A2F620F711D811D911D42E04E
:101E0000660F771F881F991F4A95D1F70895CF92C3
:101E1000DF92EF92FF92CF93DF936B017C010E94E0
:101E2000E40EEB01C114D104E104F10479F00E9445
:101E3000E40E6C1B7D0B683E7340A0F381E0C81A72
:101E4000D108E108F108C851DC4FECCFDF91CF9108
:101E5000FF90EF90DF90CF9008950197009739F0B1
:101E6000880F991F880F991F02970197F1F708951E
:101E7000789484B5826084BD84B5816084BD85B565
:101E8000826085BD85B5816085BDEEE6F0E080812C
:101E900081608083E1E8F0E010828081826080834D
:101EA000808181608083E0E8F0E0808181608083D0
:101EB000E1EBF0E0808184608083E0EBF0E0808102
:101EC00081608083EAE7F0E08081846080838081A4
:101ED000826080838081816080838081806880834C
:101EE0001092C10008958E3008F08E5087702091B6
:101EF000050190E4299F90011124822B80937C009E
:101F000080917A00806480937A0080917A0086FDC7
:101F1000FCCF809178002091790090E0922B089579
:101F2000833081F028F4813099F08230A1F0089557
:101F30008630A9F08730B9F08430D1F480918000E8
:101F40008F7D03C0809180008F77809380000895FB
:101F500084B58F7702C084B58F7D84BD089580914C
:101F6000B0008F7703C08091B0008F7D8093B00068
:101F70000895CF93DF9390E0FC01E458FF4F249144
:101F8000FC01E057FF4F8491882349F190E0880FCE
:101F9000991FFC01E854FF4FA591B49182559F4FC2
:101FA000FC01C591D4919FB7611108C0F8948C9140
:101FB000209582238C93888182230AC0623051F459
:101FC000F8948C91322F309583238C938881822BC7
:101FD000888304C0F8948C91822B8C939FBFDF91EF
:101FE000CF9108950F931F93CF93DF931F92CDB797
:101FF000DEB7282F30E0F901E859FF4F8491F9014D
:10200000E458FF4F1491F901E057FF4F049100236A
:10201000C9F0882321F069830E94900F6981E02F25
:10202000F0E0EE0FFF1FE255FF4FA591B4919FB76F
:10203000F8948C91611103C01095812301C0812B0C
:102040008C939FBF0F90DF91CF911F910F910895B7
:10205000CF93DF93282F30E0F901E859FF4F8491A7
:10206000F901E458FF4FD491F901E057FF4FC491B3
:10207000CC2391F081110E94900FEC2FF0E0EE0F35
:10208000FF1FEC55FF4FA591B4912C912D2381E0BA
:1020900090E021F480E002C080E090E0DF91CF91F9
:1020A0000895CF92DF92EF92FF920F931F93CF93F9
:1020B000DF936C017A01EB01E60EF71E00E010E001
:1020C000CE15DF0561F06991D601ED91FC9101908B
:1020D000F081E02DC6010995080F191FF1CFC80145
:1020E000DF91CF911F910F91FF90EF90DF90CF90F4
:1020F00008956115710581F0DB010D900020E9F76D
:10210000AD0141505109461B570BDC01ED91FC918B
:102110000280F381E02D099480E090E008950C9412
:102120007910DC01ED91FC910190F081E02D099492
:102130000F931F93CF93DF93EC016DE00E949110FA
:102140008C016AE0CE010E949110800F911FDF91F7
:10215000CF911F910F9108958F929F92AF92BF924E
:10216000CF92DF92EF92FF920F931F93CF93DF9363
:10217000CDB7DEB7A1970FB6F894DEBF0FBECDBFC7
:102180007C01C42EE52FCB01D22E19A221E02D1502
:1021900010F02AE0D22E8E010F5D1F4F8D2C912C56
:1021A000A12CB12C6C2D7E2FA50194010E94E91F5A
:1021B0008C2DD29E80191124015011098A3014F4FB
:1021C000805D01C0895CF8018083211531054105DE
:1021D000510521F0C22EE32FCA01E4CFB801C70197
:1021E0000E947910A1960FB6F894DEBF0FBECDBF46
:1021F000DF91CF911F910F91FF90EF90DF90CF90E3
:10220000BF90AF909F908F900895CF92DF92EF9202
:10221000FF920F931F93CF93DF93EC016A017B0131
:102220002115310579F4E881F9810190F081E02DE3
:10223000642FDF91CF911F910F91FF90EF90DF906E
:10224000CF9009942A303105E9F477FF1AC06DE286
:102250000E9491108C0144275527BA014C195D0941
:102260006E097F092AE0CE010E94AC10800F911FF9
:10227000DF91CF911F910F91FF90EF90DF90CF9062
:1022800008952AE0B701A601CE01DF91CF911F91F9
:102290000F91FF90EF90DF90CF900C94AC104F9285
:1022A0005F926F927F928F929F92AF92BF92CF92E6
:1022B000DF92EF92FF920F931F93CF93DF93EC0186
:1022C0006A017B01B22E9A01AB01C701B6010E94DF
:1022D0002F1D882319F061EC72E027C02601370119
:1022E000E89477F82FEF3FEF4FE75FE7C301B201C4
:1022F0000E942F1D81110DC02FEF3FEF4FE75FE7C9
:10230000C301B2010E94791B18161CF465EC72E03F
:102310000CC02FEF3FEF4FE75FE4C701B6010E940B
:10232000C81C1816ACF469EC72E0CE01DF91CF91B5
:102330001F910F91FF90EF90DF90CF90BF90AF90E3
:102340009F908F907F906F905F904F900C9479103A
:102350002FEF3FEF4FE75FECC701B6010E94791BFB
:1023600087FDE1CF20E030E0A901C701B6010E945E
:10237000791B87FF0AC06DE2CE010E9491108C018B
:10238000F7FAF094F7F8F09402C000E010E0A12C06
:1023900060E070E080E09FE3AB1441F020E030E0CB
:1023A00040E251E40E947D1BA394F6CF9B01AC0157
:1023B000C701B6010E94151B6B017C010E94EA1B3C
:1023C0002B013C010E94161C9B01AC01C701B60108
:1023D0000E94141B6B017C012AE0B301A201CE0113
:1023E0000E94AC10080F191FBB2039F06DEC72E091
:1023F000CE010E947910080F191F7B2C772041F124
:1024000020E030E040E251E4C701B6010E94CC1C5C
:102410006B017C010E94E51B4B01AA2497FCA09450
:10242000BA2C2AE030E0B501A401CE010E940511CA
:10243000080F191FC501B4010E94181C9B01AC01B3
:10244000C701B6010E94141B6B017C017A94D6CFA0
:10245000C801DF91CF911F910F91FF90EF90DF9016
:10246000CF90BF90AF909F908F907F906F905F9034
:102470004F9008950C944F110F931F93CF93DF93B8
:10248000EC010E944F118C01CE010E949810800F28
:10249000911FDF91CF911F910F9108950E94380FE6
:1024A0000E946207C7E2D3E10E94E6082097E1F3A9
:1024B0000E942713F9CFFC0124853585F901E05CE2
:1024C000FF4F80819181329620813181821B930B55
:1024D0008F7399270895FC0184859585FC01E05C44
:1024E000FF4F40815181329620813181421753073D
:1024F00041F00190F081E02DE80FF91F808190E01C
:1025000008958FEF9FEF0895FC0184859585FC0168
:10251000E05CFF4F4081518132962081318142172A
:10252000530779F0A081B181A80FB91F8C91208148
:1025300031812F5F3F4F2F7333273183208390E00A
:1025400008958FEF9FEF0895FC0181A1882329F062
:10255000A489B5898C9186FFFBCF11A20895CF93F2
:10256000DF93FC0126853785D901A05CBF4F8D9193
:102570009C91119701968F739927E901CE5BDF4FEC
:102580004881598184179507D9F30D90BC91A02DEE
:10259000A20FB31F6C93A685B785A05CBF4F1196A1
:1025A0009C938E93A689B7892C9181E090E0078C4B
:1025B00002C0880F991F0A94E2F7282B2C9381E020
:1025C00081A30488F589E02D80818064808381E087
:1025D00090E0DF91CF91089508951F920F920FB66A
:1025E0000F9211242F933F934F938F939F93EF93C9
:1025F000FF938091C00082FD1CC04091C600809175
:102600000C0490910D0401968F73992720910E046C
:1026100030910F048217930771F0E0910C04F09150
:102620000D04E453FC4F408390930D0480930C04FD
:1026300002C08091C600FF91EF919F918F914F91C1
:102640003F912F910F900FBE0F901F90189586E627
:1026500093E00E945B12892B11F00C94EC12089508
:102660001F920F920FB60F9211242F933F938F93C7
:102670009F93EF93FF932091C8033091C9038091FA
:10268000CA039091CB032817390731F48091C10018
:102690008F7D8093C10014C0E091CA03F091CB03F9
:1026A000E857FC4F20818091CA039091CB0301969B
:1026B0008F7399279093CB038093CA032093C6000E
:1026C000FF91EF919F918F913F912F910F900FBEAE
:1026D0000F901F901895CF92DF92EF92FF92CF93B9
:1026E000DF93EC016A017B01411581EE580761051A
:1026F0007105F9F0EC89FD8981E090E008A002C045
:10270000880F991F0A94E2F7808360E079E08DE3F7
:1027100090E0A70196010E94E91F2150310941096B
:1027200051095695479537952795211580E138072A
:1027300098F0EC89FD89108260E874E88EE190E001
:10274000A70196010E94E91F215031094109510951
:102750005695479537952795E889F9893083EA8911
:10276000FB89208319A2EE89FF89408181E090E0F6
:102770009C010C8C02C0220F331F0A94E2F7422BFB
:102780004083EE89FF8940819C010D8C02C0220F9D
:10279000331F0A94E2F7422B4083EE89FF89408180
:1027A0009C010E8C02C0220F331F0A94E2F7422BC9
:1027B0004083EE89FF8920810F8C02C0880F991F0A
:1027C0000A94E2F7809582238083DF91CF91FF9076
:1027D000EF90DF90CF9008951092690310926803F4
:1027E00088EE93E0A0E0B0E080936A0390936B03DF
:1027F000A0936C03B0936D0383ED92E09093670315
:10280000809366038CEC93E0909373038093720340
:1028100088E893E0909375038093740385EC90E0CF
:10282000909377038093760384EC90E09093790300
:102830008093780380EC90E090937B0380937A03FD
:1028400081EC90E090937D0380937C0382EC90E098
:1028500090937F0380937E0386EC90E090938103B6
:102860008093800384E08093820383E080938303DA
:1028700087E08093840385E08093850381E08093E3
:1028800086030895FC0166834783208781E085875E
:102890000895CF93DF93EC0160E08E810E94B90F21
:1028A00061E08E810E94F20F19861A861B861C86B3
:1028B000DF91CF910895DF92EF92FF920F931F93D4
:1028C000CF93DF93EC0161E08E810E94F20F6AEFFB
:1028D00070E080E090E00E94070F0E94D80E09850A
:1028E0001A852B853C85601771078207930720F4B2
:1028F00019861A861B861C862D85211111C0098513
:102900001A852B853C85DC01CB01801B910BA20B2A
:10291000B30B803D9740A105B10510F481E06FC075
:102920001D860E94D80E69877A878B879C871C82B8
:102930001B821A821982188261E08E810E94B90F6F
:1029400060E08E810E94F20F64E170E080E090E030
:102950000E94070F61E08E810E94F20F88E290E0F2
:102960000E942D0F60E08E810E94B90FF12CD12CB6
:1029700081E0E12C082F10E08E810E942810801742
:10298000910741F4E39481E090E00E942D0F8FEFD6
:10299000E812F2CF8E810E9428109FEFE916C9F04D
:1029A00023E02F1590F4F0FC10C09D2D9695969580
:1029B0009695FE01E90FF11D9081990F908328856E
:1029C0002E1510F491609083D394F39495E5F91249
:1029D000D0CF27E22D1590F42C8130E048818981F9
:1029E00090E0840F911D4A81840F911D4B81840FCB
:1029F000911D99272817390709F490CF80E0DF91BE
:102A0000CF911F910F91FF90EF90DF900895CF929B
:102A1000DF92EF92FF920F931F93CF93DF93EC011E
:102A2000162F0E945B14882309F450C08F818B30CD
:102A300031F008F44BC08551823078F047C06A818C
:102A400070E080E090E00E94161C112309F449C058
:102A500020E030E040E151E42AC00A81602F6F7726
:102A600070E080E090E00E94181C20E030E040E838
:102A700053E40E94CC1C6B017C016B8170E080E010
:102A800090E00E94181C9B01AC01C701B6010E9496
:102A9000151B20E030E040E251E40E947D1B07FD61
:102AA0009058112309F120E030E040E151E40E9408
:102AB000CC1C20E030E040EA50E40E947D1B20E086
:102AC00030E040E052E40E94151B0EC06FED72E052
:102AD00086E693E00E948F1020E030E040E050E076
:102AE00005C09B01AC0102C09B01AC01B901CA0148
:102AF000DF91CF911F910F91FF90EF90DF90CF90DA
:102B00000895CF92DF92EF92FF92CF93DF93EC0183
:102B10000E945B14882379F18F818B3029F158F161
:102B20008551823040F5688170E080E090E00E943D
:102B3000161C20E030E040E853E40E94CC1C6B01FE
:102B40007C01698170E080E090E00E94181C9B018C
:102B5000AC01C701B6010E94151B20E030E040E245
:102B600051E40E947D1B10C0688170E080E090E01D
:102B70000E94161C09C06FED72E086E693E00E9489
:102B80008F1060E070E0CB01DF91CF91FF90EF906C
:102B9000DF90CF900895DC01ED91FC910190F081E0
:102BA000E02D0994CF93C62F6CE370E081E194E0AF
:102BB0000E94BA1860E870E081E194E00E94CB15B1
:102BC0006C2F81E194E00E94571881E194E0CF914D
:102BD0000C94CF18CF93DF93EC016EEA0E94D215CC
:102BE00065E070E080E090E00E94070F6FEACE01A0
:102BF0000E94D21565E070E080E090E00E94070F2F
:102C000066EACE01DF91CF910C94D215CF93DF937A
:102C1000EC0181E0888360E2CE010E94D21562E07F
:102C2000CE01DF91CF910C94D2151F93CF93DF93F8
:102C3000EC01142F60550E94D215612F660F660FAC
:102C4000660F6870CE010E94D21588E0189FB0010F
:102C5000112484E0759567958A95E1F76F70605F40
:102C6000CE01DF91CF911F910C94D21566EA0C949E
:102C7000D21567EA0C94D215CF93C62F6CE370E09F
:102C800081E194E00E94BA1860E470E081E194E090
:102C90000E94CB156C2F81E194E00E94571881E1CE
:102CA00094E0CF910C94CF18EF92FF920F931F9363
:102CB000CF93DF937C0180EE860F803608F060E2D0
:102CC00088E0689F80011124C0E0D0E00E531040DE
:102CD000F801EC0FFD1F6491C7010E943C1621967C
:102CE000C830D105A9F7DF91CF911F910F91FF90C7
:102CF000EF9008950F931F93CF93DF93EC016EEA4B
:102D00000E94D21510E040E0612FCE010E941516FE
:102D100000E160E2CE010E9454160150D1F71F5F1E
:102D2000183089F76FEACE010E94D21540E060E0CA
:102D3000CE01DF91CF911F910F910C941516FF9248
:102D40000F931F93CF93DF93EC018B01F12CF801CC
:102D5000EF0DF11D6081662329F0CE010E9454160B
:102D6000F394F5CFDF91CF911F910F91FF900895CC
:102D70001F93CF93DF931F92CDB7DEB7162F60E678
:102D800070E081E194E049830E94BA18612F81E1EB
:102D900094E00E9457184981642F81E194E00E94D9
:102DA000571881E194E00F90DF91CF911F910C941F
:102DB000CF18CF93DF93EC0140E068E00E94B81693
:102DC00040E069E0CE010E94B81640E064E0CE0128
:102DD0000E94B81640E065E0CE010E94B81640E0BF
:102DE00066E0CE010E94B81640E063E0CE010E948A
:102DF000B8164FEF61E2CE010E94B81641E068E1DB
:102E0000CE010E94B8166AE070E080E090E00E9477
:102E1000070F47E167E0CE010E94B8166AE070E054
:102E200080E090E0DF91CF910C94070FCF93C62FF5
:102E300060E670E081E194E00E94BA186C2F81E1B5
:102E400094E00E94571881E194E00E94CF1841E07D
:102E500050E060E670E081E194E00E94AD1881E10D
:102E600094E00E940718CF9108951F93CF93DF93AA
:102E7000EC01162F67E10E94B816412F406A68E105
:102E8000CE010E94B8166EE2CE01DF91CF911F9164
:102E90000C941617CF93DF93EC0149E263E10E9493
:102EA000B81649E864E1CE010E94B81642E065E137
:102EB000CE010E94B81640E066E1CE010E94B8162D
:102EC00041EB61E0CE010E94351743E067E0CE019F
:102ED0000E94351743E06FE0CE010E94B81641E032
:102EE00062E0CE010E94351740E06BE0CE010E9407
:102EF000351747E06AE0CE010E94351744E26CE0E6
:102F0000CE010E94351740E061E1CE010E943517E5
:102F100047E060E1CE010E94351740E262E1CE0158
:102F20000E94351740E06EE1CE010E94351747E060
:102F30006DE1CE010E94351740E26FE1CE010E94A3
:102F4000351741E063E0CE010E94B81641E064E02D
:102F5000CE010E94B8164FEF68E0CE010E94B8166D
:102F60004FE068E1CE01DF91CF910C94B816CF937A
:102F7000DF93EC0181E194E00E94961860E0CE01BD
:102F80000E941617853441F4CE010E94D916CE0155
:102F90000E944A1781E001C080E0DF91CF9108953F
:102FA000CF93DF93C62F60E670E081E194E00E944A
:102FB000BA186C2F81E194E00E94571881E194E0E7
:102FC0000E94CF1842E050E060E670E081E194E0BA
:102FD0000E94AD1881E194E00E940718EC0181E1A4
:102FE00094E00E94071820E030E0382FC9018C2BB4
:102FF0009D2BDF91CF9108956CE20C94D0178091B6
:10300000410490E020914204821B9109089520918F
:10301000420480914104281750F4E22FF0E0ED5B68
:10302000FB4F808190E02F5F2093420408958FEF43
:103030009FEF0895E091420480914104E81730F435
:10304000F0E0ED5BFB4F808190E008958FEF9FEF04
:1030500008950895CF92DF92EF92FF920F931F93FE
:10306000CF93DF937C01CB018A0120911D042223A1
:1030700089F0EB016B01C40ED51ECC15DD0569F09E
:103080006991D701ED91FC910190F081E02DC7018C
:103090000995F3CF642F0E949219C801DF91CF9157
:1030A0001F910F91FF90EF90DF90CF900895CF93F5
:1030B000DF931F92CDB7DEB7698320911D042223D1
:1030C000D1F020911E04203240F021E030E0FC01DC
:1030D0003383228380E090E015C080911F04E82FA5
:1030E000F0E0E05EFB4F998190838F5F80931F0437
:1030F00080931E0405C061E0CE0101960E949219E2
:1031000081E090E00F90DF91CF910895FC01138250
:10311000128248EE53E060E070E04483558366839A
:1031200077838DEE92E0918380830895109242041C
:103130001092410410921F0410921E040C94DD188A
:10314000862F413208F040E263E474E00E94FB18ED
:103150001092420480934104089521E00C94A01839
:1031600081E080931D046093400410921F0410922C
:103170001E0408950C94B0180F93062F21E040917F
:103180001E0460E274E0809140040E943F19109296
:103190001F0410921E0410921D040F91089561E007
:1031A0000C94BC1881E194E00C948618CB010C942B
:1031B000051FCB01642F0C940D1F1092D10481E0E8
:1031C0008093CF041092CE0461E082E10E94F20F5E
:1031D00061E083E10E94F20FE9EBF0E080818E7FF5
:1031E000808380818D7F808388E48093B80085E42C
:1031F0008093BC000895413208F03FC09091D10403
:103200009111FCCF91E09093D1042093CF042FEF44
:10321000209364041092A904240F2093A80490938F
:10322000D0049091D004880F892B8093D004809192
:10323000CE04813041F41092CE048091D00480936A
:10324000BB0085EC01C085EE8093BC008091D10469
:103250008130E1F38091A904841710F44091A9040E
:103260002AEA34E0FB01D9018A2F821B841718F463
:103270008D918193F9CF842F089580E008950F9365
:10328000413208F046C09091D1049111FCCF92E0F8
:103290009093D1040093CF049FEF90936404109215
:1032A000A9044093A804FB016AEA74E0DB019A2FA9
:1032B000961B941718F491919D93F9CF1092D00416
:1032C0009091D004880F892B8093D0048091CE04F4
:1032D000813041F41092CE048091D0048093BB00E1
:1032E00085EC01C085EE8093BC00222321F0809103
:1032F000D1048230E1F3809164048F3F61F08091CA
:103300006404803251F080916404803341F483E09E
:1033100007C081E005C080E003C082E001C084E016
:103320000F910895613298F42091D104243089F4EA
:1033300060938604FC0188E894E0DC012A2F281BB6
:10334000261718F421912D93F9CF80E0089581E09C
:10335000089582E0089585ED8093BC008091BC00C3
:1033600084FDFCCF1092D104089585EC8093BC00BD
:103370001092D10408951F920F920FB60F9211244C
:103380002F933F934F935F936F937F938F939F936D
:10339000AF93BF93EF93FF938091B900887F8036FE
:1033A00009F49CC068F5883209F45BC090F4803160
:1033B00009F454C038F4882309F4F5C0883009F4BE
:1033C0004DC0F5C0883109F44CC0803209F45DC0AD
:1033D000EEC0803409F468C048F4803309F455C065
:1033E000883309F0E4C080936404A8C0803509F4F0
:1033F0004FC0883509F45DC0883409F0D8C0D5C005
:10340000883909F4C6C0A8F4883709F467C038F4CD
:10341000883609F463C0803709F460C0C8C08838B2
:1034200009F4B7C0803909F45FC0803809F0BFC023
:103430005BC0803B09F485C038F4803A09F466C06B
:10344000883A09F47EC0B3C0803C09F4A6C0883C29
:1034500009F4A3C0883B09F489C0A9C08091D004B5
:1034600010C09091A9048091A804981770F5E0917C
:10347000A90481E08E0F8093A904F0E0E655FB4F8C
:1034800080818093BB0085EC85C0809364048DC0EF
:10349000E091A90481E08E0F8093A9048091BB0084
:1034A000F0E0E655FB4F80839091A9048091A80439
:1034B0006DC0E091A90481E08E0F8093A9048091F2
:1034C000BB00F0E0E655FB4F80838091CF04811173
:1034D0006CC081E08093CE0484EA60C083E0809376
:1034E000D10410926504CFCF80916504803208F03A
:1034F00050C0E091650481E08E0F80936504809157
:10350000BB00F0E0EA59FB4F8083BDCF809165049A
:10351000803230F4E0916504F0E0EA59FB4F10820C
:103520000E94AB196091650470E0E091CA04F091CB
:10353000CB0486E694E00995109265040E94B519C3
:1035400036C084E08093D1041092870410928604E0
:10355000E091CC04F091CD0409958091860481110D
:1035600005C081E08093860410928804E09187046E
:1035700081E08E0F80938704F0E0E857FB4F808155
:103580008093BB009091870480918604981708F47B
:103590007ACF85E88093BC000AC085EC8093BC009C
:1035A0001092D10404C0109264040E94AB19FF91E0
:1035B000EF91BF91AF919F918F917F916F915F91AB
:1035C0004F913F912F910F900FBE0F901F90189524
:1035D000F8940C944820FB01DC0101900D9200202E
:1035E000E1F70895AEE0B0E0E8EFFAE10C941920BD
:1035F0000D891E8986E08C831A8309838FEF9FE7EC
:103600009E838D83AE01475E5F4F6F89788DCE01BB
:1036100001960E94331DEF81F885E00FF11F1082A3
:103620002E96E4E00C9435205058BB27AA270ED0E4
:1036300075C166D130F06BD120F031F49F3F11F4A9
:103640001EF45BC10EF4E095E7FB51C1E92F77D181
:1036500080F3BA17620773078407950718F071F4AF
:103660009EF58FC10EF4E0950B2EBA2FA02D0B0105
:10367000B90190010C01CA01A0011124FF27591BB7
:1036800099F0593F50F4503E68F11A16F040A22FBD
:10369000232F342F4427585FF3CF4695379527952E
:1036A000A795F0405395C9F77EF41F16BA0B620B2D
:1036B000730B840BBAF09150A1F0FF0FBB1F661F74
:1036C000771F881FC2F70EC0BA0F621F731F841FB7
:1036D00048F4879577956795B795F7959E3F08F0DD
:1036E000B3CF9395880F08F09927EE0F979587959C
:1036F0000895D9D008F481E008950CD00FC107D106
:1037000040F0FED030F021F45F3F19F0F0C05111CD
:1037100039C1F3C014D198F39923C9F35523B1F3F8
:10372000951B550BBB27AA2762177307840738F030
:103730009F5F5F4F220F331F441FAA1FA9F333D08F
:103740000E2E3AF0E0E830D091505040E695001C43
:10375000CAF729D0FE2F27D0660F771F881FBB1FFF
:10376000261737074807AB07B0E809F0BB0B802DD9
:10377000BF01FF2793585F4F2AF09E3F510568F025
:10378000B6C000C15F3FECF3983EDCF386957795B9
:103790006795B795F7959F5FC9F7880F911D969527
:1037A000879597F90895E1E0660F771F881FBB1F83
:1037B000621773078407BA0720F0621B730B840B30
:1037C000BA0BEE1F88F7E095089504D06894B11104
:1037D000D9C00895BCD088F09F5790F0B92F992791
:1037E000B751A0F0D1F0660F771F881F991F1AF00C
:1037F000BA95C9F712C0B13081F0C3D0B1E00895D5
:10380000C0C0672F782F8827B85F39F0B93FCCF355
:10381000869577956795B395D9F73EF49095809501
:10382000709561957F4F8F4F9F4F0895E89409C021
:1038300097FB3EF490958095709561957F4F8F4FE3
:103840009F4F9923A9F0F92F96E9BB279395F695F9
:10385000879577956795B795F111F8CFFAF4BB0F77
:1038600011F460FF1BC06F5F7F4F8F4F9F4F16C0DB
:10387000882311F096E911C0772321F09EE8872F65
:10388000762F05C0662371F096E8862F70E060E021
:103890002AF09A95660F771F881FDAF7880F96959A
:1038A000879597F90895990F0008550FAA0BE0E83E
:1038B000FEEF16161706E807F907C0F012161306F2
:1038C000E407F50798F0621B730B840B950B39F432
:1038D0000A2661F0232B242B252B21F408950A2698
:1038E00009F4A140A6958FEF811D811D089597F9D8
:1038F0009F6780E870E060E008959FEF80EC089596
:1039000000240A94161617061806090608950024BE
:103910000A9412161306140605060895092E039438
:10392000000C11F4882352F0BB0F40F4BF2B11F4AC
:1039300060FF04C06F5F7F4F8F4F9F4F089557FD0B
:103940009058440F551F59F05F3F71F04795880F0D
:1039500097FB991F61F09F3F79F0879508951216A4
:1039600013061406551FF2CF4695F1DF08C0161650
:1039700017061806991FF1CF869571056105089401
:103980000895E894BB2766277727CB0197F9089518
:103990008ADF08F48FEF08950BD0C0CFB1DF28F095
:1039A000B6DF18F0952309F0A2CFA7CF1124EACFF4
:1039B000C6DFA0F3959FD1F3950F50E0551F629F8E
:1039C000F001729FBB27F00DB11D639FAA27F00D78
:1039D000B11DAA1F649F6627B00DA11D661F829F9F
:1039E0002227B00DA11D621F739FB00DA11D621F84
:1039F000839FA00D611D221F749F3327A00D611DA1
:103A0000231F849F600D211D822F762F6A2F112482
:103A10009F5750408AF0E1F088234AF0EE0FFF1FD5
:103A2000BB1F661F771F881F91505040A9F79E3F0C
:103A3000510570F05CCFA6CF5F3FECF3983EDCF30E
:103A4000869577956795B795F795E7959F5FC1F749
:103A5000FE2B880F911D9695879597F9089523DF82
:103A6000880B990B0895ACE0B0E0E9E3FDE10C941C
:103A70000B207C016B018A01FC0117821682838175
:103A800081FFBDC1CE0101964C01F7019381F60182
:103A900093FD859193FF81916F01882309F4ABC158
:103AA000853239F493FD859193FF81916F018532C1
:103AB00029F4B70190E00E94311FE7CF512C312C3F
:103AC00020E02032A0F48B3269F030F4803259F0DB
:103AD000833269F420612CC08D3239F0803339F49F
:103AE000216026C02260246023C0286021C027FDF9
:103AF00027C030ED380F3A3078F426FF06C0FAE0E0
:103B00005F9E300D1124532E13C08AE0389E300D75
:103B10001124332E20620CC08E3221F426FD6BC19D
:103B2000206406C08C3611F4206802C0883641F447
:103B3000F60193FD859193FF81916F018111C1CFB2
:103B4000982F9F7D9554933028F40C5F1F4FFFE30F
:103B5000F9830DC0833631F0833771F0833509F076
:103B60005BC022C0F801808189830E5F1F4F44240F
:103B70004394512C540115C03801F2E06F0E711CB2
:103B8000F801A080B18026FF03C0652D70E002C05F
:103B90006FEF7FEFC5012C870E94261F2C01830148
:103BA0002C852F77222E17C03801F2E06F0E711C82
:103BB000F801A080B18026FF03C0652D70E002C02F
:103BC0006FEF7FEFC5012C870E941B1F2C012C85F6
:103BD0002068222E830123FC1BC0832D90E0481611
:103BE0005906B0F4B70180E290E00E94311F3A9488
:103BF000F4CFF50127FC859127FE81915F01B70184
:103C000090E00E94311F31103A94F1E04F1A5108B0
:103C10004114510471F7E5C0843611F0893639F545
:103C2000F80127FF07C060817181828193810C5F59
:103C30001F4F08C060817181882777FD8095982F7C
:103C40000E5F1F4F2F76B22E97FF09C0909580957B
:103C5000709561957F4F8F4F9F4F2068B22E2AE05D
:103C600030E0A4010E94631FA82EA81844C0853725
:103C700029F42F7EB22E2AE030E025C0F22FF97F02
:103C8000BF2E8F36C1F018F4883579F0B4C0803774
:103C900019F0883721F0AFC02F2F2061B22EB4FE6B
:103CA0000DC08B2D8460B82E09C024FF0AC09F2F41
:103CB0009660B92E06C028E030E005C020E130E073
:103CC00002C020E132E0F801B7FE07C060817181D7
:103CD000828193810C5F1F4F06C06081718180E0FB
:103CE00090E00E5F1F4FA4010E94631FA82EA8182A
:103CF000FB2DFF77BF2EB6FE0BC02B2D2E7FA514FC
:103D000050F4B4FE0AC0B2FC08C02B2D2E7E05C0B4
:103D10007A2C2B2D03C07A2C01C0752C24FF0DC0EA
:103D2000FE01EA0DF11D8081803311F4297E09C066
:103D300022FF06C07394739404C0822F867809F022
:103D4000739423FD13C020FF06C05A2C731418F47B
:103D5000530C5718732C731468F4B70180E290E089
:103D60002C870E94311F73942C85F5CF731410F4A7
:103D7000371801C0312C24FF12C0B70180E390E056
:103D80002C870E94311F2C8522FF17C021FF03C002
:103D900088E590E002C088E790E0B7010CC0822F70
:103DA000867859F021FD02C080E201C08BE227FD38
:103DB0008DE2B70190E00E94311FA51438F4B701DD
:103DC00080E390E00E94311F5A94F7CFAA94F40147
:103DD000EA0DF11D8081B70190E00E94311FA11012
:103DE000F5CF332009F451CEB70180E290E00E9474
:103DF000311F3A94F6CFF7018681978102C08FEF89
:103E00009FEF2C96E2E10C942720F999FECF92BD0A
:103E100081BDF89A992780B50895262FF999FECF8C
:103E20001FBA92BD81BD20BD0FB6F894FA9AF99AD7
:103E30000FBE01960895FC0105906150704001107D
:103E4000D8F7809590958E0F9F1F0895FC016150C3
:103E5000704001900110D8F7809590958E0F9F1FAC
:103E600008950F931F93CF93DF93182F092FEB0122
:103E70008B8181FD03C08FEF9FEF20C082FF10C0B8
:103E80004E815F812C813D81421753077CF4E8818C
:103E9000F9819F012F5F3F4F39832883108306C02C
:103EA000E885F985812F0995892B29F72E813F8196
:103EB0002F5F3F4F3F832E83812F902FDF91CF9134
:103EC0001F910F910895FA01AA27283051F120314E
:103ED00081F1E8946F936E7F6E5F7F4F8F4F9F4F9E
:103EE000AF4FB1E03ED0B4E03CD0670F781F891FE0
:103EF0009A1FA11D680F791F8A1F911DA11D6A0FAE
:103F0000711D811D911DA11D20D009F468943F9160
:103F10002AE0269F11243019305D3193DEF6CF015F
:103F20000895462F4770405D4193B3E00FD0C9F725
:103F3000F6CF462F4F70405D4A3318F0495D31FD92
:103F40004052419302D0A9F7EACFB4E0A6959795E5
:103F5000879577956795BA95C9F7009761057105BB
:103F600008959B01AC010A2E069457954795379505
:103F70002795BA95C9F7620F731F841F951FA01D5F
:103F80000895AA1BBB1B51E107C0AA1FBB1FA617A0
:103F9000B70710F0A61BB70B881F991F5A95A9F7F2
:103FA00080959095BC01CD01089597FB072E16F4DE
:103FB000009407D077FD09D00E94C11F07FC05D0EF
:103FC0003EF4909581959F4F0895709561957F4F30
:103FD0000895A1E21A2EAA1BBB1BFD010DC0AA1F4A
:103FE000BB1FEE1FFF1FA217B307E407F50720F062
:103FF000A21BB30BE40BF50B661F771F881F991FDD
:104000001A9469F760957095809590959B01AC0125
:10401000BD01CF0108952F923F924F925F926F9210
:104020007F928F929F92AF92BF92CF92DF92EF9248
:10403000FF920F931F93CF93DF93CDB7DEB7CA1BC9
:10404000DB0B0FB6F894DEBF0FBECDBF09942A88F4
:10405000398848885F846E847D848C849B84AA849C
:10406000B984C884DF80EE80FD800C811B81AA8129
:10407000B981CE0FD11D0FB6F894DEBF0FBECDBFF4
:10408000ED010895EE0FFF1F0590F491E02D0994C6
:04409000F894FFCFD2
:104094000000C8420401555620496E646578002525
:1040A4006400536166652056616C75650025326451
:1040B4000048756D69646974790025642E2564254A
:1040C40025003C20536166652056616C7565203C73
:1040D400002532642E302525004C6F773C2D2D2091
:1040E4002020202048696768004C6F77202020201A
:1040F400202D2D3E486967680054656D70657261B6
:10410400747572650025642E25642A430025326483
:104114002E302A43004D6F697374757265002564EF
:104124002E30252500536D61727420506C616E74BD
:104134002043617265005072657373204275747414
:104144006F6E20746F00737461727420776174658C
:1041540072696E67004D6F6973747572653A0025F4
:10416400642E2564252520005761746572566F6C92
:10417400756D6500566F6C756D65204C696D656E67
:10418400002532642E25644C0057617465722069E1
:1041940073206F6E2E205374617475733A204D6FC3
:1041A4006973747572653A20002048756D69646995
:1041B40074793A20002054656D703A2000205556D9
:1041C400496E6465783A2000466C6F775261746575
:1041D4003A00566F6C756D653A005761726E696E80
:1041E40067210048756D696469747920204C6F7784
:1041F4000048756D6964697479204869676800547A
:10420400656D7020204C6F770054656D702048698F
:10421400676800555620202048696768004E6F2063
:1042240020576174657200253264204C2F480025A4
:1042340032642E302564204C002532642E253264ED
:10424400204C00446F6E65205761746572696E6717
:10425400006E616E00696E66006F7666002E000067
:10426400000000AF1251105B1284126B12A41252A0
:10427400656164206661696C000000000057182ABB
:0A42840018FF1707181A1829180070
:00000001FF
