:100000000C94E4010C948A0E0C94B70E0C940C0220
:100010000C940C020C940C020C940C020C940C0228
:100020000C940C020C940C020C940C020C940C0218
:100030000C940C020C940C020C940C020C940C0208
:100040000C94E40E0C940C020C940E140C945114A9
:100050000C940C020C940C020C940C020C940C02E8
:100060000C94EC1C0C940C02000000070002010030
:100070000003040600000000000000000102040864
:100080001020408001020408102001020408102002
:10009000040404040404040402020202020203032E
:1000A00003030303000000002300260029000000D2
:1000B0000000250028002B0000000000240027007D
:1000C0002A00000000000000000000005F000000A7
:1000D0000000000007000700000000147F147F14D8
:1000E000000000242A7F2A12000000231308646203
:1000F00000000036495522500000000005030000B2
:100100000000001C2241000000000041221C0000F1
:10011000000000082A1C2A0800000008083E080801
:10012000000000A0600000000000000808080808A7
:1001300000000060600000000000002010080402C1
:100140000000003E5149453E00000000427F400053
:1001500000000062514949460000002241494936E9
:100160000000001814127F10000000274545453993
:100170000000003C4A4949300000000171090503B4
:100180000000003649494936000000064949291E49
:10019000000000003636000000000000AC6C0000DB
:1001A000000000081422410000000014141414146C
:1001B000000000412214080000000002015109065D
:1001C000000000324979413E0000007E0909097EA5
:1001D0000000007F494949360000003E414141226C
:1001E0000000007F4141221C0000007F4949494135
:1001F0000000007F090909010000003E41415172E1
:100200000000007F0808087F000000417F410000D7
:100210000000002040413F010000007F08142241FF
:100220000000007F404040400000007F020C027F41
:100230000000007F0408107F0000003E4141413E65
:100240000000007F090909060000003E4151215EBF
:100250000000007F0919294600000026494949325B
:1002600000000001017F01010000003F4040403FCD
:100270000000001F2040201F0000003F4038403F8A
:1002800000000063140814630000000304780403F2
:1002900000000061514945430000007F41410000DA
:1002A000000000020408102000000041417F00000F
:1002B00000000004020102040000008080808080B1
:1002C0000000000102040000000000205454547893
:1002D0000000007F484444380000003844442800AF
:1002E000000000384444487F00000038545454183B
:1002F000000000087E09020000000018A4A4A47CED
:100300000000007F08040478000000007D00000069
:1003100000000080847D00000000007F1028440061
:10032000000000417F4000000000007C04180478B9
:100330000000007C08047C000000003844443800C1
:10034000000000FC24241800000000182424FC00F5
:10035000000000007C080400000000485454240001
:10036000000000047F4400000000003C40407C008E
:100370000000001C2040201C0000003C4030403C9D
:1003800000000044281028440000001CA0A07C00AD
:100390000000004464544C44000000083641000052
:1003A000000000007F00000000000041360800004F
:1003B0000000000201010201000000020505020028
:1003C0000000480E0D15F31911241FBECFEFD8E021
:1003D000DEBFCDBF13E0A0E0B1E0E8E0F7E402C08B
:1003E00005900D92A830B107D9F724E0A8E0B3E05A
:1003F00001C01D92A83EB207E1F713E0C8ECD3E0BC
:1004000004C02297FE010E947E23C23CD107C9F797
:100410000E946F130C94191E0C94000082E00E943D
:100420007E10892B71F46AE070E080E090E00E9419
:100430005D0F82E00E947E10892B19F481E0809389
:100440004C03089583E00E947E10019709F56AE04D
:1004500070E080E090E00E945D0F83E00E947E10DB
:100460000197B1F480915503811112C081E080930E
:10047000550384E00E947E108130910529F4909309
:1004800068038093670308951092680310926703CE
:100490000895BC0188E793E00E94E5106CE071E0EC
:1004A00088E793E00E941A114091000150910101E8
:1004B000609102017091030122E030E088E793E04F
:1004C0000E94D71267E171E088E793E00E941A1159
:1004D00040912F03509130036091310370913203AA
:1004E00022E030E088E793E00E94D71263E271E0F7
:1004F00088E793E00E941A1140912B0350912C033E
:1005000060912D0370912E0322E030E088E793E0A4
:100510000E94D7126BE271E088E793E00E941A1103
:1005200040912703509128036091290370912A0379
:1005300022E030E088E793E00E94D71266E371E0A2
:1005400088E793E00C94371161E086E00C94481042
:1005500060E086E00C944810CF93DF9369E371E08C
:1005600089E093E00E94251E44E061E082E294E08D
:100570000E94361769E073E082E294E00E94C0179F
:1005800060912703709128038091290390912A0399
:100590000E941F1F7F936F9382E491E09F938F933C
:1005A000C9E0D3E0DF93CF930E942C1E47E062E0C6
:1005B00082E294E00E943617BE0182E294E00E943B
:1005C000C01765E471E0CE010E94251E43E065E09E
:1005D00082E294E00E943617BE0182E294E00E941B
:1005E000C01780915B031F928F9380E591E09F93EA
:1005F0008F93DF93CF930E942C1E47E066E082E248
:1006000094E00E943617BE0182E294E00E94C01777
:1006100082E00E947E102DB73EB7245F3F4F0FB699
:10062000F8943EBF0FBE2DBF019721F5C091550331
:10063000C13001F564E670E080E090E00E945D0F5B
:1006400010925503C093480380916703909168030B
:1006500020915B03009721F0019729F42F5F01C0DF
:10066000215020935B0380915B03803118F08FE071
:1006700080935B03DF91CF910895CF92DF92EF9249
:10068000FF920F931F93CF93DF9364E571E089E0AE
:1006900093E00E94251E44E061E082E294E00E9423
:1006A000361769E073E082E294E00E94C017C090C0
:1006B0002F03D0903003E0903103F090320320E01C
:1006C00030E048EC52E4C701B6010E9406200E94C7
:1006D0001F1FCB0164E670E00E940F239F938F934E
:1006E000C701B6010E941F1F7F936F938DE591E0B4
:1006F0009F938F93C9E0D3E0DF93CF930E942C1E8A
:1007000046E062E082E294E00E943617BE0182E297
:1007100094E00E94C01765E671E0CE010E94251E9C
:1007200042E065E082E294E00E943617BE0182E278
:1007300094E00E94C01780915D031F928F9304E79D
:1007400011E01F930F93DF93CF930E942C1E40E084
:1007500067E082E294E00E943617BE0182E294E0F4
:100760000E94C01780915C031F928F931F930F9379
:10077000DF93CF930E942C1E4AE067E082E294E070
:100780000E943617BE0182E294E00E94C0178DB726
:100790009EB744960FB6F8949EBF0FBE8DBF809152
:1007A000470381113EC06CE771E0CE010E94251E17
:1007B00041E066E082E294E00E943617BE0182E2E8
:1007C00094E00E94C01782E00E947E10019709F019
:1007D0006BC0C0915503C13009F066C064E670E09B
:1007E00080E090E00E945D0F10925503C093480393
:1007F000809167039091680320915D03009721F039
:10080000019729F42F5F01C0215020935D0380914F
:100810005C0390915D03891708F046C080935D03E7
:1008200043C06CE871E089E093E00E94251E41E03E
:1008300066E082E294E00E94361769E073E082E2AB
:1008400094E00E94C01782E00E947E10019761F53B
:10085000C0915503C13041F564E670E080E090E05E
:100860000E945D0F10925503C09348038091670367
:100870009091680320915C03009721F0019729F47F
:100880002F5F01C0215020935C0380915C0385366B
:1008900018F084E680935C0380915D0390915C0383
:1008A000891710F080935C03DF91CF911F910F9116
:1008B000FF90EF90DF90CF900895CF92DF92EF926C
:1008C000FF920F931F93CF93DF936CE971E089E060
:1008D00093E00E94251E42E061E082E294E00E94E3
:1008E000361769E073E082E294E00E94C017C0907E
:1008F0002B03D0902C03E0902D03F0902E0320E0EA
:1009000030E048EC52E4C701B6010E9406200E9484
:100910001F1FCB0164E670E00E940F239F938F930B
:10092000C701B6010E941F1F7F936F9388EA91E071
:100930009F938F93C9E0D3E0DF93CF930E942C1E47
:1009400045E062E082E294E00E943617BE0182E256
:1009500094E00E94C01765E671E0CE010E94251E5A
:1009600042E065E082E294E00E943617BE0182E236
:1009700094E00E94C01780915F031F928F9300EB59
:1009800011E01F930F93DF93CF930E942C1E40E042
:1009900067E082E294E00E943617BE0182E294E0B2
:1009A0000E94C01780915E031F928F931F930F9335
:1009B000DF93CF930E942C1E4AE067E082E294E02E
:1009C0000E943617BE0182E294E00E94C0178DB7E4
:1009D0009EB744960FB6F8949EBF0FBE8DBF809110
:1009E000470381113EC06CE771E0CE010E94251ED5
:1009F00041E066E082E294E00E943617BE0182E2A6
:100A000094E00E94C01782E00E947E10019709F0D6
:100A10006BC0C0915503C13009F066C064E670E058
:100A200080E090E00E945D0F10925503C093480350
:100A3000809167039091680320915F03009721F0F4
:100A4000019729F42F5F01C0215020935F0380910B
:100A50005E0390915F03891708F046C080935F039F
:100A600043C06CE871E089E093E00E94251E41E0FC
:100A700066E082E294E00E94361769E073E082E269
:100A800094E00E94C01782E00E947E10019761F5F9
:100A9000C0915503C13041F564E670E080E090E01C
:100AA0000E945D0F10925503C09348038091670325
:100AB0009091680320915E03009721F0019729F43B
:100AC0002F5F01C0215020935E0380915E03853625
:100AD00018F084E680935E0380915F0390915E033B
:100AE000891710F080935E03DF91CF911F910F91D2
:100AF000FF90EF90DF90CF900895CF92DF92EF922A
:100B0000FF92CF93DF9368EB71E089E093E00E945E
:100B1000251E44E061E082E294E00E94361769E01D
:100B200073E082E294E00E94C017C0900001D09070
:100B30000101E0900201F090030120E030E048EC78
:100B400052E4C701B6010E9406200E941F1FCB017C
:100B500064E670E00E940F239F938F93C701B60154
:100B60000E941F1F7F936F938DE591E09F938F935A
:100B7000C9E0D3E0DF93CF930E942C1E46E062E0F1
:100B800082E294E00E943617BE0182E294E00E9465
:100B9000C01743E065E082E294E00E94361765E406
:100BA00071E082E294E00E94C017809160031F927E
:100BB0008F9381EC91E09F938F93DF93CF930E946B
:100BC0002C1E46E066E082E294E00E943617BE01E9
:100BD00082E294E00E94C01782E00E947E102DB74E
:100BE0003EB7225F3F4F0FB6F8943EBF0FBE2DBFFA
:100BF0000197A1F4C0915503C13081F464E670E01F
:100C000080E090E00E945D0F10925503C09348036E
:100C100080916003853610F010926003DF91CF91D0
:100C2000FF90EF90DF90CF900895CF92DF92EF92F8
:100C3000FF9240E060E082E294E00E94361768ECA8
:100C400071E082E294E00E94C01740E062E082E23C
:100C500094E00E94361769ED71E082E294E00E9410
:100C6000C01740E063E082E294E00E94361769EE2C
:100C700071E082E294E00E94C01768EF71E089E0C1
:100C800093E00E94251E44E066E082E294E00E9428
:100C9000361769E073E082E294E00E94C017C090CA
:100CA0000001D0900101E0900201F090030120E0EA
:100CB00030E048EC52E4C701B6010E9406200E94D1
:100CC0001F1FCB0164E670E00E940F239F938F9358
:100CD000C701B6010E941F1F7F936F9382E092E0CD
:100CE0009F938F9389E093E09F938F930E942C1E94
:100CF00046E067E082E294E00E9436178DB79EB727
:100D000008960FB6F8949EBF0FBE8DBF69E073E0E2
:100D100082E294E0FF90EF90DF90CF900C94C017A8
:100D2000CF92DF92EF92FF921F93CF93DF9320E059
:100D300030E040E251E46091610370916203809180
:100D40006303909164030E9406200E94241F6B019C
:100D50007C01EB016BE072E089E093E00E94251ECC
:100D600043E062E082E294E00E94361769E073E0BB
:100D700082E294E00E94C01742E065E082E294E0E3
:100D80000E94361767E172E082E294E00E94C01789
:100D9000C6016AE070E00E94FB229F938F937F93CD
:100DA0006F9384E292E09F938F9389E093E09F9307
:100DB0008F930E942C1E45E066E082E294E00E9440
:100DC000361769E073E082E294E00E94C01782E087
:100DD0000E947E102DB73EB7285F3F4F0FB6F894A4
:100DE0003EBF0FBE2DBF019701F510915503113085
:100DF000E1F464E670E080E090E00E945D0F109204
:100E000055031093480380916703909168030097FE
:100E100021F0019721F4219602C0E6012197C93EF5
:100E200033E0D30710F0C0E0D0E0BE0180E090E0F6
:100E30000E94501F20E030E040E251E40E94B71EC3
:100E400060936103709362038093630390936403E0
:100E5000DF91CF911F91FF90EF90DF90CF90089599
:100E6000CF93DF93CDB7DEB727970FB6F894DEBFE9
:100E70000FBECDBF10924B0382E294E00E949B17FD
:100E800083E090E090936A03809369030E94A40238
:100E90006CE272E0CE0101960E944713CE010196EA
:100EA0000E944902CE0101960E94D91243E060E0FF
:100EB00082E294E00E94361768EC72E082E294E0ED
:100EC0000E94C01740E062E082E294E00E94361780
:100ED00069E372E082E294E00E94C01740E064E0BF
:100EE00082E294E00E94361763E472E082E294E0CA
:100EF0000E94C0170E942E0F6093510370935203FB
:100F0000809353039093540327960FB6F894DEBF53
:100F10000FBECDBFDF91CF910895CF93DF9383E2D2
:100F200094E00E94B71982E294E00E940B1784B10A
:100F3000816284B985B1816285B982E294E00E94C0
:100F40009B1782E294E00E94571782E294E00E948D
:100F5000271740E855E260E070E088E793E00E94E0
:100F60008C1483E393E00E946A1560E082E00E94A3
:100F70000F1042E050E06EE072E080E00E946A0EE6
:100F800060E083E00E940F1060E084E00E940F1098
:100F900043E050E062E272E081E00E946A0E81E488
:100FA00093E00E94D818811107C068EE73E080E0DA
:100FB00090E00E945D0FF3CF60E085E00E940F108B
:100FC00061E086E00E940F106091460370E085E7C3
:100FD00094E00E94F719609146038F3F09F090C09A
:100FE00070E040E085E794E00E94FA1940915B03CD
:100FF000609146036F5F6093460370E085E794E07D
:101000000E94FA1940915C03609146036F5F609300
:10101000460370E085E794E00E94FA1940915D0371
:10102000609146036F5F6093460370E085E794E04C
:101030000E94FA1940915E03609146036F5F6093CE
:10104000460370E085E794E00E94FA1940915F033F
:10105000609146036F5F6093460370E085E794E01C
:101060000E94FA1940916003609146036F5F60939C
:10107000460370E085E794E00E94FA1920E030E032
:1010800048EC52E4609161037091620380916303C4
:10109000909164030E9406200E941F1FCFEFD0E0B2
:1010A000CB01BE010E940F23462F809146038F5F24
:1010B00080934603682F70E085E794E00E94FA1958
:1010C00020E030E048EC52E46091610370916203EB
:1010D00080916303909164030E9406200E941F1F69
:1010E000CB01BE010E940F23609146036F5F6093A6
:1010F000460370E0482F85E794E00E94FA195FC02C
:1011000082E0860F809346036F5F70E085E794E08E
:101110000E94F71980935B036091460381E0860F7C
:101120008093460370E085E794E00E94F71980936E
:101130005C036091460381E0860F8093460370E074
:1011400085E794E00E94F71980935D036091460360
:1011500081E0860F8093460370E085E794E00E946B
:10116000F71980935E036091460381E0860F8093B8
:10117000460370E085E794E00E94F71980935F03CF
:101180006091460381E0860F8093460370E085E717
:1011900094E00E94F719809360036091460381E018
:1011A000860F8093460370E085E794E00E94F7196C
:1011B0006091460370E085E794E00E94F71989E0AA
:1011C00080935B038CE380935C0388E280935D03F0
:1011D0009EE190935E039FE090935F038093600392
:1011E0008DEC9CECACE4BEE38093610390936203CE
:1011F000A0936303B09364030E942E0F6093510386
:101200007093520380935303909354030E942E0FC4
:1012100060934D0370934E0380934F03909350035C
:1012200010926A031092690310926603109265038C
:10123000DF91CF9108958F929F92AF92BF92CF92FC
:10124000DF92EF92FF920F931F93CF93DF93CDB76F
:10125000DEB727970FB6F894DEBF0FBECDBF0E9452
:101260002E0F00914D0310914E0320914F033091AA
:101270005003601B710B820B930B61387E4E8643CB
:101280009105C0F00E942E0F60934D0370934E03A2
:1012900080934F03909350036BE472E0CE0101966C
:1012A0000E944713CE0101960E944902CE01019689
:1012B0000E94D9128091690390916A03813091054F
:1012C00009F42AC21CF4892B49F0CFC4823091055D
:1012D00009F4DDC2039709F4F4C2C7C40E942E0FBB
:1012E0000091510310915203209153033091540304
:1012F000601B710B820B930B613177428105910565
:1013000008F4FDC00E942E0F6093510370935203A6
:10131000809353039093540383E393E00E94A216B7
:1013200060932F03709330038093310390933203C3
:1013300060E083E393E00E94281660932B03709390
:101340002C0380932D0390932E038FE00E94C90FEE
:1013500067E070E00E940F23882777FD8095982F23
:101360000E94521F6093000170930101809302015B
:101370009093030181E493E00E941D19BC0180E079
:1013800090E00E94501F20E030E048EC52E40E94C0
:10139000B71E20E030E040E05FE30E944F1E6B018B
:1013A0007C01609327037093280380932903909313
:1013B0002A0320E030E048EC52E460910001709193
:1013C000010180910201909103010E9402201816F0
:1013D00064F480E090E0A8ECB2E480930001909384
:1013E0000101A0930201B09303016091600370E0DA
:1013F00080E090E00E94521F9B01AC0160910001CF
:101400007091010180910201909103010E94B31E2D
:1014100087FF03C081E080934B0380902F0390905F
:101420003003A0903103B090320360915D0370E00F
:1014300080E090E00E94521F9B01AC01C501B40105
:101440000E94B31E87FD0FC060915C0370E080E0D6
:1014500090E00E94521F9B01AC01C501B4010E94A3
:10146000022018161CF481E090E028C080902B0325
:1014700090902C03A0902D03B0902E0360915E03FA
:1014800070E080E090E00E94521F9B01AC01C5011A
:10149000B4010E94022018167CF060915F0370E096
:1014A00080E090E00E94521F9B01AC01C501B40195
:1014B0000E94B31E87FF07C082E090E0909366030E
:1014C000809365031CC060915B0370E080E090E056
:1014D0000E94521F9B01AC01C701B6010E9402206D
:1014E00018161CF483E090E0E9CF80916503909199
:1014F0006603049721F010926603109265038091B1
:10150000650390916603892B09F0F0C08091550323
:10151000813041F564E670E080E090E00E945D0F6C
:101520001092550380916703909168032091040104
:10153000009721F0019729F42F5F01C021502093DB
:10154000040180910401863014F01092040180910E
:10155000040187FF03C085E08093040182E294E0E8
:101560000E949B1780910401823099F03CF48823FB
:1015700069F08130B1F40E943D0313C0843079F0EA
:101580005CF0853071F40E9490060BC00E947D05CE
:1015900008C00E945D0405C00E94AC0202C00E9407
:1015A000150680914803813009F089C010924803E4
:1015B00040915B038093460361E070E085E794E02F
:1015C0000E94FA1940915C03609146036F5F60933B
:1015D000460370E085E794E00E94FA1940915D03AC
:1015E000609146036F5F6093460370E085E794E087
:1015F0000E94FA1940915E03609146036F5F609309
:10160000460370E085E794E00E94FA1940915F0379
:10161000609146036F5F6093460370E085E794E056
:101620000E94FA1940916003609146036F5F6093D6
:10163000460370E085E794E00E94FA1920E030E06C
:1016400048EC52E4609161037091620380916303FE
:10165000909164030E9406200E941F1F0FEF10E06C
:10166000CB01B8010E940F23462F809146038F5F64
:1016700080934603682F70E085E794E00E94FA1992
:1016800020E030E048EC52E4609161037091620325
:1016900080916303909164030E9406200E941F1FA3
:1016A000CB01B8010E940F23609146036F5F6093E6
:1016B000460370E0482F85E794E00E94FA19809174
:1016C0004C03813009F580910401843011F40E94AB
:1016D000300780914703813019F41092470303C00B
:1016E00081E08093470310924C030EC081E090E0AC
:1016F00090936A038093690382E294E00E949B17AF
:1017000082E294E00E945A1780914B03813009F0E5
:10171000ACC20E943007A9C244E062E082E294E0D9
:101720000E9436176AE572E082E294E00E94C017D8
:1017300080916503909166038230910589F11CF4D4
:10174000019749F086C08330910509F452C004978F
:1017500009F46DC07EC060915D0370E080E090E0B0
:101760000E94521F9B01AC0160912F0370913003C6
:1017700080913103909132030E94B31E42E065E0F4
:1017800087FF07C082E294E00E94361763E672E0AA
:1017900024C082E294E00E94361761E772E01DC027
:1017A00060915F0370E080E090E00E94521F9B0117
:1017B000AC0160912B0370912C0380912D039091CB
:1017C0002E030E94B31E43E065E087FF0BC082E258
:1017D00094E00E9436176FE772E082E294E00E9484
:1017E000C01737C082E294E00E94361769E872E0C1
:1017F000F4CF60915B0370E080E090E00E94521FA4
:101800009B01AC0160912B0370912C0380912D03FF
:1018100090912E030E9402201816DCF444E065E04B
:1018200082E294E00E94361763E972E0D6CF43E08B
:1018300065E082E294E00E9436176DE972E082E290
:1018400094E00E94C01780914C03813011F41092F3
:101850004C0368EE73E080E090E00E945D0F109210
:101860006A031092690380914C03813009F0FDC135
:10187000109266031092650310924C0382E294E08A
:101880000E949B1782E294E00E9457170FC080913C
:101890004C03813009F0E9C110924C0383E090E0E1
:1018A00090936A03809369030E94A4020E942E0F02
:1018B00060935103709352038093530390935403A6
:1018C000D4C110924A0382E294E00E94571785E047
:1018D0000E947E100197B1F485E00E947E1001976E
:1018E000B9F480915A03811113C081E080935A03A7
:1018F00080915603909157030196909357038093DC
:10190000560306C080915A03813011F410925A0395
:101910000E942E0F00915103109152032091530306
:1019200030915403601B710B820B930B693E734023
:101930008105910508F42EC120915603309157037B
:101940004CE3429FC001439F900D112469E470E075
:101950000E94FB22162F072F6093580370935903A0
:10196000B90180E090E00E94501F20E030E042E9A1
:1019700052E40E94B71E20E030E040E752E40E94AB
:10198000B71E6B017C012AE037ED43EA5BE30E945E
:10199000B31E87FF19C080910803833024F48F5F42
:1019A000809308030EC01092080384E090E09093A7
:1019B00066038093650381E080934A0383E080930C
:1019C0000401A701960112C0109208031092660349
:1019D0001092650310924A032AE037ED43EA5BE375
:1019E000C701B6010E944F1E9B01AC0160914203EA
:1019F0007091430380914403909145030E944F1ED0
:101A00006093420370934303809344039093450390
:101A100010925703109256030F931F9387EA92E098
:101A20009F938F9309E013E01F930F930E942C1E46
:101A30004AE062E082E294E00E943617B80182E256
:101A400094E00E94C017C0904203D0904303E090FE
:101A50004403F090450320E030E048EC52E4C70135
:101A6000B6010E9406200E941F1FCB0164E670E0B1
:101A70000E940F230F900F900F900F900F900F90D8
:101A80008A3091055CF49F938F93C701B6010E9441
:101A90001F1F7F936F938FEA92E00AC09F938F93EB
:101AA000C701B6010E941F1F7F936F9389EB92E0DD
:101AB0009F938F931F930F930E942C1E0FB6F89441
:101AC000DEBF0FBECDBF48E064E082E294E00E943A
:101AD000361769E073E082E294E00E94C017C0907C
:101AE0000001D0900101E0900201F090030120E09C
:101AF00030E048EC52E4C701B6010E9406200E9483
:101B00001F1FCB0164E670E00E940F239F938F9309
:101B1000C701B6010E941F1F7F936F938DE591E06F
:101B20009F938F9389E093E09F938F930E942C1E45
:101B300046E066E082E294E00E94361769E073E0D6
:101B400082E294E00E94C0170FB6F894DEBF0FBE89
:101B5000CDBF2091610330916203409163035091A6
:101B60006403609142037091430380914403909118
:101B700045030E94022087FD03C081E08093490352
:101B80000E942E0F6093510370935203809353036E
:101B90009093540380914C03813021F410924C03B4
:101BA00080934903809149038130A9F51092420343
:101BB00010924303109244031092450310926A035B
:101BC000109269030E94A80282E294E00E949B178F
:101BD00042E064E082E294E00E94361763EC72E037
:101BE00082E294E00E94C0171092490310924C03C5
:101BF00083E08093040160E177E280E090E00E945E
:101C00005D0F0E942E0F60935103709352038093D7
:101C100053039093540380914A03813031F510921D
:101C20004203109243031092440310924503109212
:101C30004A0381E090E090936A03809369030E94D5
:101C40002E0F60935103709352038093530390932C
:101C500054030E94A80282E294E00E949B1782E251
:101C600094E00E945A1710924C0327960FB6F894EE
:101C7000DEBF0FBECDBFDF91CF911F910F91FF90BF
:101C8000EF90DF90CF90BF90AF909F908F9008958E
:101C900089E080935B038CE380935C0310925D0387
:101CA0008EE180935E0310925F03109260038DECCF
:101CB0009CECACE4BEE38093610390936203A09339
:101CC0006303B093640326E04BE06EE083E393E0AC
:101CD0000C9463158230E8F4E82FF0E0EE0FFF1F5C
:101CE000E559FC4F71836083813041F08091690038
:101CF0008C7F842B80936900E89A08958091690015
:101D0000440F551F440F551F837F842B8093690018
:101D1000E99A08951F920F920FB60F9211242F93F4
:101D20003F934F935F936F937F938F939F93AF9363
:101D3000BF93EF93FF9380916B0390916C03892B7A
:101D400029F0E0916B03F0916C030995FF91EF91FD
:101D5000BF91AF919F918F917F916F915F914F91C3
:101D60003F912F910F900FBE0F901F9018951F92CB
:101D70000F920FB60F9211242F933F934F935F93BF
:101D80006F937F938F939F93AF93BF93EF93FF9343
:101D900080916D0390916E03892B29F0E0916D0382
:101DA000F0916E030995FF91EF91BF91AF919F91D3
:101DB0008F917F916F915F914F913F912F910F90F4
:101DC0000FBE0F901F9018951F920F920FB60F9293
:101DD00011242F933F938F939F93AF93BF93809141
:101DE000700390917103A0917203B09173033091CD
:101DF0006F0323E0230F2D3720F40196A11DB11DA1
:101E000005C026E8230F0296A11DB11D20936F0384
:101E10008093700390937103A0937203B093730344
:101E20008091740390917503A0917603B09177032C
:101E30000196A11DB11D8093740390937503A09327
:101E40007603B0937703BF91AF919F918F913F91AC
:101E50002F910F900FBE0F901F9018952FB7F894E9
:101E6000609170037091710380917203909173037C
:101E70002FBF08953FB7F894809174039091750334
:101E8000A0917603B091770326B5A89B05C02F3F9C
:101E900019F00196A11DB11D3FBF6627782F892F2C
:101EA0009A2F620F711D811D911D42E0660F771FF1
:101EB000881F991F4A95D1F70895CF92DF92EF922C
:101EC000FF92CF93DF936B017C010E943A0FEB01ED
:101ED000C114D104E104F10479F00E943A0F6C1BA3
:101EE0007D0B683E7340A0F381E0C81AD108E10879
:101EF000F108C851DC4FECCFDF91CF91FF90EF900C
:101F0000DF90CF9008950197009739F0880F991FBF
:101F1000880F991F02970197F1F70895789484B577
:101F2000826084BD84B5816084BD85B5826085BDD5
:101F300085B5816085BDEEE6F0E0808181608083BB
:101F4000E1E8F0E01082808182608083808181609E
:101F50008083E0E8F0E0808181608083E1EBF0E065
:101F6000808184608083E0EBF0E080818160808309
:101F7000EAE7F0E0808184608083808182608083F2
:101F80008081816080838081806880831092C1001D
:101F900008958E3008F08E5087702091050190E4EE
:101FA000299F90011124822B80937C0080917A00DC
:101FB000806480937A0080917A0086FDFCCF8091C6
:101FC00078002091790090E0922B0895833081F081
:101FD00028F4813099F08230A1F008958630A9F07C
:101FE0008730B9F08430D1F4809180008F7D03C0B8
:101FF000809180008F7780938000089584B58F77DB
:1020000002C084B58F7D84BD08958091B0008F7724
:1020100003C08091B0008F7D8093B0000895CF936E
:10202000DF9390E0FC01E458FF4F2491FC01E0575E
:10203000FF4F8491882349F190E0880F991FFC019C
:10204000E854FF4FA591B49182559F4FFC01C59173
:10205000D4919FB7611108C0F8948C912095822388
:102060008C93888182230AC0623051F4F8948C9159
:10207000322F309583238C938881822B888304C0F0
:10208000F8948C91822B8C939FBFDF91CF91089510
:102090000F931F93CF93DF931F92CDB7DEB7282FF7
:1020A00030E0F901E859FF4F8491F901E458FF4FFE
:1020B0001491F901E057FF4F04910023C9F08823E0
:1020C00021F069830E94E60F6981E02FF0E0EE0FB6
:1020D000FF1FE255FF4FA591B4919FB7F8948C91E3
:1020E000611103C01095812301C0812B8C939FBF88
:1020F0000F90DF91CF911F910F910895CF93DF93B0
:10210000282F30E0F901E859FF4F8491F901E45894
:10211000FF4FD491F901E057FF4FC491CC2391F0C8
:1021200081110E94E60FEC2FF0E0EE0FFF1FEC553F
:10213000FF4FA591B4912C912D2381E090E021F4E3
:1021400080E002C080E090E0DF91CF910895CF92CF
:10215000DF92EF92FF920F931F93CF93DF936C0167
:102160007A01EB01E60EF71E00E010E0CE15DF0568
:1021700061F06991D601ED91FC910190F081E02D23
:10218000C6010995080F191FF1CFC801DF91CF9142
:102190001F910F91FF90EF90DF90CF900895611500
:1021A000710581F0DB010D900020E9F7AD01415090
:1021B0005109461B570BDC01ED91FC910280F38124
:1021C000E02D099480E090E00895AF92BF92CF9205
:1021D000DF92EF92FF920F931F93CF93DF937C01D7
:1021E0006B01C0E0D0E000E010E0D60114968D91C4
:1021F0009C911597C817D90788F4D701ED91FC91E8
:10220000A080B180BE01C6010E945E13682FC70185
:10221000F5010995080F191F2196E7CFC801DF9135
:10222000CF911F910F91FF90EF90DF90CF90BF90D3
:10223000AF9008950C94CF10DC01ED91FC910190CA
:10224000F081E02D09940F931F93CF93DF93EC015E
:102250006DE00E941C118C016AE0CE010E941C11ED
:10226000800F911FDF91CF911F910F9108950F93D0
:102270001F93CF93DF93EC010E94CF108C01CE010E
:102280000E942311800F911FDF91CF911F910F9119
:1022900008958F929F92AF92BF92CF92DF92EF926A
:1022A000FF920F931F93CF93DF93CDB7DEB7A19724
:1022B0000FB6F894DEBF0FBECDBF7C01C42EE52F54
:1022C000CB01D22E19A221E02D1510F02AE0D22E3A
:1022D0008E010F5D1F4F8D2C912CA12CB12C6C2DDC
:1022E0007E2FA50194010E9423238C2DD29E80195C
:1022F0001124015011098A3014F4805D01C0895CF9
:10230000F8018083211531054105510521F0C22EC8
:10231000E32FCA01E4CFB801C7010E94CF10A196F4
:102320000FB6F894DEBF0FBECDBFDF91CF911F91E6
:102330000F91FF90EF90DF90CF90BF90AF909F9064
:102340008F900895CF92DF92EF92FF920F931F9399
:10235000CF93DF93EC016A017B012115310579F4FC
:10236000E881F9810190F081E02D642FDF91CF9118
:102370001F910F91FF90EF90DF90CF9009942A303A
:102380003105E9F477FF1AC06DE20E941C118C013F
:1023900044275527BA014C195D096E097F092AE0C7
:1023A000CE010E944911800F911FDF91CF911F91A3
:1023B0000F91FF90EF90DF90CF9008952AE0B70142
:1023C000A601CE01DF91CF911F910F91FF90EF9069
:1023D000DF90CF900C9449114F925F926F927F9251
:1023E0008F929F92AF92BF92CF92DF92EF92FF9225
:1023F0000F931F93CF93DF93EC016A017B01B22E01
:102400009A01AB01C701B6010E946920882319F027
:1024100061ED72E027C026013701E89477F82FEFCD
:102420003FEF4FE75FE7C301B2010E9469208111CE
:102430000DC02FEF3FEF4FE75FE7C301B2010E94EE
:10244000B31E18161CF465ED72E00CC02FEF3FEFC1
:102450004FE75FE4C701B6010E9402201816ACF4F2
:1024600069ED72E0CE01DF91CF911F910F91FF9046
:10247000EF90DF90CF90BF90AF909F908F907F9024
:102480006F905F904F900C94CF102FEF3FEF4FE77E
:102490005FECC701B6010E94B31E87FDE1CF20E0CB
:1024A00030E0A901C701B6010E94B31E87FF0AC030
:1024B0006DE2CE010E941C118C01F7FAF094F7F83E
:1024C000F09402C000E010E0A12C60E070E080E039
:1024D0009FE3AB1441F020E030E040E251E40E9481
:1024E000B71EA394F6CF9B01AC01C701B6010E94B1
:1024F0004F1E6B017C010E94241F2B013C010E9496
:10250000501F9B01AC01C701B6010E944E1E6B011A
:102510007C012AE0B301A201CE010E944911080FFB
:10252000191FBB2039F068E572E0CE010E94CF1080
:10253000080F191F7B2C772041F120E030E040E2AA
:1025400051E4C701B6010E9406206B017C010E9484
:102550001F1F4B01AA2497FCA094BA2C2AE030E05C
:10256000B501A401CE010E94A211080F191FC501D7
:10257000B4010E94521F9B01AC01C701B6010E9429
:102580004E1E6B017C017A94D6CFC801DF91CF91AA
:102590001F910F91FF90EF90DF90CF90BF90AF9081
:1025A0009F908F907F906F905F904F9008950C94C4
:1025B000EC11FC01808191810C947F1BCF93DF9300
:1025C000EC0188819981009711F00E947F1B19828C
:1025D00018821D821C821B821A82DF91CF9108957E
:1025E0000F931F93CF93DF93EC018B016F5F7F4FAE
:1025F000888199810E94FE19009731F09983888320
:102600001B830A8381E001C080E0DF91CF911F919D
:102610000F910895CF93DF93EC0188819981892BE5
:1026200029F08A819B818617970760F4CE010E946A
:10263000F012882341F08C819D81892B19F4E88167
:10264000F981108281E0DF91CF910895EF92FF929E
:102650000F931F93CF93DF93EC017B018A01BA01A3
:102660000E940A13811104C0CE010E94DE1207C02D
:102670001D830C83B701888199810E94251ECE019C
:10268000DF91CF911F910F91FF90EF900895FC0182
:1026900011821082138212821582148216826115B1
:1026A000710559F0FB0101900020E9F7AF0141509D
:1026B0005109461B570B0C9426130895FC012481E5
:1026C00035816217730748F480819181009729F062
:1026D000FC01E60FF71F8081089580E008950E94B5
:1026E0008E0F0E948D07C8E4D4E10E941B09209739
:1026F000E1F30E944814F9CFFC0124853585F901E6
:10270000E05CFF4F80819181329620813181821B74
:10271000930B8F7399270895FC0184859585FC019F
:10272000E05CFF4F40815181329620813181421718
:10273000530741F00190F081E02DE80FF91F8081EF
:1027400090E008958FEF9FEF0895FC0184859585B3
:10275000FC01E05CFF4F4081518132962081318144
:102760004217530779F0A081B181A80FB91F8C914E
:10277000208131812F5F3F4F2F7333273183208397
:1027800090E008958FEF9FEF0895FC0181A18823C9
:1027900029F0A489B5898C9186FFFBCF11A20895F9
:1027A000CF93DF93FC0126853785D901A05CBF4F0D
:1027B0008D919C91119701968F739927E901CE5BBA
:1027C000DF4F4881598184179507D9F30D90BC914B
:1027D000A02DA20FB31F6C93A685B785A05CBF4F39
:1027E00011969C938E93A689B7892C9181E090E0F5
:1027F000078C02C0880F991F0A94E2F7282B2C93AC
:1028000081E081A30488F589E02D80818064808344
:1028100081E090E0DF91CF91089508951F920F928B
:102820000FB60F9211242F933F934F938F939F9343
:10283000EF93FF938091C00082FD1CC04091C600C1
:1028400080911E0490911F0401968F739927209107
:102850002004309121048217930771F0E0911E0447
:10286000F0911F04E252FC4F408390931F04809329
:102870001E0402C08091C600FF91EF919F918F913D
:102880004F913F912F910F900FBE0F901F90189571
:1028900088E793E00E947C13892B11F00C940D14AF
:1028A00008951F920F920FB60F9211242F933F930A
:1028B0008F939F93EF93FF932091DA033091DB0383
:1028C0008091DC039091DD032817390731F4809162
:1028D000C1008F7D8093C10014C0E091DC03F091B2
:1028E000DD03E656FC4F20818091DC039091DD03EF
:1028F00001968F7399279093DD038093DC032093D7
:10290000C600FF91EF919F918F913F912F910F9072
:102910000FBE0F901F901895CF92DF92EF92FF920B
:10292000CF93DF93EC016A017B01411581EE5807DB
:1029300061057105F9F0EC89FD8981E090E008A05E
:1029400002C0880F991F0A94E2F7808360E079E063
:102950008DE390E0A70196010E94232321503109C5
:10296000410951095695479537952795211580E1DD
:10297000380798F0EC89FD89108260E874E88EE1F0
:1029800090E0A70196010E942323215031094109BB
:1029900051095695479537952795E889F9893083E8
:1029A000EA89FB89208319A2EE89FF89408181E0B1
:1029B00090E09C010C8C02C0220F331F0A94E2F7B6
:1029C000422B4083EE89FF8940819C010D8C02C01F
:1029D000220F331F0A94E2F7422B4083EE89FF89CE
:1029E00040819C010E8C02C0220F331F0A94E2F733
:1029F000422B4083EE89FF8920810F8C02C0880F13
:102A0000991F0A94E2F7809582238083DF91CF910A
:102A1000FF90EF90DF90CF90089510927B0310927B
:102A20007A0388EE93E0A0E0B0E080937C0390937B
:102A30007D03A0937E03B0937F0381EE92E0909399
:102A40007903809378038EED93E0909385038093D0
:102A500084038AE993E0909387038093860385EC4F
:102A600090E0909389038093880384EC90E09093A6
:102A70008B0380938A0380EC90E090938D03809386
:102A80008C0381EC90E090938F0380938E0382EC13
:102A900090E0909391038093900386EC90E0909364
:102AA00093038093920384E08093940383E0809364
:102AB000950387E08093960385E08093970381E0F8
:102AC000809398030895FC0166834783208781E003
:102AD00085870895CF93DF93EC0160E08E810E949B
:102AE0000F1061E08E810E94481019861A861B869D
:102AF0001C86DF91CF910895DF92EF92FF920F93A2
:102B00001F93CF93DF93EC0161E08E810E94481008
:102B10006AEF70E080E090E00E945D0F0E942E0F4F
:102B200009851A852B853C856017710782079307F5
:102B300020F419861A861B861C862D85211111C04A
:102B400009851A852B853C85DC01CB01801B910B07
:102B5000A20BB30B803D9740A105B10510F481E0B5
:102B60006FC01D860E942E0F69877A878B879C878E
:102B70001C821B821A821982188261E08E810E9457
:102B80000F1060E08E810E94481064E170E080E0E8
:102B900090E00E945D0F61E08E810E94481088E203
:102BA00090E00E94830F60E08E810E940F10F12C54
:102BB000D12C81E0E12C082F10E08E810E947E1044
:102BC0008017910741F4E39481E090E00E94830F25
:102BD0008FEFE812F2CF8E810E947E109FEFE916F0
:102BE000C9F023E02F1590F4F0FC10C09D2D9695B0
:102BF00096959695FE01E90FF11D9081990F9083AE
:102C000028852E1510F491609083D394F39495E564
:102C1000F912D0CF27E22D1590F42C8130E04881B5
:102C2000898190E0840F911D4A81840F911D4B8111
:102C3000840F911D99272817390709F490CF80E058
:102C4000DF91CF911F910F91FF90EF90DF9008954A
:102C5000CF92DF92EF92FF920F931F93CF93DF9368
:102C6000EC01162F0E947C15882309F450C08F8137
:102C70008B3031F008F44BC08551823078F047C07A
:102C80006A8170E080E090E00E94501F112309F4F7
:102C900049C020E030E040E151E42AC00A81602FC1
:102CA0006F7770E080E090E00E94521F20E030E0FB
:102CB00040E853E40E9406206B017C016B8170E0C8
:102CC00080E090E00E94521F9B01AC01C701B60159
:102CD0000E944F1E20E030E040E251E40E94B71E07
:102CE00007FD9058112309F120E030E040E151E464
:102CF0000E94062020E030E040EA50E40E94B71E27
:102D000020E030E040E052E40E944F1E0EC06DEE25
:102D100072E088E793E00E941A1120E030E040E082
:102D200050E005C09B01AC0102C09B01AC01B901A0
:102D3000CA01DF91CF911F910F91FF90EF90DF902B
:102D4000CF900895CF92DF92EF92FF92CF93DF93CF
:102D5000EC010E947C15882379F18F818B3029F159
:102D600058F18551823040F5688170E080E090E054
:102D70000E94501F20E030E040E853E40E9406200B
:102D80006B017C01698170E080E090E00E94521F3D
:102D90009B01AC01C701B6010E944F1E20E030E04C
:102DA00040E251E40E94B71E10C0688170E080E0EC
:102DB00090E00E94501F09C06DEE72E088E793E03A
:102DC0000E941A1160E070E0CB01DF91CF91FF907B
:102DD000EF90DF90CF900895DC01ED91FC91019090
:102DE000F081E02D0994CF93C62F6CE370E083E26D
:102DF00094E00E94DB1960E870E083E294E00E94B6
:102E0000EC166C2F83E294E00E94781983E294E040
:102E1000CF910C94F019CF93DF93EC016EEA0E94EE
:102E2000F31665E070E080E090E00E945D0F6FEACD
:102E3000CE010E94F31665E070E080E090E00E9411
:102E40005D0F66EACE01DF91CF910C94F316CF931C
:102E5000DF93EC0181E0888360E2CE010E94F316EB
:102E600062E0CE01DF91CF910C94F3161F93CF93C4
:102E7000DF93EC01142F60550E94F316612F660F4B
:102E8000660F660F6870CE010E94F31688E0189FE7
:102E9000B001112484E0759567958A95E1F76F700C
:102EA000605FCE01DF91CF911F910C94F31666EA1B
:102EB0000C94F31667EA0C94F316CF93C62F6CE3C9
:102EC00070E083E294E00E94DB1960E470E083E24A
:102ED00094E00E94EC166C2F83E294E00E94781933
:102EE00083E294E0CF910C94F019EF92FF920F934C
:102EF0001F93CF93DF937C0180EE860F803608F01E
:102F000060E288E0689F80011124C0E0D0E00E53A9
:102F10001040F801EC0FFD1F6491C7010E945D177E
:102F20002196C830D105A9F7DF91CF911F910F915C
:102F3000FF90EF9008950F931F93CF93DF93EC01D1
:102F40006EEA0E94F31610E040E0612FCE010E946D
:102F5000361700E160E2CE010E9475170150D1F7EB
:102F60001F5F183089F76FEACE010E94F31640E028
:102F700060E0CE01DF91CF911F910F910C94361735
:102F8000FF920F931F93CF93DF93EC018B01F12CF2
:102F9000F801EF0DF11D6081662329F0CE010E943A
:102FA0007517F394F5CFDF91CF911F910F91FF909B
:102FB00008951F93CF93DF931F92CDB7DEB7162FDF
:102FC00060E670E083E294E049830E94DB19612FA0
:102FD00083E294E00E9478194981642F83E294E0AF
:102FE0000E94781983E294E00F90DF91CF911F91B6
:102FF0000C94F019CF93DF93EC0140E068E00E945D
:10300000D91740E069E0CE010E94D91740E064E0A2
:10301000CE010E94D91740E065E0CE010E94D91789
:1030200040E066E0CE010E94D91740E063E0CE01A7
:103030000E94D9174FEF61E2CE010E94D91741E0FB
:1030400068E1CE010E94D9176AE070E080E090E06C
:103050000E945D0F47E167E0CE010E94D9176AE048
:1030600070E080E090E0DF91CF910C945D0FCF9302
:10307000C62F60E670E083E294E00E94DB196C2FBB
:1030800083E294E00E94781983E294E00E94F019B0
:1030900041E050E060E670E083E294E00E94CE19E7
:1030A00083E294E00E942819CF9108951F93CF9353
:1030B000DF93EC01162F67E10E94D917412F406A78
:1030C00068E1CE010E94D9176EE2CE01DF91CF9167
:1030D0001F910C943718CF93DF93EC0149E263E121
:1030E0000E94D91749E864E1CE010E94D91742E055
:1030F00065E1CE010E94D91740E066E1CE010E9451
:10310000D91741EB61E0CE010E94561843E067E019
:10311000CE010E94561843E06FE0CE010E94D917FD
:1031200041E062E0CE010E94561840E06BE0CE0123
:103130000E94561847E06AE0CE010E94561844E209
:103140006CE0CE010E94561840E061E1CE010E9481
:10315000561847E060E1CE010E94561840E262E155
:10316000CE010E94561840E06EE1CE010E94561832
:1031700047E06DE1CE010E94561840E26FE1CE01BA
:103180000E94561841E063E0CE010E94D91741E049
:1031900064E0CE010E94D9174FEF68E0CE010E9493
:1031A000D9174FE068E1CE01DF91CF910C94D91788
:1031B000CF93DF93EC0183E294E00E94B71960E0C3
:1031C000CE010E943718853441F4CE010E94FA17CF
:1031D000CE010E946B1881E001C080E0DF91CF91A9
:1031E0000895CF93DF93C62F60E670E083E294E00A
:1031F0000E94DB196C2F83E294E00E94781983E22D
:1032000094E00E94F01942E050E060E670E083E252
:1032100094E00E94CE1983E294E00E942819EC0108
:1032200083E294E00E94281920E030E0382FC901A1
:103230008C2B9D2BDF91CF9108956CE20C94F118AB
:103240008091530490E020915404821B91090895C9
:103250002091540480915304281750F4E22FF0E099
:10326000EB5AFB4F808190E02F5F20935404089528
:103270008FEF9FEF0895E091540480915304E81775
:1032800030F4F0E0EB5AFB4F808190E008958FEF2F
:103290009FEF08950895CF92DF92EF92FF920F93E0
:1032A0001F93CF93DF937C01CB018A0120912F04E0
:1032B000222389F0EB016B01C40ED51ECC15DD0570
:1032C00069F06991D701ED91FC910190F081E02DB9
:1032D000C7010995F3CF642F0E94C31CC801DF9179
:1032E000CF911F910F91FF90EF90DF90CF900895B5
:1032F000CF93DF931F92CDB7DEB7698320912F0460
:103300002223D1F020913004203240F021E030E03F
:10331000FC013383228380E090E015C0809131046A
:10332000E82FF0E0EE5CFB4F998190838F5F8093F4
:1033300031048093300405C061E0CE0101960E9403
:10334000C31C81E090E00F90DF91CF910895FC01C4
:103350001382128248EE53E060E070E044835583AC
:10336000668377838BEF92E0918380830895109238
:1033700054041092530410923104109230040C94AF
:103380000E1C862F413208F040E265E574E00E9491
:103390002C1C1092540480935304089521E00C9443
:1033A000C11981E080932F0460935204109231047C
:1033B0001092300408950C94D1190F93062F21E038
:1033C0004091300462E374E0809152040E94701CCA
:1033D000109231041092300410922F040F9108952E
:1033E00061E00C94DD1983E294E00C94A719CB0101
:1033F0000C943F22CB01642F0C9447226F927F9252
:103400008F929F92AF92BF92CF92DF92EF92FF92F4
:103410000F931F93CF93DF93EC01CB01209781F49F
:10342000DF91CF911F910F91FF90EF90DF90CF90A0
:10343000BF90AF909F908F907F906F900C94E71A01
:10344000FE01E60FF71F9E0122503109E217F30734
:1034500008F4ACC0D9010D911C91119706171707FC
:10346000B8F00530110508F49FC0A8014450510977
:103470004617570708F498C002501109061B170B8E
:10348000019311936D937C93CF010E947F1B8CC09D
:103490005B01A01AB10A4E01800E911EA091E604B4
:1034A000B091E704612C712C60E070E0109709F492
:1034B00049C0A815B905C9F5ED90FC9011976701B1
:1034C00042E0C40ED11CCA14DB0478F147018A180B
:1034D0009B08640142E0C40ED11C1296BC90129766
:1034E0001396AC91B5E0CB16D10440F0B282A38321
:1034F00091828082D9018D939C9309C00E5F1F4FEA
:103500000E0D1F1DF90111830083EB2DFA2F61159C
:10351000710531F0DB011396FC93EE93129744C0D2
:10352000F093E704E093E6043FC06D917C9111971E
:103530006616770608F43B01BD0112960D90BC910A
:10354000A02DB4CF6091E4047091E504681579056D
:10355000E9F468167906D0F440910601509107010C
:103560004115510541F44DB75EB760910A01709164
:103570000B01461B570BE417F507C0F4F093E50465
:10358000E093E404F901918380830EC00E94E71A5E
:103590007C01009759F0A801BE010E941C1ECE01BB
:1035A0000E947F1BC70104C0CE0102C080E090E0F2
:1035B000DF91CF911F910F91FF90EF90DF90CF900F
:1035C000BF90AF909F908F907F906F900895CF9312
:1035D000DF938230910510F482E090E0E091E60400
:1035E000F091E70420E030E0A0E0B0E0309739F15E
:1035F0004081518148175907B8F04817590771F4AD
:1036000082819381109729F013969C938E93129741
:103610002CC09093E7048093E60427C02115310560
:1036200031F04217530718F0A901DB0101C0EF0187
:103630009A01BD01DF010280F381E02DD7CF211572
:103640003105F9F0281B390B2430310580F48A81CB
:103650009B816115710521F0FB019383828304C076
:103660009093E7048093E604FE01329644C0FE0185
:10367000E20FF31F819391932250310939832883FC
:103680003AC02091E4043091E504232B41F42091C9
:103690000801309109013093E5042093E40420915E
:1036A0000601309107012115310541F42DB73EB7D0
:1036B00040910A0150910B01241B350BE091E40469
:1036C000F091E504E217F307A0F42E1B3F0B281737
:1036D000390778F0AC014E5F5F4F2417350748F08B
:1036E0004E0F5F1F5093E5044093E4048193919340
:1036F00002C0E0E0F0E0CF01DF91CF910895CF93D9
:10370000DF93009709F487C0FC013297138212827D
:10371000C091E604D091E704209781F420813181A3
:10372000280F391F8091E4049091E50482179307D4
:1037300079F5F093E504E093E4046DC0DE0120E048
:1037400030E0AE17BF0750F412964D915C9113977D
:103750009D014115510509F1DA01F3CFB383A2832D
:1037600040815181840F951F8A179B0771F48D91B9
:103770009C911197840F951F0296918380831296D6
:103780008D919C911397938382832115310529F4A0
:10379000F093E704E093E6043EC0D9011396FC934E
:1037A000EE9312974D915D91A40FB51FEA17FB0799
:1037B00079F480819181840F951F0296D901119629
:1037C0009C938E938281938113969C938E931297F0
:1037D000E0E0F0E08A819B81009719F0FE01EC01A6
:1037E000F9CFCE01029628813981820F931F209153
:1037F000E4043091E5042817390769F4309729F477
:103800001092E7041092E60402C013821282D09351
:10381000E504C093E404DF91CF9108951092E3048E
:1038200081E08093E1041092E00461E082E10E9473
:10383000481061E083E10E944810E9EBF0E08081EC
:103840008E7F808380818D7F808388E48093B80021
:1038500085E48093BC000895413208F03FC0909108
:10386000E3049111FCCF91E09093E3042093E104F1
:103870002FEF209376041092BB04240F2093BA04F8
:103880009093E2049091E204880F892B8093E204E4
:103890008091E004813041F41092E0048091E204D0
:1038A0008093BB0085EC01C085EE8093BC008091C5
:1038B000E3048130E1F38091BB04841710F440915C
:1038C000BB042CEB34E0FB01D9018A2F821B841747
:1038D00018F48D918193F9CF842F089580E0089595
:1038E0000F93413208F046C09091E3049111FCCF50
:1038F00092E09093E3040093E1049FEF90937604A9
:103900001092BB044093BA04FB016CEB74E0DB0142
:103910009A2F961B941718F491919D93F9CF1092BA
:10392000E2049091E204880F892B8093E204809155
:10393000E004813041F41092E0048091E20480932D
:10394000BB0085EC01C085EE8093BC00222321F0F2
:103950008091E3048230E1F3809176048F3F61F03F
:1039600080917604803251F080917604803341F466
:1039700083E007C081E005C080E003C082E001C0B1
:1039800084E00F910895613298F42091E30424308B
:1039900089F460939804FC018AE994E0DC012A2F01
:1039A000281B261718F421912D93F9CF80E0089554
:1039B00081E0089582E0089585ED8093BC008091B8
:1039C000BC0084FDFCCF1092E304089585EC809345
:1039D000BC001092E30408951F920F920FB60F924D
:1039E00011242F933F934F935F936F937F938F9304
:1039F0009F93AF93BF93EF93FF938091B900887F1C
:103A0000803609F49CC068F5883209F45BC090F4F4
:103A1000803109F454C038F4882309F4F5C08830A3
:103A200009F44DC0F5C0883109F44CC0803209F466
:103A30005DC0EEC0803409F468C048F4803309F4F6
:103A400055C0883309F0E4C080937604A8C080355F
:103A500009F44FC0883509F45DC0883409F0D8C036
:103A6000D5C0883909F4C6C0A8F4883709F467C0FE
:103A700038F4883609F463C0803709F460C0C8C0E0
:103A8000883809F4B7C0803909F45FC0803809F07C
:103A9000BFC05BC0803B09F485C038F4803A09F4AC
:103AA00066C0883A09F47EC0B3C0803C09F4A6C061
:103AB000883C09F4A3C0883B09F489C0A9C080915F
:103AC000E20410C09091BB048091BA04981770F57D
:103AD000E091BB0481E08E0F8093BB04F0E0E454DE
:103AE000FB4F80818093BB0085EC85C0809376047A
:103AF0008DC0E091BB0481E08E0F8093BB04809168
:103B0000BB00F0E0E454FB4F80839091BB048091B4
:103B1000BA046DC0E091BB0481E08E0F8093BB04BA
:103B20008091BB00F0E0E454FB4F80838091E1047E
:103B300081116CC081E08093E00484EA60C083E07E
:103B40008093E30410927704CFCF80917704803282
:103B500008F050C0E091770481E08E0F80937704E5
:103B60008091BB00F0E0E858FB4F8083BDCF80918F
:103B70007704803230F4E0917704F0E0E858FB4FAE
:103B800010820E94DC1C6091770470E0E091DC04FC
:103B9000F091DD0488E794E00995109277040E9483
:103BA000E61C36C084E08093E304109299041092DE
:103BB0009804E091DE04F091DF0409958091980467
:103BC000811105C081E08093980410929A04E091DD
:103BD000990481E08E0F80939904F0E0E656FB4F44
:103BE00080818093BB0090919904809198049817EC
:103BF00008F47ACF85E88093BC000AC085EC8093F6
:103C0000BC001092E30404C0109276040E94DC1CF5
:103C1000FF91EF91BF91AF919F918F917F916F91A4
:103C20005F914F913F912F910F900FBE0F901F907A
:103C30001895F8940C948223FB01DC0102C00190DA
:103C40000D9241505040D8F70895FB01DC010190DE
:103C50000D920020E1F70895AEE0B0E0E2E3FEE16E
:103C60000C9453230D891E8986E08C831A83098363
:103C70008FEF9FE79E838D83AE01475E5F4F6F8915
:103C8000788DCE0101960E946D20EF81F885E00FBE
:103C9000F11F10822E96E4E00C946F235058BB273E
:103CA000AA270ED075C166D130F06BD120F031F467
:103CB0009F3F11F41EF45BC10EF4E095E7FB51C188
:103CC000E92F77D180F3BA17620773078407950746
:103CD00018F071F49EF58FC10EF4E0950B2EBA2FFB
:103CE000A02D0B01B90190010C01CA01A001112402
:103CF000FF27591B99F0593F50F4503E68F11A16AE
:103D0000F040A22F232F342F4427585FF3CF46953E
:103D100037952795A795F0405395C9F77EF41F1660
:103D2000BA0B620B730B840BBAF09150A1F0FF0F2A
:103D3000BB1F661F771F881FC2F70EC0BA0F621F16
:103D4000731F841F48F4879577956795B795F79506
:103D50009E3F08F0B3CF9395880F08F09927EE0F98
:103D6000979587950895D9D008F481E008950CD0EF
:103D70000FC107D140F0FED030F021F45F3F19F0C1
:103D8000F0C0511139C1F3C014D198F39923C9F38C
:103D90005523B1F3951B550BBB27AA276217730751
:103DA000840738F09F5F5F4F220F331F441FAA1F05
:103DB000A9F333D00E2E3AF0E0E830D091505040C5
:103DC000E695001CCAF729D0FE2F27D0660F771F73
:103DD000881FBB1F261737074807AB07B0E809F055
:103DE000BB0B802DBF01FF2793585F4F2AF09E3FEA
:103DF000510568F0B6C000C15F3FECF3983EDCF3BC
:103E0000869577956795B795F7959F5FC9F7880F62
:103E1000911D9695879597F90895E1E0660F771FB4
:103E2000881FBB1F621773078407BA0720F0621B45
:103E3000730B840BBA0BEE1F88F7E095089504D03E
:103E40006894B111D9C00895BCD088F09F5790F004
:103E5000B92F9927B751A0F0D1F0660F771F881FAF
:103E6000991F1AF0BA95C9F712C0B13081F0C3D0CA
:103E7000B1E00895C0C0672F782F8827B85F39F068
:103E8000B93FCCF3869577956795B395D9F73EF40E
:103E900090958095709561957F4F8F4F9F4F0895B6
:103EA000E89409C097FB3EF49095809570956195D4
:103EB0007F4F8F4F9F4F9923A9F0F92F96E9BB278A
:103EC0009395F695879577956795B795F111F8CF06
:103ED000FAF4BB0F11F460FF1BC06F5F7F4F8F4F71
:103EE0009F4F16C0882311F096E911C0772321F067
:103EF0009EE8872F762F05C0662371F096E8862FFF
:103F000070E060E02AF09A95660F771F881FDAF755
:103F1000880F9695879597F90895990F0008550F82
:103F2000AA0BE0E8FEEF16161706E807F907C0F03F
:103F300012161306E407F50798F0621B730B840B47
:103F4000950B39F40A2661F0232B242B252B21F421
:103F500008950A2609F4A140A6958FEF811D811DC1
:103F6000089597F99F6780E870E060E008959FEFFB
:103F700080EC089500240A94161617061806090600
:103F8000089500240A9412161306140605060895CF
:103F9000092E0394000C11F4882352F0BB0F40F457
:103FA000BF2B11F460FF04C06F5F7F4F8F4F9F4F97
:103FB000089557FD9058440F551F59F05F3F71F019
:103FC0004795880F97FB991F61F09F3F79F0879580
:103FD0000895121613061406551FF2CF4695F1DF09
:103FE00008C0161617061806991FF1CF8695710599
:103FF000610508940895E894BB2766277727CB01CD
:1040000097F908958ADF08F48FEF08950BD0C0CF99
:10401000B1DF28F0B6DF18F0952309F0A2CFA7CFC3
:104020001124EACFC6DFA0F3959FD1F3950F50E09E
:10403000551F629FF001729FBB27F00DB11D639F5A
:10404000AA27F00DB11DAA1F649F6627B00DA11D00
:10405000661F829F2227B00DA11D621F739FB00DA6
:10406000A11D621F839FA00D611D221F749F332716
:10407000A00D611D231F849F600D211D822F762FAF
:104080006A2F11249F5750408AF0E1F088234AF0AC
:10409000EE0FFF1FBB1F661F771F881F91505040F8
:1040A000A9F79E3F510570F05CCFA6CF5F3FECF3C0
:1040B000983EDCF3869577956795B795F795E795E4
:1040C0009F5FC1F7FE2B880F911D9695879597F9F5
:1040D000089523DF880B990B0895ACE0B0E0E3E787
:1040E000F0E20C9445237C016B018A01FC011782EC
:1040F0001682838181FFBDC1CE0101964C01F7017B
:104100009381F60193FD859193FF81916F0188233F
:1041100009F4ABC1853239F493FD859193FF819108
:104120006F01853229F4B70190E00E946B22E7CF3E
:10413000512C312C20E02032A0F48B3269F030F485
:10414000803259F0833269F420612CC08D3239F00D
:10415000803339F4216026C02260246023C02860A7
:1041600021C027FD27C030ED380F3A3078F426FF04
:1041700006C0FAE05F9E300D1124532E13C08AE072
:10418000389E300D1124332E20620CC08E3221F463
:1041900026FD6BC1206406C08C3611F4206802C075
:1041A000883641F4F60193FD859193FF81916F016B
:1041B0008111C1CF982F9F7D9554933028F40C5FC7
:1041C0001F4FFFE3F9830DC0833631F0833771F061
:1041D000833509F05BC022C0F801808189830E5FBE
:1041E0001F4F44244394512C540115C03801F2E070
:1041F0006F0E711CF801A080B18026FF03C0652DF1
:1042000070E002C06FEF7FEFC5012C870E94602233
:104210002C0183012C852F77222E17C03801F2E064
:104220006F0E711CF801A080B18026FF03C0652DC0
:1042300070E002C06FEF7FEFC5012C870E9455220E
:104240002C012C852068222E830123FC1BC0832D8A
:1042500090E048165906B0F4B70180E290E00E9461
:104260006B223A94F4CFF50127FC859127FE8191CA
:104270005F01B70190E00E946B2231103A94F1E0A7
:104280004F1A51084114510471F7E5C0843611F0FA
:10429000893639F5F80127FF07C060817181828175
:1042A00093810C5F1F4F08C060817181882777FD63
:1042B0008095982F0E5F1F4F2F76B22E97FF09C063
:1042C00090958095709561957F4F8F4F9F4F206897
:1042D000B22E2AE030E0A4010E949D22A82EA81848
:1042E00044C0853729F42F7EB22E2AE030E025C065
:1042F000F22FF97FBF2E8F36C1F018F4883579F090
:10430000B4C0803719F0883721F0AFC02F2F20615B
:10431000B22EB4FE0DC08B2D8460B82E09C024FFD0
:104320000AC09F2F9660B92E06C028E030E005C075
:1043300020E130E002C020E132E0F801B7FE07C022
:1043400060817181828193810C5F1F4F06C0608103
:10435000718180E090E00E5F1F4FA4010E949D22BA
:10436000A82EA818FB2DFF77BF2EB6FE0BC02B2D55
:104370002E7FA51450F4B4FE0AC0B2FC08C02B2D49
:104380002E7E05C07A2C2B2D03C07A2C01C0752CF3
:1043900024FF0DC0FE01EA0DF11D8081803311F470
:1043A000297E09C022FF06C07394739404C0822F33
:1043B000867809F0739423FD13C020FF06C05A2CA1
:1043C000731418F4530C5718732C731468F4B70152
:1043D00080E290E02C870E946B2273942C85F5CFAD
:1043E000731410F4371801C0312C24FF12C0B70128
:1043F00080E390E02C870E946B222C8522FF17C05F
:1044000021FF03C088E590E002C088E790E0B70193
:104410000CC0822F867859F021FD02C080E201C0D5
:104420008BE227FD8DE2B70190E00E946B22A5147C
:1044300038F4B70180E390E00E946B225A94F7CFE2
:10444000AA94F401EA0DF11D8081B70190E00E9469
:104450006B22A110F5CF332009F451CEB70180E2D1
:1044600090E00E946B223A94F6CFF7018681978103
:1044700002C08FEF9FEF2C96E2E10C946123F99933
:10448000FECF92BD81BDF89A992780B50895262F59
:10449000F999FECF1FBA92BD81BD20BD0FB6F89429
:1044A000FA9AF99A0FBE01960895FC0105906150A1
:1044B00070400110D8F7809590958E0F9F1F08953A
:1044C000FC016150704001900110D8F780959095E3
:1044D0008E0F9F1F08950F931F93CF93DF93182F75
:1044E000092FEB018B8181FD03C08FEF9FEF20C06F
:1044F00082FF10C04E815F812C813D81421753079E
:104500007CF4E881F9819F012F5F3F4F3983288335
:10451000108306C0E885F985812F0995892B29F735
:104520002E813F812F5F3F4F3F832E83812F902F1E
:10453000DF91CF911F910F910895FA01AA2728309A
:1045400051F1203181F1E8946F936E7F6E5F7F4F60
:104550008F4F9F4FAF4FB1E03ED0B4E03CD0670FDC
:10456000781F891F9A1FA11D680F791F8A1F911D2F
:10457000A11D6A0F711D811D911DA11D20D009F47F
:1045800068943F912AE0269F11243019305D3193C1
:10459000DEF6CF010895462F4770405D4193B3E0AA
:1045A0000FD0C9F7F6CF462F4F70405D4A3318F051
:1045B000495D31FD4052419302D0A9F7EACFB4E002
:1045C000A6959795879577956795BA95C9F70097BA
:1045D0006105710508959B01AC010A2E069457955B
:1045E000479537952795BA95C9F7620F731F841FB2
:1045F000951FA01D0895AA1BBB1B51E107C0AA1F50
:10460000BB1FA617B70710F0A61BB70B881F991F73
:104610005A95A9F780959095BC01CD01089597FB17
:10462000072E16F4009407D077FD09D00E94FB22D4
:1046300007FC05D03EF4909581959F4F08957095A5
:1046400061957F4F0895A1E21A2EAA1BBB1BFD01A5
:104650000DC0AA1FBB1FEE1FFF1FA217B307E40761
:10466000F50720F0A21BB30BE40BF50B661F771FB9
:10467000881F991F1A9469F7609570958095909599
:104680009B01AC01BD01CF0108952F923F924F9243
:104690005F926F927F928F929F92AF92BF92CF92D2
:1046A000DF92EF92FF920F931F93CF93DF93CDB7DB
:1046B000DEB7CA1BDB0B0FB6F894DEBF0FBECDBF53
:1046C00009942A88398848885F846E847D848C8424
:1046D0009B84AA84B984C884DF80EE80FD800C812D
:1046E0001B81AA81B981CE0FD11D0FB6F894DEBF10
:1046F0000FBECDBFED010895EE0FFF1F0590F491A1
:08470000E02D0994F894FFCFAD
:104708000000C84204010000E80480004D6F69738E
:10471800747572653A20002048756D69646974790A
:104728003A20002054656D703A2000205556496E95
:104738006465783A20002E2000555620496E64653D
:104748007800256400536166652056616C756500C4
:104758002532640048756D69646974790025642E92
:1047680025642525003C20536166652056616C75DB
:1047780065203C002532642E302525004C6F773C9F
:104788002D2D202020202048696768004C6F772055
:10479800202020202D2D3E486967680054656D70E3
:1047A800657261747572650025642E25642A43005C
:1047B8002532642E302A43004D6F69737475726513
:1047C8000025642E30252500536D61727420506CCD
:1047D800616E742043617265005072657373204284
:1047E8007574746F6E20746F0073746172742077BF
:1047F80061746572696E67004D6F6973747572656F
:104808003A0025642E2564252520005761746572B9
:10481800566F6C756D6500566F6C756D65204C69CB
:104828006D656E002532642E25644C0057617465F1
:1048380072206973206F6E2E00466C6F7752617418
:10484800653A00566F6C756D653A00486F75726C05
:1048580079207570646174652E005761726E696E97
:1048680067210048756D696469747920204C6F77F9
:104878000048756D696469747920486967680054EF
:10488800656D7020204C6F770054656D7020486905
:10489800676800555620202048696768004E6F20D9
:1048A80020576174657200253264204C2F4800251A
:1048B80032642E302564204C002532642E25326463
:1048C800204C00446F6E65205761746572696E678D
:1048D800006E616E00696E66006F7666000000000B
:1048E80000D013A7107C13A5138C13C51352656150
:1048F80064206661696C000000000078194B19207B
:084908001928193B194A190096
:00000001FF
